{
  "transactions": [
    {
      "hash": "0xa23c6d8a63e81392362aab90db418fbc8bf4484189ad4577bc88ef0d1802c427",
      "transactionType": "CALL",
      "contractName": null,
      "contractAddress": "0x833589fcd6edb6e08f4c7c32d4f71b54bda02913",
      "function": "approve(address,uint256)",
      "arguments": [
        "0x36d500a364A3A82140420d1BCb5F8A90c8e352eF",
        "115792089237316195423570985008687907853269984665640564039457584007913129639935"
      ],
      "transaction": {
        "from": "0x17c224a941de97c8e765e7f2415d7d18d4486d1a",
        "to": "0x833589fcd6edb6e08f4c7c32d4f71b54bda02913",
        "gas": "0x12ceb",
        "value": "0x0",
        "input": "0x095ea7b300000000000000000000000036d500a364a3a82140420d1bcb5f8a90c8e352efffffffffffffffffffffffffffffffffffffffffffffffffffffffffffffffff",
        "nonce": "0xa",
        "chainId": "0x2105"
      },
      "additionalContracts": [],
      "isFixedGasLimit": false
    },
    {
      "hash": "0x89269882d082ed7c182fc1a6a03ad500d8d383ddbc46e2838f8a06c0c677e346",
      "transactionType": "CALL",
      "contractName": null,
      "contractAddress": "0x102d758f688a4c1c5a80b116bd945d4455460282",
      "function": "approve(address,uint256)",
      "arguments": [
        "0x36d500a364A3A82140420d1BCb5F8A90c8e352eF",
        "115792089237316195423570985008687907853269984665640564039457584007913129639935"
      ],
      "transaction": {
        "from": "0x17c224a941de97c8e765e7f2415d7d18d4486d1a",
        "to": "0x102d758f688a4c1c5a80b116bd945d4455460282",
        "gas": "0x121be",
        "value": "0x0",
        "input": "0x095ea7b300000000000000000000000036d500a364a3a82140420d1bcb5f8a90c8e352efffffffffffffffffffffffffffffffffffffffffffffffffffffffffffffffff",
        "nonce": "0xb",
        "chainId": "0x2105"
      },
      "additionalContracts": [],
      "isFixedGasLimit": false
    },
    {
      "hash": "0xc48f39c9f7fe4788245e76bea36c810c805a1f276e872cf74ae8e43fc0e9a1e1",
      "transactionType": "CALL",
      "contractName": null,
      "contractAddress": "0x36d500a364a3a82140420d1bcb5f8a90c8e352ef",
      "function": "ship(address,bytes,address[],uint256[])",
      "arguments": [
        "0xeb99024504f5e73Fc857E4B2a0CF076C7F91fa2E",
        "0x00000000000000000000000017c224a941de97c8e765e7f2415d7d18d4486d1a000000000000000000000000833589fcd6edb6e08f4c7c32d4f71b54bda02913000000000000000000000000102d758f688a4c1c5a80b116bd945d4455460282000000000000000000000000000000000000000000000000000000000000000400000000000000000000000000000000000000000000000000000000000000640000000000000000000000000000000000000000000000000000000069226db7",
        "[0x833589fCD6eDb6E08f4c7C32D4f71b54bdA02913, 0x102d758f688a4C1C5a80b116bD945d4455460282]",
        "[2000000, 2000000]"
      ],
      "transaction": {
        "from": "0x17c224a941de97c8e765e7f2415d7d18d4486d1a",
        "to": "0x36d500a364a3a82140420d1bcb5f8a90c8e352ef",
        "gas": "0x1f60f",
        "value": "0x0",
        "input": "0xf50b870f000000000000000000000000eb99024504f5e73fc857e4b2a0cf076c7f91fa2e0000000000000000000000000000000000000000000000000000000000000080000000000000000000000000000000000000000000000000000000000000016000000000000000000000000000000000000000000000000000000000000001c000000000000000000000000000000000000000000000000000000000000000c000000000000000000000000017c224a941de97c8e765e7f2415d7d18d4486d1a000000000000000000000000833589fcd6edb6e08f4c7c32d4f71b54bda02913000000000000000000000000102d758f688a4c1c5a80b116bd945d4455460282000000000000000000000000000000000000000000000000000000000000000400000000000000000000000000000000000000000000000000000000000000640000000000000000000000000000000000000000000000000000000069226db70000000000000000000000000000000000000000000000000000000000000002000000000000000000000000833589fcd6edb6e08f4c7c32d4f71b54bda02913000000000000000000000000102d758f688a4c1c5a80b116bd945d4455460282000000000000000000000000000000000000000000000000000000000000000200000000000000000000000000000000000000000000000000000000001e848000000000000000000000000000000000000000000000000000000000001e8480",
        "nonce": "0xc",
        "chainId": "0x2105"
      },
      "additionalContracts": [],
      "isFixedGasLimit": false
    }
  ],
  "receipts": [
    {
      "status": "0x1",
      "cumulativeGasUsed": "0x279a46",
      "logs": [
        {
          "address": "0x833589fcd6edb6e08f4c7c32d4f71b54bda02913",
          "topics": [
            "0x8c5be1e5ebec7d5bd14f71427d1e84f3dd0314c0f7b2291e5b200ac8c7c3b925",
            "0x00000000000000000000000017c224a941de97c8e765e7f2415d7d18d4486d1a",
            "0x00000000000000000000000036d500a364a3a82140420d1bcb5f8a90c8e352ef"
          ],
          "data": "0xffffffffffffffffffffffffffffffffffffffffffffffffffffffffffffffff",
          "blockHash": "0x8f7c73b056edc661f8398607ec17b999f4b5090cefb1e831fc581913466fbe1d",
          "blockNumber": "0x24c0873",
          "blockTimestamp": "0x69226dc9",
          "transactionHash": "0xa23c6d8a63e81392362aab90db418fbc8bf4484189ad4577bc88ef0d1802c427",
          "transactionIndex": "0x25",
          "logIndex": "0x16",
          "removed": false
        }
      ],
      "logsBloom": "0x00000000000000000000000000000000000000000000000000000000000000000000000000000000000000000000100008000000000000000000000000200000000000000000000000000000000000000000000000081000000008000000000000800000000000000000000000000000000040010000000000000000000000000000000000000000000000000000000000000000000000000000000000000000020000000000000000000000000000000000000000000000000000000000000000000000000000000000000000000000000000000000000000000000000000000010000000000000000000000000000000000000000000000000000000000001",
      "type": "0x0",
      "transactionHash": "0xa23c6d8a63e81392362aab90db418fbc8bf4484189ad4577bc88ef0d1802c427",
      "transactionIndex": "0x25",
      "blockHash": "0x8f7c73b056edc661f8398607ec17b999f4b5090cefb1e831fc581913466fbe1d",
      "blockNumber": "0x24c0873",
      "gasUsed": "0xd9dd",
      "effectiveGasPrice": "0x2b0ecd",
      "from": "0x17c224a941de97c8e765e7f2415d7d18d4486d1a",
      "to": "0x833589fcd6edb6e08f4c7c32d4f71b54bda02913",
      "contractAddress": null,
      "l1BaseFeeScalar": "0x8dd",
      "l1BlobBaseFee": "0x1",
      "l1BlobBaseFeeScalar": "0x101c12",
      "l1Fee": "0xe2e5222",
      "l1GasPrice": "0x3e7fa4e",
      "l1GasUsed": "0x640"
    },
    {
      "status": "0x1",
      "cumulativeGasUsed": "0x286c0b",
      "logs": [
        {
          "address": "0x102d758f688a4c1c5a80b116bd945d4455460282",
          "topics": [
            "0x8c5be1e5ebec7d5bd14f71427d1e84f3dd0314c0f7b2291e5b200ac8c7c3b925",
            "0x00000000000000000000000017c224a941de97c8e765e7f2415d7d18d4486d1a",
            "0x00000000000000000000000036d500a364a3a82140420d1bcb5f8a90c8e352ef"
          ],
          "data": "0xffffffffffffffffffffffffffffffffffffffffffffffffffffffffffffffff",
          "blockHash": "0x8f7c73b056edc661f8398607ec17b999f4b5090cefb1e831fc581913466fbe1d",
          "blockNumber": "0x24c0873",
          "blockTimestamp": "0x69226dc9",
          "transactionHash": "0x89269882d082ed7c182fc1a6a03ad500d8d383ddbc46e2838f8a06c0c677e346",
          "transactionIndex": "0x26",
          "logIndex": "0x17",
          "removed": false
        }
      ],
      "logsBloom": "0x00000000000000000000000000000000000000000000000000000000000000000000000000000000000000000000000008000000000000000000000000200000000000000000000000000000000000000000000080001000000008000000000000000000001000000000000000000000000040010000000000000000000000000000000000000000000000000000000000000000000000000000000000000000020000000000000000000000000000000000000000000000000000000000000000000000000000000000000000000000000000000000000000000000000000000010000000000000000000000000000000000000000001000000000000000001",
      "type": "0x0",
      "transactionHash": "0x89269882d082ed7c182fc1a6a03ad500d8d383ddbc46e2838f8a06c0c677e346",
      "transactionIndex": "0x26",
      "blockHash": "0x8f7c73b056edc661f8398607ec17b999f4b5090cefb1e831fc581913466fbe1d",
      "blockNumber": "0x24c0873",
      "gasUsed": "0xd1c5",
      "effectiveGasPrice": "0x2b0ecd",
      "from": "0x17c224a941de97c8e765e7f2415d7d18d4486d1a",
      "to": "0x102d758f688a4c1c5a80b116bd945d4455460282",
      "contractAddress": null,
      "l1BaseFeeScalar": "0x8dd",
      "l1BlobBaseFee": "0x1",
      "l1BlobBaseFeeScalar": "0x101c12",
      "l1Fee": "0xe2e5222",
      "l1GasPrice": "0x3e7fa4e",
      "l1GasUsed": "0x640"
    },
    {
      "status": "0x1",
      "cumulativeGasUsed": "0x29c355",
      "logs": [
        {
          "address": "0x36d500a364a3a82140420d1bcb5f8a90c8e352ef",
          "topics": [
            "0xdc3622e06fb145651f567d421c9ef261d71d43e3778b761907bc0d70d42e52b0"
          ],
          "data": "0x00000000000000000000000017c224a941de97c8e765e7f2415d7d18d4486d1a000000000000000000000000eb99024504f5e73fc857e4b2a0cf076c7f91fa2ed3daabb0b826e003c220302d19357e16edc0d0c0f167bcf62217fa4fe43d837d000000000000000000000000000000000000000000000000000000000000008000000000000000000000000000000000000000000000000000000000000000c000000000000000000000000017c224a941de97c8e765e7f2415d7d18d4486d1a000000000000000000000000833589fcd6edb6e08f4c7c32d4f71b54bda02913000000000000000000000000102d758f688a4c1c5a80b116bd945d4455460282000000000000000000000000000000000000000000000000000000000000000400000000000000000000000000000000000000000000000000000000000000640000000000000000000000000000000000000000000000000000000069226db7",
          "blockHash": "0x8f7c73b056edc661f8398607ec17b999f4b5090cefb1e831fc581913466fbe1d",
          "blockNumber": "0x24c0873",
          "blockTimestamp": "0x69226dc9",
          "transactionHash": "0xc48f39c9f7fe4788245e76bea36c810c805a1f276e872cf74ae8e43fc0e9a1e1",
          "transactionIndex": "0x27",
          "logIndex": "0x18",
          "removed": false
        },
        {
          "address": "0x36d500a364a3a82140420d1bcb5f8a90c8e352ef",
          "topics": [
            "0x3f18354abbd5306dd1665c2c90f614a4559e39dd620d04fbe5458e613b6588f3"
          ],
          "data": "0x00000000000000000000000017c224a941de97c8e765e7f2415d7d18d4486d1a000000000000000000000000eb99024504f5e73fc857e4b2a0cf076c7f91fa2ed3daabb0b826e003c220302d19357e16edc0d0c0f167bcf62217fa4fe43d837d000000000000000000000000833589fcd6edb6e08f4c7c32d4f71b54bda0291300000000000000000000000000000000000000000000000000000000001e8480",
          "blockHash": "0x8f7c73b056edc661f8398607ec17b999f4b5090cefb1e831fc581913466fbe1d",
          "blockNumber": "0x24c0873",
          "blockTimestamp": "0x69226dc9",
          "transactionHash": "0xc48f39c9f7fe4788245e76bea36c810c805a1f276e872cf74ae8e43fc0e9a1e1",
          "transactionIndex": "0x27",
          "logIndex": "0x19",
          "removed": false
        },
        {
          "address": "0x36d500a364a3a82140420d1bcb5f8a90c8e352ef",
          "topics": [
            "0x3f18354abbd5306dd1665c2c90f614a4559e39dd620d04fbe5458e613b6588f3"
          ],
          "data": "0x00000000000000000000000017c224a941de97c8e765e7f2415d7d18d4486d1a000000000000000000000000eb99024504f5e73fc857e4b2a0cf076c7f91fa2ed3daabb0b826e003c220302d19357e16edc0d0c0f167bcf62217fa4fe43d837d000000000000000000000000102d758f688a4c1c5a80b116bd945d445546028200000000000000000000000000000000000000000000000000000000001e8480",
          "blockHash": "0x8f7c73b056edc661f8398607ec17b999f4b5090cefb1e831fc581913466fbe1d",
          "blockNumber": "0x24c0873",
          "blockTimestamp": "0x69226dc9",
          "transactionHash": "0xc48f39c9f7fe4788245e76bea36c810c805a1f276e872cf74ae8e43fc0e9a1e1",
          "transactionIndex": "0x27",
          "logIndex": "0x1a",
          "removed": false
        }
      ],
      "logsBloom": "0x00000000000000000000000000000000000000000000000000100000000000000000000000000000080000000000000000000000000000000000000000000000000000000000000000000000000000000040000000000000000000000000000000200000000020000000000000000000000000000000000000000000000000000000000000000000400000000000000000000000000000000000000000004000000000000000000000000000020000000000000000000000000000000000000000000000000000000000000000000000000000000000000000000000000000000000000000000000800000000000000000000000000000000000000000000000",
      "type": "0x0",
      "transactionHash": "0xc48f39c9f7fe4788245e76bea36c810c805a1f276e872cf74ae8e43fc0e9a1e1",
      "transactionIndex": "0x27",
      "blockHash": "0x8f7c73b056edc661f8398607ec17b999f4b5090cefb1e831fc581913466fbe1d",
      "blockNumber": "0x24c0873",
      "gasUsed": "0x1574a",
      "effectiveGasPrice": "0x2b0ecd",
      "from": "0x17c224a941de97c8e765e7f2415d7d18d4486d1a",
      "to": "0x36d500a364a3a82140420d1bcb5f8a90c8e352ef",
      "contractAddress": null,
      "l1BaseFeeScalar": "0x8dd",
      "l1BlobBaseFee": "0x1",
      "l1BlobBaseFeeScalar": "0x101c12",
      "l1Fee": "0x1e05c44b",
      "l1GasPrice": "0x3e7fa4e",
      "l1GasUsed": "0xd3b"
    }
  ],
  "libraries": [],
  "pending": [],
  "returns": {},
  "timestamp": 1763864009707,
  "chain": 8453,
  "commit": "8a19602"
}