{
  "transactions": [
    {
      "hash": "0x152adf8248b0c2e08e91e4526abc06f11e4bf0902a5606e0b05622338e0f279c",
      "transactionType": "CREATE",
      "contractName": "StableSwapper",
      "contractAddress": "0x4fb71cbb97014d3eb578d481d35021d1623a1179",
      "function": null,
      "arguments": [
        "0xe8A0876cF6c9aa254445526702978B21Db36df94"
      ],
      "transaction": {
        "from": "0x6e57a82c6dea975f306ec19d5d006eec361ed99d",
        "gas": "0x64cf3",
        "value": "0x0",
        "input": "0x60a034606c57601f61053338819003918201601f19168301916001600160401b03831184841017607057808492602094604052833981010312606c57516001600160a01b0381168103606c576080526040516104ae90816100858239608051818181605401526101300152f35b5f80fd5b634e487b7160e01b5f52604160045260245ffdfe6080806040526004361015610012575f80fd5b5f905f3560e01c90816359fac3201461021357508063a0ca5da6146100865763fe6a87051461003f575f80fd5b346100835780600319360112610083576040517f00000000000000000000000000000000000000000000000000000000000000006001600160a01b03168152602090f35b80fd5b50346101e2576101003660031901126101e2576004356001600160a01b038116908190036101e2576100b661044a565b506044356084356001600160a01b038116908190036101e25760a4356001600160a01b03811691908290036101e25760e43567ffffffffffffffff81116101e257366023820112156101e257806004013567ffffffffffffffff81116101e257369101602401116101e25760405163095ea7b360e01b81527f00000000000000000000000000000000000000000000000000000000000000006001600160a01b0316600482018190526024820185905291906020816044815f8a5af180156101d7576101e6575b50813b156101e2575f60a492819560405197889687956308fae4ed60e31b87526004870152602486015260c4356044860152606485015260848401525af180156101d7576101c9575080f35b6101d591505f90610428565b005b6040513d5f823e3d90fd5b5f80fd5b6102079060203d60201161020c575b6101ff8183610428565b810190610460565b61017d565b503d6101f5565b346101e2576101403660031901126101e2576004356001600160a01b038116908190036101e25760c03660231901126101e25760c0820182811067ffffffffffffffff8211176104145760405261026861044a565b82526044356001600160a01b0381168082036101e25760208401918252606435936001600160a01b0385168086036101e2576040820195865260608201946084358652608083019160a435835260a084019060c435825260e43591821515918284036101e2575f9760209161010435958a1461040d57505b6040516323b872dd60e01b81523360048201523060248201526044810186905298899160649183916001600160a01b03165af19485156101d757602099610184985f976103f2575b506040519b8c9a8b9963f427a14360e01b8b5260018060a01b0390511660048b015260018060a01b0390511660248a015260018060a01b0390511660448901525160648801525160848701525160a486015260c485015260e48401526101243561010484015233610124840152610160610144840152816101648401525af180156101d7575f906103bf575b602090604051908152f35b506020813d6020116103ea575b816103d960209383610428565b810103126101e257602090516103b4565b3d91506103cc565b610408908c3d8e1161020c576101ff8183610428565b610328565b90506102e0565b634e487b7160e01b5f52604160045260245ffd5b90601f8019910116810190811067ffffffffffffffff82111761041457604052565b602435906001600160a01b03821682036101e257565b908160209103126101e2575180151581036101e2579056fea2646970667358221220d6a665eb61631a5140ded5a89560bdae0fffc017267b34751961e969b132116e64736f6c634300081e0033000000000000000000000000e8a0876cf6c9aa254445526702978b21db36df94",
        "nonce": "0x1d",
        "chainId": "0x66eee"
      },
      "additionalContracts": [],
      "isFixedGasLimit": false
    },
    {
      "hash": "0x80860ee54f557ca068f4cd1514e9b436b572ce61efc46004c527ffb06bfd39a3",
      "transactionType": "CALL",
      "contractName": null,
      "contractAddress": "0xf488cae67bddaceb40ebcf389ad805dbd2d3c078",
      "function": "approve(address,uint256)",
      "arguments": [
        "0x4fB71CBb97014D3Eb578D481d35021d1623A1179",
        "1000000000"
      ],
      "transaction": {
        "from": "0x6e57a82c6dea975f306ec19d5d006eec361ed99d",
        "to": "0xf488cae67bddaceb40ebcf389ad805dbd2d3c078",
        "gas": "0xeb21",
        "value": "0x0",
        "input": "0x095ea7b30000000000000000000000004fb71cbb97014d3eb578d481d35021d1623a1179000000000000000000000000000000000000000000000000000000003b9aca00",
        "nonce": "0x1e",
        "chainId": "0x66eee"
      },
      "additionalContracts": [],
      "isFixedGasLimit": false
    },
    {
      "hash": "0x09f68e88812ea816671dbbc49a24440f163d80b9d7168703e9c8ac5fbe8be10d",
      "transactionType": "CALL",
      "contractName": "StableSwapper",
      "contractAddress": "0x4fb71cbb97014d3eb578d481d35021d1623a1179",
      "function": "executeSwap(address,(address,address,address,uint256,uint256,bytes32),bool,uint256,uint256)",
      "arguments": [
        "0xfc83F6c1e46646bF48391Da33B0D2e63D2b81641",
        "(0x6E57A82c6dea975f306EC19d5D006Eec361eD99D, 0xF488CAE67bddacEB40EbCF389Ad805DbD2D3c078, 0xeD1022B833Dbb646D0e0A57691cDdb568249B9e3, 4, 100, 0x0000000000000000000000000000000000000000000000000000000000000000)",
        "true",
        "1000000000",
        "989507027"
      ],
      "transaction": {
        "from": "0x6e57a82c6dea975f306ec19d5d006eec361ed99d",
        "to": "0x4fb71cbb97014d3eb578d481d35021d1623a1179",
        "gas": "0x7899",
        "value": "0x0",
        "input": "0x59fac320000000000000000000000000fc83f6c1e46646bf48391da33b0d2e63d2b816410000000000000000000000006e57a82c6dea975f306ec19d5d006eec361ed99d000000000000000000000000f488cae67bddaceb40ebcf389ad805dbd2d3c078000000000000000000000000ed1022b833dbb646d0e0a57691cddb568249b9e30000000000000000000000000000000000000000000000000000000000000004000000000000000000000000000000000000000000000000000000000000006400000000000000000000000000000000000000000000000000000000000000000000000000000000000000000000000000000000000000000000000000000001000000000000000000000000000000000000000000000000000000003b9aca00000000000000000000000000000000000000000000000000000000003afaadd3",
        "nonce": "0x1f",
        "chainId": "0x66eee"
      },
      "additionalContracts": [],
      "isFixedGasLimit": false
    },
    {
      "hash": "0x3542065fc49b36c83a3e716f1f40fa342d9eb1512b008bfc9bd692c2ee6cf3f5",
      "transactionType": "CALL",
      "contractName": null,
      "contractAddress": "0xed1022b833dbb646d0e0a57691cddb568249b9e3",
      "function": "approve(address,uint256)",
      "arguments": [
        "0x4fB71CBb97014D3Eb578D481d35021d1623A1179",
        "500000000"
      ],
      "transaction": {
        "from": "0x6e57a82c6dea975f306ec19d5d006eec361ed99d",
        "to": "0xed1022b833dbb646d0e0a57691cddb568249b9e3",
        "gas": "0xeb21",
        "value": "0x0",
        "input": "0x095ea7b30000000000000000000000004fb71cbb97014d3eb578d481d35021d1623a1179000000000000000000000000000000000000000000000000000000001dcd6500",
        "nonce": "0x20",
        "chainId": "0x66eee"
      },
      "additionalContracts": [],
      "isFixedGasLimit": false
    },
    {
      "hash": "0x49894c28e50744a0ac0935069b0e98828be3554722dd7dbf193dfbe96b84287b",
      "transactionType": "CALL",
      "contractName": "StableSwapper",
      "contractAddress": "0x4fb71cbb97014d3eb578d481d35021d1623a1179",
      "function": "executeSwap(address,(address,address,address,uint256,uint256,bytes32),bool,uint256,uint256)",
      "arguments": [
        "0xfc83F6c1e46646bF48391Da33B0D2e63D2b81641",
        "(0x6E57A82c6dea975f306EC19d5D006Eec361eD99D, 0xF488CAE67bddacEB40EbCF389Ad805DbD2D3c078, 0xeD1022B833Dbb646D0e0A57691cDdb568249B9e3, 4, 100, 0x0000000000000000000000000000000000000000000000000000000000000000)",
        "false",
        "500000000",
        "494875839"
      ],
      "transaction": {
        "from": "0x6e57a82c6dea975f306ec19d5d006eec361ed99d",
        "to": "0x4fb71cbb97014d3eb578d481d35021d1623a1179",
        "gas": "0x788a",
        "value": "0x0",
        "input": "0x59fac320000000000000000000000000fc83f6c1e46646bf48391da33b0d2e63d2b816410000000000000000000000006e57a82c6dea975f306ec19d5d006eec361ed99d000000000000000000000000f488cae67bddaceb40ebcf389ad805dbd2d3c078000000000000000000000000ed1022b833dbb646d0e0a57691cddb568249b9e30000000000000000000000000000000000000000000000000000000000000004000000000000000000000000000000000000000000000000000000000000006400000000000000000000000000000000000000000000000000000000000000000000000000000000000000000000000000000000000000000000000000000000000000000000000000000000000000000000000000000000000000001dcd6500000000000000000000000000000000000000000000000000000000001d7f34bf",
        "nonce": "0x21",
        "chainId": "0x66eee"
      },
      "additionalContracts": [],
      "isFixedGasLimit": false
    },
    {
      "hash": "0xe5def12f79543d91260e32d02c81987fe9416db27acd4351f05b438b90ca343b",
      "transactionType": "CALL",
      "contractName": null,
      "contractAddress": "0xf488cae67bddaceb40ebcf389ad805dbd2d3c078",
      "function": "approve(address,uint256)",
      "arguments": [
        "0x4fB71CBb97014D3Eb578D481d35021d1623A1179",
        "10000000000"
      ],
      "transaction": {
        "from": "0x6e57a82c6dea975f306ec19d5d006eec361ed99d",
        "to": "0xf488cae67bddaceb40ebcf389ad805dbd2d3c078",
        "gas": "0xeb31",
        "value": "0x0",
        "input": "0x095ea7b30000000000000000000000004fb71cbb97014d3eb578d481d35021d1623a117900000000000000000000000000000000000000000000000000000002540be400",
        "nonce": "0x22",
        "chainId": "0x66eee"
      },
      "additionalContracts": [],
      "isFixedGasLimit": false
    },
    {
      "hash": "0xe0e2dfbb96110c541029bf72d0187db1dbd91971e7d838601167aae020758e97",
      "transactionType": "CALL",
      "contractName": "StableSwapper",
      "contractAddress": "0x4fb71cbb97014d3eb578d481d35021d1623a1179",
      "function": "executeSwap(address,(address,address,address,uint256,uint256,bytes32),bool,uint256,uint256)",
      "arguments": [
        "0xfc83F6c1e46646bF48391Da33B0D2e63D2b81641",
        "(0x6E57A82c6dea975f306EC19d5D006Eec361eD99D, 0xF488CAE67bddacEB40EbCF389Ad805DbD2D3c078, 0xeD1022B833Dbb646D0e0A57691cDdb568249B9e3, 4, 100, 0x0000000000000000000000000000000000000000000000000000000000000000)",
        "true",
        "10000000000",
        "9886289810"
      ],
      "transaction": {
        "from": "0x6e57a82c6dea975f306ec19d5d006eec361ed99d",
        "to": "0x4fb71cbb97014d3eb578d481d35021d1623a1179",
        "gas": "0x78b8",
        "value": "0x0",
        "input": "0x59fac320000000000000000000000000fc83f6c1e46646bf48391da33b0d2e63d2b816410000000000000000000000006e57a82c6dea975f306ec19d5d006eec361ed99d000000000000000000000000f488cae67bddaceb40ebcf389ad805dbd2d3c078000000000000000000000000ed1022b833dbb646d0e0a57691cddb568249b9e3000000000000000000000000000000000000000000000000000000000000000400000000000000000000000000000000000000000000000000000000000000640000000000000000000000000000000000000000000000000000000000000000000000000000000000000000000000000000000000000000000000000000000100000000000000000000000000000000000000000000000000000002540be400000000000000000000000000000000000000000000000000000000024d44cf92",
        "nonce": "0x23",
        "chainId": "0x66eee"
      },
      "additionalContracts": [],
      "isFixedGasLimit": false
    }
  ],
  "receipts": [
    {
      "status": "0x1",
      "cumulativeGasUsed": "0x5454a",
      "logs": [],
      "logsBloom": "0x00000000000000000000000000000000000000000000000000000000000000000000000000000000000000000000000000000000000000000000000000000000000000000000000000000000000000000000000000000000000000000000000000000000000000000000000000000000000000000000000000000000000000000000000000000000000000000000000000000000000000000000000000000000000000000000000000000000000000000000000000000000000000000000000000000000000000000000000000000000000000000000000000000000000000000000000000000000000000000000000000000000000000000000000000000000",
      "type": "0x0",
      "transactionHash": "0x152adf8248b0c2e08e91e4526abc06f11e4bf0902a5606e0b05622338e0f279c",
      "transactionIndex": "0x2",
      "blockHash": "0xb1a4dfabd411f051bab05bad731bf69c2fdd31675a7d904832db2a56444fa8bb",
      "blockNumber": "0xcfd8646",
      "gasUsed": "0x4ca70",
      "effectiveGasPrice": "0x1312d00",
      "from": "0x6e57a82c6dea975f306ec19d5d006eec361ed99d",
      "to": null,
      "contractAddress": "0x4fb71cbb97014d3eb578d481d35021d1623a1179",
      "gasUsedForL1": "0x0",
      "l1BlockNumber": "0x93ca26",
      "timeboosted": false
    },
    {
      "status": "0x1",
      "cumulativeGasUsed": "0xb361",
      "logs": [
        {
          "address": "0xf488cae67bddaceb40ebcf389ad805dbd2d3c078",
          "topics": [
            "0x8c5be1e5ebec7d5bd14f71427d1e84f3dd0314c0f7b2291e5b200ac8c7c3b925",
            "0x0000000000000000000000006e57a82c6dea975f306ec19d5d006eec361ed99d",
            "0x0000000000000000000000004fb71cbb97014d3eb578d481d35021d1623a1179"
          ],
          "data": "0x000000000000000000000000000000000000000000000000000000003b9aca00",
          "blockHash": "0x90450e10a9987ea81aa203ee00c4383c82c2963f91fc54cfc57510b0db3a1870",
          "blockNumber": "0xcfd864a",
          "blockTimestamp": "0x69223232",
          "transactionHash": "0x80860ee54f557ca068f4cd1514e9b436b572ce61efc46004c527ffb06bfd39a3",
          "transactionIndex": "0x1",
          "logIndex": "0x0",
          "removed": false
        }
      ],
      "logsBloom": "0x00000000000000000000000000000000200000100000000008000000000400000000000000000000020000000000000000000000000000000000000000200000000000000000000000000200000000000000000000000000000000000000000000000000000000000000000000000000000000000000000000000000000000000000000000000000000000000000000000000000000000001000000000000000020000000000000000000000000000000000000000000000000000000000000000000000000000000000000000000000000000000000000004000000000000000010000000000000000000000000040000000000000000000000000000000000",
      "type": "0x0",
      "transactionHash": "0x80860ee54f557ca068f4cd1514e9b436b572ce61efc46004c527ffb06bfd39a3",
      "transactionIndex": "0x1",
      "blockHash": "0x90450e10a9987ea81aa203ee00c4383c82c2963f91fc54cfc57510b0db3a1870",
      "blockNumber": "0xcfd864a",
      "gasUsed": "0xb361",
      "effectiveGasPrice": "0x1312d00",
      "from": "0x6e57a82c6dea975f306ec19d5d006eec361ed99d",
      "to": "0xf488cae67bddaceb40ebcf389ad805dbd2d3c078",
      "contractAddress": null,
      "gasUsedForL1": "0x0",
      "l1BlockNumber": "0x93ca28",
      "timeboosted": false
    },
    {
      "status": "0x1",
      "cumulativeGasUsed": "0x1cd44",
      "logs": [
        {
          "address": "0xf488cae67bddaceb40ebcf389ad805dbd2d3c078",
          "topics": [
            "0xddf252ad1be2c89b69c2b068fc378daa952ba7f163c4a11628f55a4df523b3ef",
            "0x0000000000000000000000006e57a82c6dea975f306ec19d5d006eec361ed99d",
            "0x0000000000000000000000004fb71cbb97014d3eb578d481d35021d1623a1179"
          ],
          "data": "0x000000000000000000000000000000000000000000000000000000003b9aca00",
          "blockHash": "0x5c97239eb968b83601bc11d1e71ea55a77baa6f9518841ffe96c38685fdaf1a9",
          "blockNumber": "0xcfd864f",
          "blockTimestamp": "0x69223234",
          "transactionHash": "0x09f68e88812ea816671dbbc49a24440f163d80b9d7168703e9c8ac5fbe8be10d",
          "transactionIndex": "0x1",
          "logIndex": "0x0",
          "removed": false
        },
        {
          "address": "0xed1022b833dbb646d0e0a57691cddb568249b9e3",
          "topics": [
            "0xddf252ad1be2c89b69c2b068fc378daa952ba7f163c4a11628f55a4df523b3ef",
            "0x0000000000000000000000006e57a82c6dea975f306ec19d5d006eec361ed99d",
            "0x0000000000000000000000006e57a82c6dea975f306ec19d5d006eec361ed99d"
          ],
          "data": "0x000000000000000000000000000000000000000000000000000000003b9330e0",
          "blockHash": "0x5c97239eb968b83601bc11d1e71ea55a77baa6f9518841ffe96c38685fdaf1a9",
          "blockNumber": "0xcfd864f",
          "blockTimestamp": "0x69223234",
          "transactionHash": "0x09f68e88812ea816671dbbc49a24440f163d80b9d7168703e9c8ac5fbe8be10d",
          "transactionIndex": "0x1",
          "logIndex": "0x1",
          "removed": false
        },
        {
          "address": "0xe8a0876cf6c9aa254445526702978b21db36df94",
          "topics": [
            "0x3ad61047071575417c75e3311e5d46ff042e292b5dd8769ff18b4b254098ca7a"
          ],
          "data": "0x0000000000000000000000006e57a82c6dea975f306ec19d5d006eec361ed99d000000000000000000000000fc83f6c1e46646bf48391da33b0d2e63d2b816416e631584e925da939b757954f171c4d290f63ab6214db16500e83ad842fbe26b000000000000000000000000ed1022b833dbb646d0e0a57691cddb568249b9e3000000000000000000000000000000000000000000000000000000003b9330e0",
          "blockHash": "0x5c97239eb968b83601bc11d1e71ea55a77baa6f9518841ffe96c38685fdaf1a9",
          "blockNumber": "0xcfd864f",
          "blockTimestamp": "0x69223234",
          "transactionHash": "0x09f68e88812ea816671dbbc49a24440f163d80b9d7168703e9c8ac5fbe8be10d",
          "transactionIndex": "0x1",
          "logIndex": "0x2",
          "removed": false
        },
        {
          "address": "0xf488cae67bddaceb40ebcf389ad805dbd2d3c078",
          "topics": [
            "0x8c5be1e5ebec7d5bd14f71427d1e84f3dd0314c0f7b2291e5b200ac8c7c3b925",
            "0x0000000000000000000000004fb71cbb97014d3eb578d481d35021d1623a1179",
            "0x000000000000000000000000e8a0876cf6c9aa254445526702978b21db36df94"
          ],
          "data": "0x000000000000000000000000000000000000000000000000000000003b9aca00",
          "blockHash": "0x5c97239eb968b83601bc11d1e71ea55a77baa6f9518841ffe96c38685fdaf1a9",
          "blockNumber": "0xcfd864f",
          "blockTimestamp": "0x69223234",
          "transactionHash": "0x09f68e88812ea816671dbbc49a24440f163d80b9d7168703e9c8ac5fbe8be10d",
          "transactionIndex": "0x1",
          "logIndex": "0x3",
          "removed": false
        },
        {
          "address": "0xf488cae67bddaceb40ebcf389ad805dbd2d3c078",
          "topics": [
            "0xddf252ad1be2c89b69c2b068fc378daa952ba7f163c4a11628f55a4df523b3ef",
            "0x0000000000000000000000004fb71cbb97014d3eb578d481d35021d1623a1179",
            "0x0000000000000000000000006e57a82c6dea975f306ec19d5d006eec361ed99d"
          ],
          "data": "0x000000000000000000000000000000000000000000000000000000003b9aca00",
          "blockHash": "0x5c97239eb968b83601bc11d1e71ea55a77baa6f9518841ffe96c38685fdaf1a9",
          "blockNumber": "0xcfd864f",
          "blockTimestamp": "0x69223234",
          "transactionHash": "0x09f68e88812ea816671dbbc49a24440f163d80b9d7168703e9c8ac5fbe8be10d",
          "transactionIndex": "0x1",
          "logIndex": "0x4",
          "removed": false
        },
        {
          "address": "0xe8a0876cf6c9aa254445526702978b21db36df94",
          "topics": [
            "0x3f18354abbd5306dd1665c2c90f614a4559e39dd620d04fbe5458e613b6588f3"
          ],
          "data": "0x0000000000000000000000006e57a82c6dea975f306ec19d5d006eec361ed99d000000000000000000000000fc83f6c1e46646bf48391da33b0d2e63d2b816416e631584e925da939b757954f171c4d290f63ab6214db16500e83ad842fbe26b000000000000000000000000f488cae67bddaceb40ebcf389ad805dbd2d3c078000000000000000000000000000000000000000000000000000000003b9aca00",
          "blockHash": "0x5c97239eb968b83601bc11d1e71ea55a77baa6f9518841ffe96c38685fdaf1a9",
          "blockNumber": "0xcfd864f",
          "blockTimestamp": "0x69223234",
          "transactionHash": "0x09f68e88812ea816671dbbc49a24440f163d80b9d7168703e9c8ac5fbe8be10d",
          "transactionIndex": "0x1",
          "logIndex": "0x5",
          "removed": false
        }
      ],
      "logsBloom": "0x00000000000000000000000000400000200000100000000008100000000400102000000000000000020020000000000000000000200000000000000000200000000000000000000000000208001000000040000000000000000000000020000000200000000000000000000000000000000020000000000000000010000080000000000000000000000000000000000000000000000000001000000000000000020000000000000000000000000200000000000000010000000000000000000000000002000000000000000000000000000000000000000004000000000000000010000000000000000001000000040000000000000000000000000000000000",
      "type": "0x0",
      "transactionHash": "0x09f68e88812ea816671dbbc49a24440f163d80b9d7168703e9c8ac5fbe8be10d",
      "transactionIndex": "0x1",
      "blockHash": "0x5c97239eb968b83601bc11d1e71ea55a77baa6f9518841ffe96c38685fdaf1a9",
      "blockNumber": "0xcfd864f",
      "gasUsed": "0x1cd44",
      "effectiveGasPrice": "0x1312d00",
      "from": "0x6e57a82c6dea975f306ec19d5d006eec361ed99d",
      "to": "0x4fb71cbb97014d3eb578d481d35021d1623a1179",
      "contractAddress": null,
      "gasUsedForL1": "0x0",
      "l1BlockNumber": "0x93ca28",
      "timeboosted": false
    },
    {
      "status": "0x1",
      "cumulativeGasUsed": "0xb361",
      "logs": [
        {
          "address": "0xed1022b833dbb646d0e0a57691cddb568249b9e3",
          "topics": [
            "0x8c5be1e5ebec7d5bd14f71427d1e84f3dd0314c0f7b2291e5b200ac8c7c3b925",
            "0x0000000000000000000000006e57a82c6dea975f306ec19d5d006eec361ed99d",
            "0x0000000000000000000000004fb71cbb97014d3eb578d481d35021d1623a1179"
          ],
          "data": "0x000000000000000000000000000000000000000000000000000000001dcd6500",
          "blockHash": "0xc991ba94b7aefe38ee6765556fc7638d0ab85e01da5aae29b1db0b5565bbd2ab",
          "blockNumber": "0xcfd8654",
          "blockTimestamp": "0x69223235",
          "transactionHash": "0x3542065fc49b36c83a3e716f1f40fa342d9eb1512b008bfc9bd692c2ee6cf3f5",
          "transactionIndex": "0x1",
          "logIndex": "0x0",
          "removed": false
        }
      ],
      "logsBloom": "0x00000000000000000000000000000000000000100000000000000000000400002000000000000000020000000000000000000000000000000000000000200000000000000000000000000200000000000000000000000000000000000000000000000000000000000000000000000000000020000000000000000000000000000000000000000000000000000000000000000000000000000000000000000000020000000000000000000000000000000000000000010000000000000000000000000000000000000000000000000000000000000000000004000000000000000010000000000000000000000000040000000000000000000000000000000000",
      "type": "0x0",
      "transactionHash": "0x3542065fc49b36c83a3e716f1f40fa342d9eb1512b008bfc9bd692c2ee6cf3f5",
      "transactionIndex": "0x1",
      "blockHash": "0xc991ba94b7aefe38ee6765556fc7638d0ab85e01da5aae29b1db0b5565bbd2ab",
      "blockNumber": "0xcfd8654",
      "gasUsed": "0xb361",
      "effectiveGasPrice": "0x1312d00",
      "from": "0x6e57a82c6dea975f306ec19d5d006eec361ed99d",
      "to": "0xed1022b833dbb646d0e0a57691cddb568249b9e3",
      "contractAddress": null,
      "gasUsedForL1": "0x0",
      "l1BlockNumber": "0x93ca28",
      "timeboosted": false
    },
    {
      "status": "0x1",
      "cumulativeGasUsed": "0x1cd5b",
      "logs": [
        {
          "address": "0xed1022b833dbb646d0e0a57691cddb568249b9e3",
          "topics": [
            "0xddf252ad1be2c89b69c2b068fc378daa952ba7f163c4a11628f55a4df523b3ef",
            "0x0000000000000000000000006e57a82c6dea975f306ec19d5d006eec361ed99d",
            "0x0000000000000000000000004fb71cbb97014d3eb578d481d35021d1623a1179"
          ],
          "data": "0x000000000000000000000000000000000000000000000000000000001dcd6500",
          "blockHash": "0xf6243aaeb7cc915ec6e1a72dbbf6a0cf70160063423338de9f790d1d2ef0cee4",
          "blockNumber": "0xcfd8668",
          "blockTimestamp": "0x6922323a",
          "transactionHash": "0x49894c28e50744a0ac0935069b0e98828be3554722dd7dbf193dfbe96b84287b",
          "transactionIndex": "0x1",
          "logIndex": "0x0",
          "removed": false
        },
        {
          "address": "0xf488cae67bddaceb40ebcf389ad805dbd2d3c078",
          "topics": [
            "0xddf252ad1be2c89b69c2b068fc378daa952ba7f163c4a11628f55a4df523b3ef",
            "0x0000000000000000000000006e57a82c6dea975f306ec19d5d006eec361ed99d",
            "0x0000000000000000000000006e57a82c6dea975f306ec19d5d006eec361ed99d"
          ],
          "data": "0x000000000000000000000000000000000000000000000000000000001dcb7b19",
          "blockHash": "0xf6243aaeb7cc915ec6e1a72dbbf6a0cf70160063423338de9f790d1d2ef0cee4",
          "blockNumber": "0xcfd8668",
          "blockTimestamp": "0x6922323a",
          "transactionHash": "0x49894c28e50744a0ac0935069b0e98828be3554722dd7dbf193dfbe96b84287b",
          "transactionIndex": "0x1",
          "logIndex": "0x1",
          "removed": false
        },
        {
          "address": "0xe8a0876cf6c9aa254445526702978b21db36df94",
          "topics": [
            "0x3ad61047071575417c75e3311e5d46ff042e292b5dd8769ff18b4b254098ca7a"
          ],
          "data": "0x0000000000000000000000006e57a82c6dea975f306ec19d5d006eec361ed99d000000000000000000000000fc83f6c1e46646bf48391da33b0d2e63d2b816416e631584e925da939b757954f171c4d290f63ab6214db16500e83ad842fbe26b000000000000000000000000f488cae67bddaceb40ebcf389ad805dbd2d3c078000000000000000000000000000000000000000000000000000000001dcb7b19",
          "blockHash": "0xf6243aaeb7cc915ec6e1a72dbbf6a0cf70160063423338de9f790d1d2ef0cee4",
          "blockNumber": "0xcfd8668",
          "blockTimestamp": "0x6922323a",
          "transactionHash": "0x49894c28e50744a0ac0935069b0e98828be3554722dd7dbf193dfbe96b84287b",
          "transactionIndex": "0x1",
          "logIndex": "0x2",
          "removed": false
        },
        {
          "address": "0xed1022b833dbb646d0e0a57691cddb568249b9e3",
          "topics": [
            "0x8c5be1e5ebec7d5bd14f71427d1e84f3dd0314c0f7b2291e5b200ac8c7c3b925",
            "0x0000000000000000000000004fb71cbb97014d3eb578d481d35021d1623a1179",
            "0x000000000000000000000000e8a0876cf6c9aa254445526702978b21db36df94"
          ],
          "data": "0x000000000000000000000000000000000000000000000000000000001dcd6500",
          "blockHash": "0xf6243aaeb7cc915ec6e1a72dbbf6a0cf70160063423338de9f790d1d2ef0cee4",
          "blockNumber": "0xcfd8668",
          "blockTimestamp": "0x6922323a",
          "transactionHash": "0x49894c28e50744a0ac0935069b0e98828be3554722dd7dbf193dfbe96b84287b",
          "transactionIndex": "0x1",
          "logIndex": "0x3",
          "removed": false
        },
        {
          "address": "0xed1022b833dbb646d0e0a57691cddb568249b9e3",
          "topics": [
            "0xddf252ad1be2c89b69c2b068fc378daa952ba7f163c4a11628f55a4df523b3ef",
            "0x0000000000000000000000004fb71cbb97014d3eb578d481d35021d1623a1179",
            "0x0000000000000000000000006e57a82c6dea975f306ec19d5d006eec361ed99d"
          ],
          "data": "0x000000000000000000000000000000000000000000000000000000001dcd6500",
          "blockHash": "0xf6243aaeb7cc915ec6e1a72dbbf6a0cf70160063423338de9f790d1d2ef0cee4",
          "blockNumber": "0xcfd8668",
          "blockTimestamp": "0x6922323a",
          "transactionHash": "0x49894c28e50744a0ac0935069b0e98828be3554722dd7dbf193dfbe96b84287b",
          "transactionIndex": "0x1",
          "logIndex": "0x4",
          "removed": false
        },
        {
          "address": "0xe8a0876cf6c9aa254445526702978b21db36df94",
          "topics": [
            "0x3f18354abbd5306dd1665c2c90f614a4559e39dd620d04fbe5458e613b6588f3"
          ],
          "data": "0x0000000000000000000000006e57a82c6dea975f306ec19d5d006eec361ed99d000000000000000000000000fc83f6c1e46646bf48391da33b0d2e63d2b816416e631584e925da939b757954f171c4d290f63ab6214db16500e83ad842fbe26b000000000000000000000000ed1022b833dbb646d0e0a57691cddb568249b9e3000000000000000000000000000000000000000000000000000000001dcd6500",
          "blockHash": "0xf6243aaeb7cc915ec6e1a72dbbf6a0cf70160063423338de9f790d1d2ef0cee4",
          "blockNumber": "0xcfd8668",
          "blockTimestamp": "0x6922323a",
          "transactionHash": "0x49894c28e50744a0ac0935069b0e98828be3554722dd7dbf193dfbe96b84287b",
          "transactionIndex": "0x1",
          "logIndex": "0x5",
          "removed": false
        }
      ],
      "logsBloom": "0x00000000000000000000000000400000200000100000000008100000000400102000000000000000020020000000000000000000200000000000000000200000000000000000000000000208001000000040000000000000000000000020000000200000000000000000000000000000000020000000000000000010000080000000000000000000000000000000000000000000000000001000000000000000020000000000000000000000000200000000000000010000000000000000000000000002000000000000000000000000000000000000000004000000000000000010000000000000000001000000040000000000000000000000000000000000",
      "type": "0x0",
      "transactionHash": "0x49894c28e50744a0ac0935069b0e98828be3554722dd7dbf193dfbe96b84287b",
      "transactionIndex": "0x1",
      "blockHash": "0xf6243aaeb7cc915ec6e1a72dbbf6a0cf70160063423338de9f790d1d2ef0cee4",
      "blockNumber": "0xcfd8668",
      "gasUsed": "0x1cd5b",
      "effectiveGasPrice": "0x1312d00",
      "from": "0x6e57a82c6dea975f306ec19d5d006eec361ed99d",
      "to": "0x4fb71cbb97014d3eb578d481d35021d1623a1179",
      "contractAddress": null,
      "gasUsedForL1": "0x0",
      "l1BlockNumber": "0x93ca28",
      "timeboosted": false
    },
    {
      "status": "0x1",
      "cumulativeGasUsed": "0x1735f",
      "logs": [
        {
          "address": "0xf488cae67bddaceb40ebcf389ad805dbd2d3c078",
          "topics": [
            "0x8c5be1e5ebec7d5bd14f71427d1e84f3dd0314c0f7b2291e5b200ac8c7c3b925",
            "0x0000000000000000000000006e57a82c6dea975f306ec19d5d006eec361ed99d",
            "0x0000000000000000000000004fb71cbb97014d3eb578d481d35021d1623a1179"
          ],
          "data": "0x00000000000000000000000000000000000000000000000000000002540be400",
          "blockHash": "0x6e68c55232ad01050e74e4a7b63726bcc0d3c01a91a85c1f0944bece100a596b",
          "blockNumber": "0xcfd8670",
          "blockTimestamp": "0x6922323c",
          "transactionHash": "0xe5def12f79543d91260e32d02c81987fe9416db27acd4351f05b438b90ca343b",
          "transactionIndex": "0x2",
          "logIndex": "0x0",
          "removed": false
        }
      ],
      "logsBloom": "0x00000000000000000000000000000000200000100000000008000000000400000000000000000000020000000000000000000000000000000000000000200000000000000000000000000200000000000000000000000000000000000000000000000000000000000000000000000000000000000000000000000000000000000000000000000000000000000000000000000000000000001000000000000000020000000000000000000000000000000000000000000000000000000000000000000000000000000000000000000000000000000000000004000000000000000010000000000000000000000000040000000000000000000000000000000000",
      "type": "0x0",
      "transactionHash": "0xe5def12f79543d91260e32d02c81987fe9416db27acd4351f05b438b90ca343b",
      "transactionIndex": "0x2",
      "blockHash": "0x6e68c55232ad01050e74e4a7b63726bcc0d3c01a91a85c1f0944bece100a596b",
      "blockNumber": "0xcfd8670",
      "gasUsed": "0xb36d",
      "effectiveGasPrice": "0x1312d00",
      "from": "0x6e57a82c6dea975f306ec19d5d006eec361ed99d",
      "to": "0xf488cae67bddaceb40ebcf389ad805dbd2d3c078",
      "contractAddress": null,
      "gasUsedForL1": "0x0",
      "l1BlockNumber": "0x93ca28",
      "timeboosted": false
    },
    {
      "status": "0x1",
      "cumulativeGasUsed": "0x1cd58",
      "logs": [
        {
          "address": "0xf488cae67bddaceb40ebcf389ad805dbd2d3c078",
          "topics": [
            "0xddf252ad1be2c89b69c2b068fc378daa952ba7f163c4a11628f55a4df523b3ef",
            "0x0000000000000000000000006e57a82c6dea975f306ec19d5d006eec361ed99d",
            "0x0000000000000000000000004fb71cbb97014d3eb578d481d35021d1623a1179"
          ],
          "data": "0x00000000000000000000000000000000000000000000000000000002540be400",
          "blockHash": "0xb81c7291594bf99ee63745c5204a576294c0b3a5b5526fe1687d246395c524f9",
          "blockNumber": "0xcfd8674",
          "blockTimestamp": "0x6922323d",
          "transactionHash": "0xe0e2dfbb96110c541029bf72d0187db1dbd91971e7d838601167aae020758e97",
          "transactionIndex": "0x1",
          "logIndex": "0x0",
          "removed": false
        },
        {
          "address": "0xed1022b833dbb646d0e0a57691cddb568249b9e3",
          "topics": [
            "0xddf252ad1be2c89b69c2b068fc378daa952ba7f163c4a11628f55a4df523b3ef",
            "0x0000000000000000000000006e57a82c6dea975f306ec19d5d006eec361ed99d",
            "0x0000000000000000000000006e57a82c6dea975f306ec19d5d006eec361ed99d"
          ],
          "data": "0x000000000000000000000000000000000000000000000000000000025338939c",
          "blockHash": "0xb81c7291594bf99ee63745c5204a576294c0b3a5b5526fe1687d246395c524f9",
          "blockNumber": "0xcfd8674",
          "blockTimestamp": "0x6922323d",
          "transactionHash": "0xe0e2dfbb96110c541029bf72d0187db1dbd91971e7d838601167aae020758e97",
          "transactionIndex": "0x1",
          "logIndex": "0x1",
          "removed": false
        },
        {
          "address": "0xe8a0876cf6c9aa254445526702978b21db36df94",
          "topics": [
            "0x3ad61047071575417c75e3311e5d46ff042e292b5dd8769ff18b4b254098ca7a"
          ],
          "data": "0x0000000000000000000000006e57a82c6dea975f306ec19d5d006eec361ed99d000000000000000000000000fc83f6c1e46646bf48391da33b0d2e63d2b816416e631584e925da939b757954f171c4d290f63ab6214db16500e83ad842fbe26b000000000000000000000000ed1022b833dbb646d0e0a57691cddb568249b9e3000000000000000000000000000000000000000000000000000000025338939c",
          "blockHash": "0xb81c7291594bf99ee63745c5204a576294c0b3a5b5526fe1687d246395c524f9",
          "blockNumber": "0xcfd8674",
          "blockTimestamp": "0x6922323d",
          "transactionHash": "0xe0e2dfbb96110c541029bf72d0187db1dbd91971e7d838601167aae020758e97",
          "transactionIndex": "0x1",
          "logIndex": "0x2",
          "removed": false
        },
        {
          "address": "0xf488cae67bddaceb40ebcf389ad805dbd2d3c078",
          "topics": [
            "0x8c5be1e5ebec7d5bd14f71427d1e84f3dd0314c0f7b2291e5b200ac8c7c3b925",
            "0x0000000000000000000000004fb71cbb97014d3eb578d481d35021d1623a1179",
            "0x000000000000000000000000e8a0876cf6c9aa254445526702978b21db36df94"
          ],
          "data": "0x00000000000000000000000000000000000000000000000000000002540be400",
          "blockHash": "0xb81c7291594bf99ee63745c5204a576294c0b3a5b5526fe1687d246395c524f9",
          "blockNumber": "0xcfd8674",
          "blockTimestamp": "0x6922323d",
          "transactionHash": "0xe0e2dfbb96110c541029bf72d0187db1dbd91971e7d838601167aae020758e97",
          "transactionIndex": "0x1",
          "logIndex": "0x3",
          "removed": false
        },
        {
          "address": "0xf488cae67bddaceb40ebcf389ad805dbd2d3c078",
          "topics": [
            "0xddf252ad1be2c89b69c2b068fc378daa952ba7f163c4a11628f55a4df523b3ef",
            "0x0000000000000000000000004fb71cbb97014d3eb578d481d35021d1623a1179",
            "0x0000000000000000000000006e57a82c6dea975f306ec19d5d006eec361ed99d"
          ],
          "data": "0x00000000000000000000000000000000000000000000000000000002540be400",
          "blockHash": "0xb81c7291594bf99ee63745c5204a576294c0b3a5b5526fe1687d246395c524f9",
          "blockNumber": "0xcfd8674",
          "blockTimestamp": "0x6922323d",
          "transactionHash": "0xe0e2dfbb96110c541029bf72d0187db1dbd91971e7d838601167aae020758e97",
          "transactionIndex": "0x1",
          "logIndex": "0x4",
          "removed": false
        },
        {
          "address": "0xe8a0876cf6c9aa254445526702978b21db36df94",
          "topics": [
            "0x3f18354abbd5306dd1665c2c90f614a4559e39dd620d04fbe5458e613b6588f3"
          ],
          "data": "0x0000000000000000000000006e57a82c6dea975f306ec19d5d006eec361ed99d000000000000000000000000fc83f6c1e46646bf48391da33b0d2e63d2b816416e631584e925da939b757954f171c4d290f63ab6214db16500e83ad842fbe26b000000000000000000000000f488cae67bddaceb40ebcf389ad805dbd2d3c07800000000000000000000000000000000000000000000000000000002540be400",
          "blockHash": "0xb81c7291594bf99ee63745c5204a576294c0b3a5b5526fe1687d246395c524f9",
          "blockNumber": "0xcfd8674",
          "blockTimestamp": "0x6922323d",
          "transactionHash": "0xe0e2dfbb96110c541029bf72d0187db1dbd91971e7d838601167aae020758e97",
          "transactionIndex": "0x1",
          "logIndex": "0x5",
          "removed": false
        }
      ],
      "logsBloom": "0x00000000000000000000000000400000200000100000000008100000000400102000000000000000020020000000000000000000200000000000000000200000000000000000000000000208001000000040000000000000000000000020000000200000000000000000000000000000000020000000000000000010000080000000000000000000000000000000000000000000000000001000000000000000020000000000000000000000000200000000000000010000000000000000000000000002000000000000000000000000000000000000000004000000000000000010000000000000000001000000040000000000000000000000000000000000",
      "type": "0x0",
      "transactionHash": "0xe0e2dfbb96110c541029bf72d0187db1dbd91971e7d838601167aae020758e97",
      "transactionIndex": "0x1",
      "blockHash": "0xb81c7291594bf99ee63745c5204a576294c0b3a5b5526fe1687d246395c524f9",
      "blockNumber": "0xcfd8674",
      "gasUsed": "0x1cd58",
      "effectiveGasPrice": "0x1312d00",
      "from": "0x6e57a82c6dea975f306ec19d5d006eec361ed99d",
      "to": "0x4fb71cbb97014d3eb578d481d35021d1623a1179",
      "contractAddress": null,
      "gasUsedForL1": "0x0",
      "l1BlockNumber": "0x93ca28",
      "timeboosted": false
    }
  ],
  "libraries": [],
  "pending": [],
  "returns": {},
  "timestamp": 1763848766102,
  "chain": 421614,
  "commit": "b6cd9f4"
}