{
  "transactions": [
    {
      "hash": "0x1ab1d246882c88afdeac5d66933539040e3952c594775b21c4cde799bd6bb779",
      "transactionType": "CREATE",
      "contractName": "StableSwapper",
      "contractAddress": "0x09acf87913952081657161dfb2220d3e3a9da579",
      "function": null,
      "arguments": [
        "0x36d500a364A3A82140420d1BCb5F8A90c8e352eF"
      ],
      "transaction": {
        "from": "0x8d6da02d4e2e0a31ee24e6bdeff0b8432b582cf1",
        "gas": "0x63a4e",
        "value": "0x0",
        "input": "0x60a034606c57601f61053338819003918201601f19168301916001600160401b03831184841017607057808492602094604052833981010312606c57516001600160a01b0381168103606c576080526040516104ae90816100858239608051818181605401526101300152f35b5f80fd5b634e487b7160e01b5f52604160045260245ffdfe6080806040526004361015610012575f80fd5b5f905f3560e01c90816359fac3201461021357508063a0ca5da6146100865763fe6a87051461003f575f80fd5b346100835780600319360112610083576040517f00000000000000000000000000000000000000000000000000000000000000006001600160a01b03168152602090f35b80fd5b50346101e2576101003660031901126101e2576004356001600160a01b038116908190036101e2576100b661044a565b506044356084356001600160a01b038116908190036101e25760a4356001600160a01b03811691908290036101e25760e43567ffffffffffffffff81116101e257366023820112156101e257806004013567ffffffffffffffff81116101e257369101602401116101e25760405163095ea7b360e01b81527f00000000000000000000000000000000000000000000000000000000000000006001600160a01b0316600482018190526024820185905291906020816044815f8a5af180156101d7576101e6575b50813b156101e2575f60a492819560405197889687956308fae4ed60e31b87526004870152602486015260c4356044860152606485015260848401525af180156101d7576101c9575080f35b6101d591505f90610428565b005b6040513d5f823e3d90fd5b5f80fd5b6102079060203d60201161020c575b6101ff8183610428565b810190610460565b61017d565b503d6101f5565b346101e2576101403660031901126101e2576004356001600160a01b038116908190036101e25760c03660231901126101e25760c0820182811067ffffffffffffffff8211176104145760405261026861044a565b82526044356001600160a01b0381168082036101e25760208401918252606435936001600160a01b0385168086036101e2576040820195865260608201946084358652608083019160a435835260a084019060c435825260e43591821515918284036101e2575f9760209161010435958a1461040d57505b6040516323b872dd60e01b81523360048201523060248201526044810186905298899160649183916001600160a01b03165af19485156101d757602099610184985f976103f2575b506040519b8c9a8b9963f427a14360e01b8b5260018060a01b0390511660048b015260018060a01b0390511660248a015260018060a01b0390511660448901525160648801525160848701525160a486015260c485015260e48401526101243561010484015233610124840152610160610144840152816101648401525af180156101d7575f906103bf575b602090604051908152f35b506020813d6020116103ea575b816103d960209383610428565b810103126101e257602090516103b4565b3d91506103cc565b610408908c3d8e1161020c576101ff8183610428565b610328565b90506102e0565b634e487b7160e01b5f52604160045260245ffd5b90601f8019910116810190811067ffffffffffffffff82111761041457604052565b602435906001600160a01b03821682036101e257565b908160209103126101e2575180151581036101e2579056fea264697066735822122007813e8990c25735dd0e99d5ddc06835a824ddda72ffdc89fb529f948f566bf864736f6c634300081e003300000000000000000000000036d500a364a3a82140420d1bcb5f8a90c8e352ef",
        "nonce": "0x56",
        "chainId": "0x2105"
      },
      "additionalContracts": [],
      "isFixedGasLimit": false
    },
    {
      "hash": "0xa0f0848d3addfdcb498a6d0cef8d79843e1f7d4d0e2b19844d33c901c0084259",
      "transactionType": "CALL",
      "contractName": null,
      "contractAddress": "0x833589fcd6edb6e08f4c7c32d4f71b54bda02913",
      "function": "approve(address,uint256)",
      "arguments": [
        "0x09ACF87913952081657161DfB2220D3E3A9DA579",
        "1000000"
      ],
      "transaction": {
        "from": "0x8d6da02d4e2e0a31ee24e6bdeff0b8432b582cf1",
        "to": "0x833589fcd6edb6e08f4c7c32d4f71b54bda02913",
        "gas": "0x12b1b",
        "value": "0x0",
        "input": "0x095ea7b300000000000000000000000009acf87913952081657161dfb2220d3e3a9da57900000000000000000000000000000000000000000000000000000000000f4240",
        "nonce": "0x57",
        "chainId": "0x2105"
      },
      "additionalContracts": [],
      "isFixedGasLimit": false
    },
    {
      "hash": "0x5a5356294fbdc0f5c05c97bba471fef76cba08a4c0c0fc90c219303344986b15",
      "transactionType": "CALL",
      "contractName": "StableSwapper",
      "contractAddress": "0x09acf87913952081657161dfb2220d3e3a9da579",
      "function": "executeSwap(address,(address,address,address,uint256,uint256,bytes32),bool,uint256,uint256)",
      "arguments": [
        "0xeb99024504f5e73Fc857E4B2a0CF076C7F91fa2E",
        "(0x17C224A941De97c8e765E7F2415D7D18D4486d1a, 0x833589fCD6eDb6E08f4c7C32D4f71b54bdA02913, 0x102d758f688a4C1C5a80b116bD945d4455460282, 4, 100, 0x0000000000000000000000000000000000000000000000000000000000000000)",
        "true",
        "1000000",
        "986337"
      ],
      "transaction": {
        "from": "0x8d6da02d4e2e0a31ee24e6bdeff0b8432b582cf1",
        "to": "0x09acf87913952081657161dfb2220d3e3a9da579",
        "gas": "0x385e3",
        "value": "0x0",
        "input": "0x59fac320000000000000000000000000eb99024504f5e73fc857e4b2a0cf076c7f91fa2e00000000000000000000000017c224a941de97c8e765e7f2415d7d18d4486d1a000000000000000000000000833589fcd6edb6e08f4c7c32d4f71b54bda02913000000000000000000000000102d758f688a4c1c5a80b116bd945d4455460282000000000000000000000000000000000000000000000000000000000000000400000000000000000000000000000000000000000000000000000000000000640000000000000000000000000000000000000000000000000000000000000000000000000000000000000000000000000000000000000000000000000000000100000000000000000000000000000000000000000000000000000000000f424000000000000000000000000000000000000000000000000000000000000f0ce1",
        "nonce": "0x58",
        "chainId": "0x2105"
      },
      "additionalContracts": [],
      "isFixedGasLimit": false
    }
  ],
  "receipts": [
    {
      "status": "0x1",
      "cumulativeGasUsed": "0x148e468",
      "logs": [],
      "logsBloom": "0x00000000000000000000000000000000000000000000000000000000000000000000000000000000000000000000000000000000000000000000000000000000000000000000000000000000000000000000000000000000000000000000000000000000000000000000000000000000000000000000000000000000000000000000000000000000000000000000000000000000000000000000000000000000000000000000000000000000000000000000000000000000000000000000000000000000000000000000000000000000000000000000000000000000000000000000000000000000000000000000000000000000000000000000000000000000",
      "type": "0x0",
      "transactionHash": "0x1ab1d246882c88afdeac5d66933539040e3952c594775b21c4cde799bd6bb779",
      "transactionIndex": "0x6a",
      "blockHash": "0x27440fb8e634c1b5d9b4bbd00f285f8e40b444e45e27cfc09ec9adab4c939cad",
      "blockNumber": "0x24c0a00",
      "gasUsed": "0x4ca64",
      "effectiveGasPrice": "0x287211",
      "from": "0x8d6da02d4e2e0a31ee24e6bdeff0b8432b582cf1",
      "to": null,
      "contractAddress": "0x09acf87913952081657161dfb2220d3e3a9da579",
      "l1BaseFeeScalar": "0x8dd",
      "l1BlobBaseFee": "0x1",
      "l1BlobBaseFeeScalar": "0x101c12",
      "l1Fee": "0x820bf5e4",
      "l1GasPrice": "0x3edabe2",
      "l1GasUsed": "0x38fd"
    },
    {
      "status": "0x1",
      "cumulativeGasUsed": "0x149bcf5",
      "logs": [
        {
          "address": "0x833589fcd6edb6e08f4c7c32d4f71b54bda02913",
          "topics": [
            "0x8c5be1e5ebec7d5bd14f71427d1e84f3dd0314c0f7b2291e5b200ac8c7c3b925",
            "0x0000000000000000000000008d6da02d4e2e0a31ee24e6bdeff0b8432b582cf1",
            "0x00000000000000000000000009acf87913952081657161dfb2220d3e3a9da579"
          ],
          "data": "0x00000000000000000000000000000000000000000000000000000000000f4240",
          "blockHash": "0x27440fb8e634c1b5d9b4bbd00f285f8e40b444e45e27cfc09ec9adab4c939cad",
          "blockNumber": "0x24c0a00",
          "blockTimestamp": "0x692270e3",
          "transactionHash": "0xa0f0848d3addfdcb498a6d0cef8d79843e1f7d4d0e2b19844d33c901c0084259",
          "transactionIndex": "0x6b",
          "logIndex": "0x18b",
          "removed": false
        }
      ],
      "logsBloom": "0x00000000000000000000000000000000000000000000000000000000000000000000000000000000000000000000100000000000000000000001000000200000000000000040000000000000000000000000000000080000000000000000000000800000000000000000000000008000000000000000000080000000000000000000000000000000000000000000000000000000000000000000000000000000020000100000000000000000000000000000000000000000000000000000000000000000000000000000000000000000000000000000000000000000000000000010000200000000000000000000000000000000000000000000000000000000",
      "type": "0x0",
      "transactionHash": "0xa0f0848d3addfdcb498a6d0cef8d79843e1f7d4d0e2b19844d33c901c0084259",
      "transactionIndex": "0x6b",
      "blockHash": "0x27440fb8e634c1b5d9b4bbd00f285f8e40b444e45e27cfc09ec9adab4c939cad",
      "blockNumber": "0x24c0a00",
      "gasUsed": "0xd88d",
      "effectiveGasPrice": "0x287211",
      "from": "0x8d6da02d4e2e0a31ee24e6bdeff0b8432b582cf1",
      "to": "0x833589fcd6edb6e08f4c7c32d4f71b54bda02913",
      "contractAddress": null,
      "l1BaseFeeScalar": "0x8dd",
      "l1BlobBaseFee": "0x1",
      "l1BlobBaseFeeScalar": "0x101c12",
      "l1Fee": "0xe42fdba",
      "l1GasPrice": "0x3edabe2",
      "l1GasUsed": "0x640"
    },
    {
      "status": "0x1",
      "cumulativeGasUsed": "0x14c49e9",
      "logs": [
        {
          "address": "0x833589fcd6edb6e08f4c7c32d4f71b54bda02913",
          "topics": [
            "0xddf252ad1be2c89b69c2b068fc378daa952ba7f163c4a11628f55a4df523b3ef",
            "0x0000000000000000000000008d6da02d4e2e0a31ee24e6bdeff0b8432b582cf1",
            "0x00000000000000000000000009acf87913952081657161dfb2220d3e3a9da579"
          ],
          "data": "0x00000000000000000000000000000000000000000000000000000000000f4240",
          "blockHash": "0x27440fb8e634c1b5d9b4bbd00f285f8e40b444e45e27cfc09ec9adab4c939cad",
          "blockNumber": "0x24c0a00",
          "blockTimestamp": "0x692270e3",
          "transactionHash": "0x5a5356294fbdc0f5c05c97bba471fef76cba08a4c0c0fc90c219303344986b15",
          "transactionIndex": "0x6c",
          "logIndex": "0x18c",
          "removed": false
        },
        {
          "address": "0x102d758f688a4c1c5a80b116bd945d4455460282",
          "topics": [
            "0xddf252ad1be2c89b69c2b068fc378daa952ba7f163c4a11628f55a4df523b3ef",
            "0x00000000000000000000000017c224a941de97c8e765e7f2415d7d18d4486d1a",
            "0x0000000000000000000000008d6da02d4e2e0a31ee24e6bdeff0b8432b582cf1"
          ],
          "data": "0x00000000000000000000000000000000000000000000000000000000000f33cd",
          "blockHash": "0x27440fb8e634c1b5d9b4bbd00f285f8e40b444e45e27cfc09ec9adab4c939cad",
          "blockNumber": "0x24c0a00",
          "blockTimestamp": "0x692270e3",
          "transactionHash": "0x5a5356294fbdc0f5c05c97bba471fef76cba08a4c0c0fc90c219303344986b15",
          "transactionIndex": "0x6c",
          "logIndex": "0x18d",
          "removed": false
        },
        {
          "address": "0x102d758f688a4c1c5a80b116bd945d4455460282",
          "topics": [
            "0x8c5be1e5ebec7d5bd14f71427d1e84f3dd0314c0f7b2291e5b200ac8c7c3b925",
            "0x00000000000000000000000017c224a941de97c8e765e7f2415d7d18d4486d1a",
            "0x00000000000000000000000036d500a364a3a82140420d1bcb5f8a90c8e352ef"
          ],
          "data": "0xfffffffffffffffffffffffffffffffffffffffffffffffffffffffffff0cc32",
          "blockHash": "0x27440fb8e634c1b5d9b4bbd00f285f8e40b444e45e27cfc09ec9adab4c939cad",
          "blockNumber": "0x24c0a00",
          "blockTimestamp": "0x692270e3",
          "transactionHash": "0x5a5356294fbdc0f5c05c97bba471fef76cba08a4c0c0fc90c219303344986b15",
          "transactionIndex": "0x6c",
          "logIndex": "0x18e",
          "removed": false
        },
        {
          "address": "0x36d500a364a3a82140420d1bcb5f8a90c8e352ef",
          "topics": [
            "0x3ad61047071575417c75e3311e5d46ff042e292b5dd8769ff18b4b254098ca7a"
          ],
          "data": "0x00000000000000000000000017c224a941de97c8e765e7f2415d7d18d4486d1a000000000000000000000000eb99024504f5e73fc857e4b2a0cf076c7f91fa2efdb385a946eb838e261ae369d4a1f384a314c5148dc6a7603aa76bf8bf6ea602000000000000000000000000102d758f688a4c1c5a80b116bd945d445546028200000000000000000000000000000000000000000000000000000000000f33cd",
          "blockHash": "0x27440fb8e634c1b5d9b4bbd00f285f8e40b444e45e27cfc09ec9adab4c939cad",
          "blockNumber": "0x24c0a00",
          "blockTimestamp": "0x692270e3",
          "transactionHash": "0x5a5356294fbdc0f5c05c97bba471fef76cba08a4c0c0fc90c219303344986b15",
          "transactionIndex": "0x6c",
          "logIndex": "0x18f",
          "removed": false
        },
        {
          "address": "0x833589fcd6edb6e08f4c7c32d4f71b54bda02913",
          "topics": [
            "0x8c5be1e5ebec7d5bd14f71427d1e84f3dd0314c0f7b2291e5b200ac8c7c3b925",
            "0x00000000000000000000000009acf87913952081657161dfb2220d3e3a9da579",
            "0x00000000000000000000000036d500a364a3a82140420d1bcb5f8a90c8e352ef"
          ],
          "data": "0x00000000000000000000000000000000000000000000000000000000000f4240",
          "blockHash": "0x27440fb8e634c1b5d9b4bbd00f285f8e40b444e45e27cfc09ec9adab4c939cad",
          "blockNumber": "0x24c0a00",
          "blockTimestamp": "0x692270e3",
          "transactionHash": "0x5a5356294fbdc0f5c05c97bba471fef76cba08a4c0c0fc90c219303344986b15",
          "transactionIndex": "0x6c",
          "logIndex": "0x190",
          "removed": false
        },
        {
          "address": "0x833589fcd6edb6e08f4c7c32d4f71b54bda02913",
          "topics": [
            "0xddf252ad1be2c89b69c2b068fc378daa952ba7f163c4a11628f55a4df523b3ef",
            "0x00000000000000000000000009acf87913952081657161dfb2220d3e3a9da579",
            "0x00000000000000000000000017c224a941de97c8e765e7f2415d7d18d4486d1a"
          ],
          "data": "0x00000000000000000000000000000000000000000000000000000000000f4240",
          "blockHash": "0x27440fb8e634c1b5d9b4bbd00f285f8e40b444e45e27cfc09ec9adab4c939cad",
          "blockNumber": "0x24c0a00",
          "blockTimestamp": "0x692270e3",
          "transactionHash": "0x5a5356294fbdc0f5c05c97bba471fef76cba08a4c0c0fc90c219303344986b15",
          "transactionIndex": "0x6c",
          "logIndex": "0x191",
          "removed": false
        },
        {
          "address": "0x36d500a364a3a82140420d1bcb5f8a90c8e352ef",
          "topics": [
            "0x3f18354abbd5306dd1665c2c90f614a4559e39dd620d04fbe5458e613b6588f3"
          ],
          "data": "0x00000000000000000000000017c224a941de97c8e765e7f2415d7d18d4486d1a000000000000000000000000eb99024504f5e73fc857e4b2a0cf076c7f91fa2efdb385a946eb838e261ae369d4a1f384a314c5148dc6a7603aa76bf8bf6ea602000000000000000000000000833589fcd6edb6e08f4c7c32d4f71b54bda0291300000000000000000000000000000000000000000000000000000000000f4240",
          "blockHash": "0x27440fb8e634c1b5d9b4bbd00f285f8e40b444e45e27cfc09ec9adab4c939cad",
          "blockNumber": "0x24c0a00",
          "blockTimestamp": "0x692270e3",
          "transactionHash": "0x5a5356294fbdc0f5c05c97bba471fef76cba08a4c0c0fc90c219303344986b15",
          "transactionIndex": "0x6c",
          "logIndex": "0x192",
          "removed": false
        }
      ],
      "logsBloom": "0x00000000000000000000000000000000000000000000000000100000000000000000000000000000000020000000100008000000000000000001000000200000000000000040000000000008000000000040000080081000000008000000000000a00000001000000000000000008000000040010000000080000010000000000000000000000000400000000000000000000000000000000000000000004000020000100000000000000000000200000000000000000000000000000000000000000002000000000000000000000000000000000000000000000000000000000010000200000000800001000000000000000000000001000000000000000001",
      "type": "0x0",
      "transactionHash": "0x5a5356294fbdc0f5c05c97bba471fef76cba08a4c0c0fc90c219303344986b15",
      "transactionIndex": "0x6c",
      "blockHash": "0x27440fb8e634c1b5d9b4bbd00f285f8e40b444e45e27cfc09ec9adab4c939cad",
      "blockNumber": "0x24c0a00",
      "gasUsed": "0x28cf4",
      "effectiveGasPrice": "0x287211",
      "from": "0x8d6da02d4e2e0a31ee24e6bdeff0b8432b582cf1",
      "to": "0x09acf87913952081657161dfb2220d3e3a9da579",
      "contractAddress": null,
      "l1BaseFeeScalar": "0x8dd",
      "l1BlobBaseFee": "0x1",
      "l1BlobBaseFeeScalar": "0x101c12",
      "l1Fee": "0x17a1cc54",
      "l1GasPrice": "0x3edabe2",
      "l1GasUsed": "0xa5b"
    }
  ],
  "libraries": [],
  "pending": [],
  "returns": {},
  "timestamp": 1763864804149,
  "chain": 8453,
  "commit": "b95645e"
}