{
  "transactions": [
    {
      "hash": "0x498b200916b446ba73f6d245b85de3e186c05790dca057c24a4a9f705df4263d",
      "transactionType": "CALL",
      "contractName": null,
      "contractAddress": "0xf488cae67bddaceb40ebcf389ad805dbd2d3c078",
      "function": "approve(address,uint256)",
      "arguments": [
        "0xe8A0876cF6c9aa254445526702978B21Db36df94",
        "115792089237316195423570985008687907853269984665640564039457584007913129639935"
      ],
      "transaction": {
        "from": "0x6e57a82c6dea975f306ec19d5d006eec361ed99d",
        "to": "0xf488cae67bddaceb40ebcf389ad805dbd2d3c078",
        "gas": "0x87a5",
        "value": "0x0",
        "input": "0x095ea7b3000000000000000000000000e8a0876cf6c9aa254445526702978b21db36df94ffffffffffffffffffffffffffffffffffffffffffffffffffffffffffffffff",
        "nonce": "0x15",
        "chainId": "0x66eee"
      },
      "additionalContracts": [],
      "isFixedGasLimit": false
    },
    {
      "hash": "0x36475a715a615fa90f0aef1f2be6b2a9be79295858c9c491175be73ce1b747c4",
      "transactionType": "CALL",
      "contractName": null,
      "contractAddress": "0xed1022b833dbb646d0e0a57691cddb568249b9e3",
      "function": "approve(address,uint256)",
      "arguments": [
        "0xe8A0876cF6c9aa254445526702978B21Db36df94",
        "115792089237316195423570985008687907853269984665640564039457584007913129639935"
      ],
      "transaction": {
        "from": "0x6e57a82c6dea975f306ec19d5d006eec361ed99d",
        "to": "0xed1022b833dbb646d0e0a57691cddb568249b9e3",
        "gas": "0xece6",
        "value": "0x0",
        "input": "0x095ea7b3000000000000000000000000e8a0876cf6c9aa254445526702978b21db36df94ffffffffffffffffffffffffffffffffffffffffffffffffffffffffffffffff",
        "nonce": "0x16",
        "chainId": "0x66eee"
      },
      "additionalContracts": [],
      "isFixedGasLimit": false
    },
    {
      "hash": "0x403845d7da7fb3974755c7c6de6be7653e8faf95e616f22086de10718a7a746c",
      "transactionType": "CALL",
      "contractName": null,
      "contractAddress": "0xe8a0876cf6c9aa254445526702978b21db36df94",
      "function": "ship(address,bytes,address[],uint256[])",
      "arguments": [
        "0xfc83F6c1e46646bF48391Da33B0D2e63D2b81641",
        "0x0000000000000000000000006e57a82c6dea975f306ec19d5d006eec361ed99d000000000000000000000000f488cae67bddaceb40ebcf389ad805dbd2d3c078000000000000000000000000ed1022b833dbb646d0e0a57691cddb568249b9e3000000000000000000000000000000000000000000000000000000000000000400000000000000000000000000000000000000000000000000000000000000640000000000000000000000000000000000000000000000000000000000000000",
        "[0xF488CAE67bddacEB40EbCF389Ad805DbD2D3c078, 0xeD1022B833Dbb646D0e0A57691cDdb568249B9e3]",
        "[100000000000, 100000000000]"
      ],
      "transaction": {
        "from": "0x6e57a82c6dea975f306ec19d5d006eec361ed99d",
        "to": "0xe8a0876cf6c9aa254445526702978b21db36df94",
        "gas": "0x1c152",
        "value": "0x0",
        "input": "0xf50b870f000000000000000000000000fc83f6c1e46646bf48391da33b0d2e63d2b816410000000000000000000000000000000000000000000000000000000000000080000000000000000000000000000000000000000000000000000000000000016000000000000000000000000000000000000000000000000000000000000001c000000000000000000000000000000000000000000000000000000000000000c00000000000000000000000006e57a82c6dea975f306ec19d5d006eec361ed99d000000000000000000000000f488cae67bddaceb40ebcf389ad805dbd2d3c078000000000000000000000000ed1022b833dbb646d0e0a57691cddb568249b9e30000000000000000000000000000000000000000000000000000000000000004000000000000000000000000000000000000000000000000000000000000006400000000000000000000000000000000000000000000000000000000000000000000000000000000000000000000000000000000000000000000000000000002000000000000000000000000f488cae67bddaceb40ebcf389ad805dbd2d3c078000000000000000000000000ed1022b833dbb646d0e0a57691cddb568249b9e30000000000000000000000000000000000000000000000000000000000000002000000000000000000000000000000000000000000000000000000174876e800000000000000000000000000000000000000000000000000000000174876e800",
        "nonce": "0x17",
        "chainId": "0x66eee"
      },
      "additionalContracts": [],
      "isFixedGasLimit": false
    }
  ],
  "receipts": [
    {
      "status": "0x1",
      "cumulativeGasUsed": "0x6701",
      "logs": [
        {
          "address": "0xf488cae67bddaceb40ebcf389ad805dbd2d3c078",
          "topics": [
            "0x8c5be1e5ebec7d5bd14f71427d1e84f3dd0314c0f7b2291e5b200ac8c7c3b925",
            "0x0000000000000000000000006e57a82c6dea975f306ec19d5d006eec361ed99d",
            "0x000000000000000000000000e8a0876cf6c9aa254445526702978b21db36df94"
          ],
          "data": "0xffffffffffffffffffffffffffffffffffffffffffffffffffffffffffffffff",
          "blockHash": "0x6972227fde821b824c8efeb9e7a27952ce1db68332ee48a29ad41e404a977a5f",
          "blockNumber": "0xcfd84f0",
          "blockTimestamp": "0x692231d9",
          "transactionHash": "0x498b200916b446ba73f6d245b85de3e186c05790dca057c24a4a9f705df4263d",
          "transactionIndex": "0x1",
          "logIndex": "0x0",
          "removed": false
        }
      ],
      "logsBloom": "0x00000000000000000000000000400000200000000000000008000000000400100000000000000000020000000000000000000000000000000000000000200000000000000000000000000200000000000000000000000000000000000000000000000000000000000000000000000000000000000000000000000000000080000000000000000000000000000000000000000000000000001000000000000000020000000000000000000000000000000000000000000000000000000000000000000000000000000000000000000000000000000000000000000000000000000010000000000000000000000000000000000000000000000000000000000000",
      "type": "0x0",
      "transactionHash": "0x498b200916b446ba73f6d245b85de3e186c05790dca057c24a4a9f705df4263d",
      "transactionIndex": "0x1",
      "blockHash": "0x6972227fde821b824c8efeb9e7a27952ce1db68332ee48a29ad41e404a977a5f",
      "blockNumber": "0xcfd84f0",
      "gasUsed": "0x6701",
      "effectiveGasPrice": "0x1312d00",
      "from": "0x6e57a82c6dea975f306ec19d5d006eec361ed99d",
      "to": "0xf488cae67bddaceb40ebcf389ad805dbd2d3c078",
      "contractAddress": null,
      "gasUsedForL1": "0x0",
      "l1BlockNumber": "0x93ca21",
      "timeboosted": false
    },
    {
      "status": "0x1",
      "cumulativeGasUsed": "0xb4bd",
      "logs": [
        {
          "address": "0xed1022b833dbb646d0e0a57691cddb568249b9e3",
          "topics": [
            "0x8c5be1e5ebec7d5bd14f71427d1e84f3dd0314c0f7b2291e5b200ac8c7c3b925",
            "0x0000000000000000000000006e57a82c6dea975f306ec19d5d006eec361ed99d",
            "0x000000000000000000000000e8a0876cf6c9aa254445526702978b21db36df94"
          ],
          "data": "0xffffffffffffffffffffffffffffffffffffffffffffffffffffffffffffffff",
          "blockHash": "0xf748c6644d2fc8bcd4baa53de74c3e8d4f1d32b635f34f014cf6ac35b351fd70",
          "blockNumber": "0xcfd84f4",
          "blockTimestamp": "0x692231da",
          "transactionHash": "0x36475a715a615fa90f0aef1f2be6b2a9be79295858c9c491175be73ce1b747c4",
          "transactionIndex": "0x1",
          "logIndex": "0x0",
          "removed": false
        }
      ],
      "logsBloom": "0x00000000000000000000000000400000000000000000000000000000000400102000000000000000020000000000000000000000000000000000000000200000000000000000000000000200000000000000000000000000000000000000000000000000000000000000000000000000000020000000000000000000000080000000000000000000000000000000000000000000000000000000000000000000020000000000000000000000000000000000000000010000000000000000000000000000000000000000000000000000000000000000000000000000000000000010000000000000000000000000000000000000000000000000000000000000",
      "type": "0x0",
      "transactionHash": "0x36475a715a615fa90f0aef1f2be6b2a9be79295858c9c491175be73ce1b747c4",
      "transactionIndex": "0x1",
      "blockHash": "0xf748c6644d2fc8bcd4baa53de74c3e8d4f1d32b635f34f014cf6ac35b351fd70",
      "blockNumber": "0xcfd84f4",
      "gasUsed": "0xb4bd",
      "effectiveGasPrice": "0x1312d00",
      "from": "0x6e57a82c6dea975f306ec19d5d006eec361ed99d",
      "to": "0xed1022b833dbb646d0e0a57691cddb568249b9e3",
      "contractAddress": null,
      "gasUsedForL1": "0x0",
      "l1BlockNumber": "0x93ca21",
      "timeboosted": false
    },
    {
      "status": "0x1",
      "cumulativeGasUsed": "0x15600",
      "logs": [
        {
          "address": "0xe8a0876cf6c9aa254445526702978b21db36df94",
          "topics": [
            "0xdc3622e06fb145651f567d421c9ef261d71d43e3778b761907bc0d70d42e52b0"
          ],
          "data": "0x0000000000000000000000006e57a82c6dea975f306ec19d5d006eec361ed99d000000000000000000000000fc83f6c1e46646bf48391da33b0d2e63d2b816416e631584e925da939b757954f171c4d290f63ab6214db16500e83ad842fbe26b000000000000000000000000000000000000000000000000000000000000008000000000000000000000000000000000000000000000000000000000000000c00000000000000000000000006e57a82c6dea975f306ec19d5d006eec361ed99d000000000000000000000000f488cae67bddaceb40ebcf389ad805dbd2d3c078000000000000000000000000ed1022b833dbb646d0e0a57691cddb568249b9e3000000000000000000000000000000000000000000000000000000000000000400000000000000000000000000000000000000000000000000000000000000640000000000000000000000000000000000000000000000000000000000000000",
          "blockHash": "0xb924d8f5437cfa058bcfad3c4bca0b31bdb89f9eb058c6c377d64415d6e2d878",
          "blockNumber": "0xcfd84f7",
          "blockTimestamp": "0x692231db",
          "transactionHash": "0x403845d7da7fb3974755c7c6de6be7653e8faf95e616f22086de10718a7a746c",
          "transactionIndex": "0x1",
          "logIndex": "0x0",
          "removed": false
        },
        {
          "address": "0xe8a0876cf6c9aa254445526702978b21db36df94",
          "topics": [
            "0x3f18354abbd5306dd1665c2c90f614a4559e39dd620d04fbe5458e613b6588f3"
          ],
          "data": "0x0000000000000000000000006e57a82c6dea975f306ec19d5d006eec361ed99d000000000000000000000000fc83f6c1e46646bf48391da33b0d2e63d2b816416e631584e925da939b757954f171c4d290f63ab6214db16500e83ad842fbe26b000000000000000000000000f488cae67bddaceb40ebcf389ad805dbd2d3c078000000000000000000000000000000000000000000000000000000174876e800",
          "blockHash": "0xb924d8f5437cfa058bcfad3c4bca0b31bdb89f9eb058c6c377d64415d6e2d878",
          "blockNumber": "0xcfd84f7",
          "blockTimestamp": "0x692231db",
          "transactionHash": "0x403845d7da7fb3974755c7c6de6be7653e8faf95e616f22086de10718a7a746c",
          "transactionIndex": "0x1",
          "logIndex": "0x1",
          "removed": false
        },
        {
          "address": "0xe8a0876cf6c9aa254445526702978b21db36df94",
          "topics": [
            "0x3f18354abbd5306dd1665c2c90f614a4559e39dd620d04fbe5458e613b6588f3"
          ],
          "data": "0x0000000000000000000000006e57a82c6dea975f306ec19d5d006eec361ed99d000000000000000000000000fc83f6c1e46646bf48391da33b0d2e63d2b816416e631584e925da939b757954f171c4d290f63ab6214db16500e83ad842fbe26b000000000000000000000000ed1022b833dbb646d0e0a57691cddb568249b9e3000000000000000000000000000000000000000000000000000000174876e800",
          "blockHash": "0xb924d8f5437cfa058bcfad3c4bca0b31bdb89f9eb058c6c377d64415d6e2d878",
          "blockNumber": "0xcfd84f7",
          "blockTimestamp": "0x692231db",
          "transactionHash": "0x403845d7da7fb3974755c7c6de6be7653e8faf95e616f22086de10718a7a746c",
          "transactionIndex": "0x1",
          "logIndex": "0x2",
          "removed": false
        }
      ],
      "logsBloom": "0x00000000000000000000000000000000000000000000000000100000000000000000000000000000080000000000000000000000200000000000000000000000000000000000000000000000001000000040000000000000000000000020000000200000000020000000000000000000000000000000000000000000000000000000000000000000000000000000000000000000000000000000000000000000000000000000000000000000020000000000000000000000000000000000000000000000000000000000000000000000000000000000000000000000000000000000000000000000000000000000000000000000000000000000000000000000",
      "type": "0x0",
      "transactionHash": "0x403845d7da7fb3974755c7c6de6be7653e8faf95e616f22086de10718a7a746c",
      "transactionIndex": "0x1",
      "blockHash": "0xb924d8f5437cfa058bcfad3c4bca0b31bdb89f9eb058c6c377d64415d6e2d878",
      "blockNumber": "0xcfd84f7",
      "gasUsed": "0x15600",
      "effectiveGasPrice": "0x1312d00",
      "from": "0x6e57a82c6dea975f306ec19d5d006eec361ed99d",
      "to": "0xe8a0876cf6c9aa254445526702978b21db36df94",
      "contractAddress": null,
      "gasUsedForL1": "0x0",
      "l1BlockNumber": "0x93ca21",
      "timeboosted": false
    }
  ],
  "libraries": [],
  "pending": [],
  "returns": {},
  "timestamp": 1763848668176,
  "chain": 421614,
  "commit": "b6cd9f4"
}