{
  "transactions": [
    {
      "hash": "0x182059fe7f1fbe87d39026f7f15adf46b9384648b6c86132deb47f2411eff843",
      "transactionType": "CREATE",
      "contractName": "StableSwapper",
      "contractAddress": "0xbb0fdff214e71ae02e317371666e436b74ed60d1",
      "function": null,
      "arguments": [
        "0x18F5E9e1856877c2e6300D2f85085fA4cCAcE5b5"
      ],
      "transaction": {
        "from": "0x6e57a82c6dea975f306ec19d5d006eec361ed99d",
        "gas": "0x63a5e",
        "value": "0x0",
        "input": "0x60a034606c57601f61053338819003918201601f19168301916001600160401b03831184841017607057808492602094604052833981010312606c57516001600160a01b0381168103606c576080526040516104ae90816100858239608051818181605401526101300152f35b5f80fd5b634e487b7160e01b5f52604160045260245ffdfe6080806040526004361015610012575f80fd5b5f905f3560e01c90816359fac3201461021357508063a0ca5da6146100865763fe6a87051461003f575f80fd5b346100835780600319360112610083576040517f00000000000000000000000000000000000000000000000000000000000000006001600160a01b03168152602090f35b80fd5b50346101e2576101003660031901126101e2576004356001600160a01b038116908190036101e2576100b661044a565b506044356084356001600160a01b038116908190036101e25760a4356001600160a01b03811691908290036101e25760e43567ffffffffffffffff81116101e257366023820112156101e257806004013567ffffffffffffffff81116101e257369101602401116101e25760405163095ea7b360e01b81527f00000000000000000000000000000000000000000000000000000000000000006001600160a01b0316600482018190526024820185905291906020816044815f8a5af180156101d7576101e6575b50813b156101e2575f60a492819560405197889687956308fae4ed60e31b87526004870152602486015260c4356044860152606485015260848401525af180156101d7576101c9575080f35b6101d591505f90610428565b005b6040513d5f823e3d90fd5b5f80fd5b6102079060203d60201161020c575b6101ff8183610428565b810190610460565b61017d565b503d6101f5565b346101e2576101403660031901126101e2576004356001600160a01b038116908190036101e25760c03660231901126101e25760c0820182811067ffffffffffffffff8211176104145760405261026861044a565b82526044356001600160a01b0381168082036101e25760208401918252606435936001600160a01b0385168086036101e2576040820195865260608201946084358652608083019160a435835260a084019060c435825260e43591821515918284036101e2575f9760209161010435958a1461040d57505b6040516323b872dd60e01b81523360048201523060248201526044810186905298899160649183916001600160a01b03165af19485156101d757602099610184985f976103f2575b506040519b8c9a8b9963f427a14360e01b8b5260018060a01b0390511660048b015260018060a01b0390511660248a015260018060a01b0390511660448901525160648801525160848701525160a486015260c485015260e48401526101243561010484015233610124840152610160610144840152816101648401525af180156101d7575f906103bf575b602090604051908152f35b506020813d6020116103ea575b816103d960209383610428565b810103126101e257602090516103b4565b3d91506103cc565b610408908c3d8e1161020c576101ff8183610428565b610328565b90506102e0565b634e487b7160e01b5f52604160045260245ffd5b90601f8019910116810190811067ffffffffffffffff82111761041457604052565b602435906001600160a01b03821682036101e257565b908160209103126101e2575180151581036101e2579056fea2646970667358221220d6a665eb61631a5140ded5a89560bdae0fffc017267b34751961e969b132116e64736f6c634300081e003300000000000000000000000018f5e9e1856877c2e6300d2f85085fa4ccace5b5",
        "nonce": "0x99",
        "chainId": "0x14a34"
      },
      "additionalContracts": [],
      "isFixedGasLimit": false
    },
    {
      "hash": "0x330264a02dd786560714463bd2f0d44478f4d983ab797be678b0784cde485620",
      "transactionType": "CALL",
      "contractName": null,
      "contractAddress": "0xe430f44fc6264a8dede961a3917f71d43c1407e6",
      "function": "approve(address,uint256)",
      "arguments": [
        "0xBB0fdFf214E71Ae02e317371666E436B74eD60d1",
        "1000000000"
      ],
      "transaction": {
        "from": "0x6e57a82c6dea975f306ec19d5d006eec361ed99d",
        "to": "0xe430f44fc6264a8dede961a3917f71d43c1407e6",
        "gas": "0x10657",
        "value": "0x0",
        "input": "0x095ea7b3000000000000000000000000bb0fdff214e71ae02e317371666e436b74ed60d1000000000000000000000000000000000000000000000000000000003b9aca00",
        "nonce": "0x9a",
        "chainId": "0x14a34"
      },
      "additionalContracts": [],
      "isFixedGasLimit": false
    },
    {
      "hash": "0xeaa5e8621f1fd4108c0e1215aa2a79d9de2033a13b304c8ba3d0e5dec7a15e7e",
      "transactionType": "CALL",
      "contractName": "StableSwapper",
      "contractAddress": "0xbb0fdff214e71ae02e317371666e436b74ed60d1",
      "function": "executeSwap(address,(address,address,address,uint256,uint256,bytes32),bool,uint256,uint256)",
      "arguments": [
        "0xC897104C266C291ddC7cB30451CF2056A064b1f4",
        "(0x6E57A82c6dea975f306EC19d5D006Eec361eD99D, 0xE430F44Fc6264A8dEdE961A3917f71d43C1407e6, 0xe66b7480568493f48829aE1700218De48abA815e, 4, 100, 0x0000000000000000000000000000000000000000000000000000000000000000)",
        "true",
        "1000000000",
        "989507027"
      ],
      "transaction": {
        "from": "0x6e57a82c6dea975f306ec19d5d006eec361ed99d",
        "to": "0xbb0fdff214e71ae02e317371666e436b74ed60d1",
        "gas": "0x2a28c",
        "value": "0x0",
        "input": "0x59fac320000000000000000000000000c897104c266c291ddc7cb30451cf2056a064b1f40000000000000000000000006e57a82c6dea975f306ec19d5d006eec361ed99d000000000000000000000000e430f44fc6264a8dede961a3917f71d43c1407e6000000000000000000000000e66b7480568493f48829ae1700218de48aba815e0000000000000000000000000000000000000000000000000000000000000004000000000000000000000000000000000000000000000000000000000000006400000000000000000000000000000000000000000000000000000000000000000000000000000000000000000000000000000000000000000000000000000001000000000000000000000000000000000000000000000000000000003b9aca00000000000000000000000000000000000000000000000000000000003afaadd3",
        "nonce": "0x9b",
        "chainId": "0x14a34"
      },
      "additionalContracts": [],
      "isFixedGasLimit": false
    },
    {
      "hash": "0x9ef90264fa172b66fba730923aea39e31d6f9dc240fc0d48e0e4408b32d89267",
      "transactionType": "CALL",
      "contractName": null,
      "contractAddress": "0xe66b7480568493f48829ae1700218de48aba815e",
      "function": "approve(address,uint256)",
      "arguments": [
        "0xBB0fdFf214E71Ae02e317371666E436B74eD60d1",
        "500000000"
      ],
      "transaction": {
        "from": "0x6e57a82c6dea975f306ec19d5d006eec361ed99d",
        "to": "0xe66b7480568493f48829ae1700218de48aba815e",
        "gas": "0x10657",
        "value": "0x0",
        "input": "0x095ea7b3000000000000000000000000bb0fdff214e71ae02e317371666e436b74ed60d1000000000000000000000000000000000000000000000000000000001dcd6500",
        "nonce": "0x9c",
        "chainId": "0x14a34"
      },
      "additionalContracts": [],
      "isFixedGasLimit": false
    },
    {
      "hash": "0x840b7f08d8941c67fb6b15b292f88c9293960dd4fa80d1fd85858f677a833445",
      "transactionType": "CALL",
      "contractName": "StableSwapper",
      "contractAddress": "0xbb0fdff214e71ae02e317371666e436b74ed60d1",
      "function": "executeSwap(address,(address,address,address,uint256,uint256,bytes32),bool,uint256,uint256)",
      "arguments": [
        "0xC897104C266C291ddC7cB30451CF2056A064b1f4",
        "(0x6E57A82c6dea975f306EC19d5D006Eec361eD99D, 0xE430F44Fc6264A8dEdE961A3917f71d43C1407e6, 0xe66b7480568493f48829aE1700218De48abA815e, 4, 100, 0x0000000000000000000000000000000000000000000000000000000000000000)",
        "false",
        "500000000",
        "494875839"
      ],
      "transaction": {
        "from": "0x6e57a82c6dea975f306ec19d5d006eec361ed99d",
        "to": "0xbb0fdff214e71ae02e317371666e436b74ed60d1",
        "gas": "0x2a2ac",
        "value": "0x0",
        "input": "0x59fac320000000000000000000000000c897104c266c291ddc7cb30451cf2056a064b1f40000000000000000000000006e57a82c6dea975f306ec19d5d006eec361ed99d000000000000000000000000e430f44fc6264a8dede961a3917f71d43c1407e6000000000000000000000000e66b7480568493f48829ae1700218de48aba815e0000000000000000000000000000000000000000000000000000000000000004000000000000000000000000000000000000000000000000000000000000006400000000000000000000000000000000000000000000000000000000000000000000000000000000000000000000000000000000000000000000000000000000000000000000000000000000000000000000000000000000000000001dcd6500000000000000000000000000000000000000000000000000000000001d7f34bf",
        "nonce": "0x9d",
        "chainId": "0x14a34"
      },
      "additionalContracts": [],
      "isFixedGasLimit": false
    },
    {
      "hash": "0x22fb1af855196fd3d362f1cb44c6a41bc87dc69a3b1869edf1d67c49a40c2632",
      "transactionType": "CALL",
      "contractName": null,
      "contractAddress": "0xe430f44fc6264a8dede961a3917f71d43c1407e6",
      "function": "approve(address,uint256)",
      "arguments": [
        "0xBB0fdFf214E71Ae02e317371666E436B74eD60d1",
        "10000000000"
      ],
      "transaction": {
        "from": "0x6e57a82c6dea975f306ec19d5d006eec361ed99d",
        "to": "0xe430f44fc6264a8dede961a3917f71d43c1407e6",
        "gas": "0xf7d3",
        "value": "0x0",
        "input": "0x095ea7b3000000000000000000000000bb0fdff214e71ae02e317371666e436b74ed60d100000000000000000000000000000000000000000000000000000002540be400",
        "nonce": "0x9e",
        "chainId": "0x14a34"
      },
      "additionalContracts": [],
      "isFixedGasLimit": false
    },
    {
      "hash": "0xe9fe1a95b0317a64cf5c4eb8c0f602b719faffa66cb77f839b35b9052fbec5b8",
      "transactionType": "CALL",
      "contractName": "StableSwapper",
      "contractAddress": "0xbb0fdff214e71ae02e317371666e436b74ed60d1",
      "function": "executeSwap(address,(address,address,address,uint256,uint256,bytes32),bool,uint256,uint256)",
      "arguments": [
        "0xC897104C266C291ddC7cB30451CF2056A064b1f4",
        "(0x6E57A82c6dea975f306EC19d5D006Eec361eD99D, 0xE430F44Fc6264A8dEdE961A3917f71d43C1407e6, 0xe66b7480568493f48829aE1700218De48abA815e, 4, 100, 0x0000000000000000000000000000000000000000000000000000000000000000)",
        "true",
        "10000000000",
        "9886289810"
      ],
      "transaction": {
        "from": "0x6e57a82c6dea975f306ec19d5d006eec361ed99d",
        "to": "0xbb0fdff214e71ae02e317371666e436b74ed60d1",
        "gas": "0x27d2c",
        "value": "0x0",
        "input": "0x59fac320000000000000000000000000c897104c266c291ddc7cb30451cf2056a064b1f40000000000000000000000006e57a82c6dea975f306ec19d5d006eec361ed99d000000000000000000000000e430f44fc6264a8dede961a3917f71d43c1407e6000000000000000000000000e66b7480568493f48829ae1700218de48aba815e000000000000000000000000000000000000000000000000000000000000000400000000000000000000000000000000000000000000000000000000000000640000000000000000000000000000000000000000000000000000000000000000000000000000000000000000000000000000000000000000000000000000000100000000000000000000000000000000000000000000000000000002540be400000000000000000000000000000000000000000000000000000000024d44cf92",
        "nonce": "0x9f",
        "chainId": "0x14a34"
      },
      "additionalContracts": [],
      "isFixedGasLimit": false
    }
  ],
  "receipts": [
    {
      "status": "0x1",
      "cumulativeGasUsed": "0xc27c96",
      "logs": [],
      "logsBloom": "0x00000000000000000000000000000000000000000000000000000000000000000000000000000000000000000000000000000000000000000000000000000000000000000000000000000000000000000000000000000000000000000000000000000000000000000000000000000000000000000000000000000000000000000000000000000000000000000000000000000000000000000000000000000000000000000000000000000000000000000000000000000000000000000000000000000000000000000000000000000000000000000000000000000000000000000000000000000000000000000000000000000000000000000000000000000000",
      "type": "0x0",
      "transactionHash": "0x182059fe7f1fbe87d39026f7f15adf46b9384648b6c86132deb47f2411eff843",
      "transactionIndex": "0xc",
      "blockHash": "0x5afb39c6a4b04b5267a87556a625da47d61af68c7275187f03b2c75a9e79fa1c",
      "blockNumber": "0x20764c7",
      "gasUsed": "0x4ca70",
      "effectiveGasPrice": "0x12611f",
      "blobGasUsed": "0x458b8",
      "from": "0x6e57a82c6dea975f306ec19d5d006eec361ed99d",
      "to": null,
      "contractAddress": "0xbb0fdff214e71ae02e317371666e436b74ed60d1",
      "daFootprintGasScalar": "0x138",
      "l1BaseFeeScalar": "0x44d",
      "l1BlobBaseFee": "0x1",
      "l1BlobBaseFeeScalar": "0xa118b",
      "l1Fee": "0x51",
      "l1GasPrice": "0x9",
      "l1GasUsed": "0x3918"
    },
    {
      "status": "0x1",
      "cumulativeGasUsed": "0xc32ff7",
      "logs": [
        {
          "address": "0xe430f44fc6264a8dede961a3917f71d43c1407e6",
          "topics": [
            "0x8c5be1e5ebec7d5bd14f71427d1e84f3dd0314c0f7b2291e5b200ac8c7c3b925",
            "0x0000000000000000000000006e57a82c6dea975f306ec19d5d006eec361ed99d",
            "0x000000000000000000000000bb0fdff214e71ae02e317371666e436b74ed60d1"
          ],
          "data": "0x000000000000000000000000000000000000000000000000000000003b9aca00",
          "blockHash": "0x5afb39c6a4b04b5267a87556a625da47d61af68c7275187f03b2c75a9e79fa1c",
          "blockNumber": "0x20764c7",
          "blockTimestamp": "0x6922286e",
          "transactionHash": "0x330264a02dd786560714463bd2f0d44478f4d983ab797be678b0784cde485620",
          "transactionIndex": "0xd",
          "logIndex": "0x28",
          "removed": false
        }
      ],
      "logsBloom": "0x00000000000000000840000000000000000000000000000000000000000400000000400000000000020000000000000000000000000800000000000000200000000000000000000000000200000000000000000000000000000000000000000000000000000000000000000000000000000000000000000000000000000000000000000000000000000000000000000000000000000000000000000000000000020000000000000000000000000000000000000000000000000000000000000000000000000000000000000000000000000000000000000000000000040100000010000000000000000000000000000000000000000000000000000000000000",
      "type": "0x0",
      "transactionHash": "0x330264a02dd786560714463bd2f0d44478f4d983ab797be678b0784cde485620",
      "transactionIndex": "0xd",
      "blockHash": "0x5afb39c6a4b04b5267a87556a625da47d61af68c7275187f03b2c75a9e79fa1c",
      "blockNumber": "0x20764c7",
      "gasUsed": "0xb361",
      "effectiveGasPrice": "0x12611f",
      "blobGasUsed": "0x79e0",
      "from": "0x6e57a82c6dea975f306ec19d5d006eec361ed99d",
      "to": "0xe430f44fc6264a8dede961a3917f71d43c1407e6",
      "contractAddress": null,
      "daFootprintGasScalar": "0x138",
      "l1BaseFeeScalar": "0x44d",
      "l1BlobBaseFee": "0x1",
      "l1BlobBaseFeeScalar": "0xa118b",
      "l1Fee": "0x51",
      "l1GasPrice": "0x9",
      "l1GasUsed": "0x640"
    },
    {
      "status": "0x1",
      "cumulativeGasUsed": "0xc4fd32",
      "logs": [
        {
          "address": "0xe430f44fc6264a8dede961a3917f71d43c1407e6",
          "topics": [
            "0xddf252ad1be2c89b69c2b068fc378daa952ba7f163c4a11628f55a4df523b3ef",
            "0x0000000000000000000000006e57a82c6dea975f306ec19d5d006eec361ed99d",
            "0x000000000000000000000000bb0fdff214e71ae02e317371666e436b74ed60d1"
          ],
          "data": "0x000000000000000000000000000000000000000000000000000000003b9aca00",
          "blockHash": "0x5afb39c6a4b04b5267a87556a625da47d61af68c7275187f03b2c75a9e79fa1c",
          "blockNumber": "0x20764c7",
          "blockTimestamp": "0x6922286e",
          "transactionHash": "0xeaa5e8621f1fd4108c0e1215aa2a79d9de2033a13b304c8ba3d0e5dec7a15e7e",
          "transactionIndex": "0xe",
          "logIndex": "0x29",
          "removed": false
        },
        {
          "address": "0xe66b7480568493f48829ae1700218de48aba815e",
          "topics": [
            "0xddf252ad1be2c89b69c2b068fc378daa952ba7f163c4a11628f55a4df523b3ef",
            "0x0000000000000000000000006e57a82c6dea975f306ec19d5d006eec361ed99d",
            "0x0000000000000000000000006e57a82c6dea975f306ec19d5d006eec361ed99d"
          ],
          "data": "0x000000000000000000000000000000000000000000000000000000003b9330e0",
          "blockHash": "0x5afb39c6a4b04b5267a87556a625da47d61af68c7275187f03b2c75a9e79fa1c",
          "blockNumber": "0x20764c7",
          "blockTimestamp": "0x6922286e",
          "transactionHash": "0xeaa5e8621f1fd4108c0e1215aa2a79d9de2033a13b304c8ba3d0e5dec7a15e7e",
          "transactionIndex": "0xe",
          "logIndex": "0x2a",
          "removed": false
        },
        {
          "address": "0x18f5e9e1856877c2e6300d2f85085fa4ccace5b5",
          "topics": [
            "0x3ad61047071575417c75e3311e5d46ff042e292b5dd8769ff18b4b254098ca7a"
          ],
          "data": "0x0000000000000000000000006e57a82c6dea975f306ec19d5d006eec361ed99d000000000000000000000000c897104c266c291ddc7cb30451cf2056a064b1f4550dbfa38a13e38b0ca5e8bc110a52d73baec23f6cb44ce2814866993f23f97a000000000000000000000000e66b7480568493f48829ae1700218de48aba815e000000000000000000000000000000000000000000000000000000003b9330e0",
          "blockHash": "0x5afb39c6a4b04b5267a87556a625da47d61af68c7275187f03b2c75a9e79fa1c",
          "blockNumber": "0x20764c7",
          "blockTimestamp": "0x6922286e",
          "transactionHash": "0xeaa5e8621f1fd4108c0e1215aa2a79d9de2033a13b304c8ba3d0e5dec7a15e7e",
          "transactionIndex": "0xe",
          "logIndex": "0x2b",
          "removed": false
        },
        {
          "address": "0xe430f44fc6264a8dede961a3917f71d43c1407e6",
          "topics": [
            "0x8c5be1e5ebec7d5bd14f71427d1e84f3dd0314c0f7b2291e5b200ac8c7c3b925",
            "0x000000000000000000000000bb0fdff214e71ae02e317371666e436b74ed60d1",
            "0x00000000000000000000000018f5e9e1856877c2e6300d2f85085fa4ccace5b5"
          ],
          "data": "0x000000000000000000000000000000000000000000000000000000003b9aca00",
          "blockHash": "0x5afb39c6a4b04b5267a87556a625da47d61af68c7275187f03b2c75a9e79fa1c",
          "blockNumber": "0x20764c7",
          "blockTimestamp": "0x6922286e",
          "transactionHash": "0xeaa5e8621f1fd4108c0e1215aa2a79d9de2033a13b304c8ba3d0e5dec7a15e7e",
          "transactionIndex": "0xe",
          "logIndex": "0x2c",
          "removed": false
        },
        {
          "address": "0xe430f44fc6264a8dede961a3917f71d43c1407e6",
          "topics": [
            "0xddf252ad1be2c89b69c2b068fc378daa952ba7f163c4a11628f55a4df523b3ef",
            "0x000000000000000000000000bb0fdff214e71ae02e317371666e436b74ed60d1",
            "0x0000000000000000000000006e57a82c6dea975f306ec19d5d006eec361ed99d"
          ],
          "data": "0x000000000000000000000000000000000000000000000000000000003b9aca00",
          "blockHash": "0x5afb39c6a4b04b5267a87556a625da47d61af68c7275187f03b2c75a9e79fa1c",
          "blockNumber": "0x20764c7",
          "blockTimestamp": "0x6922286e",
          "transactionHash": "0xeaa5e8621f1fd4108c0e1215aa2a79d9de2033a13b304c8ba3d0e5dec7a15e7e",
          "transactionIndex": "0xe",
          "logIndex": "0x2d",
          "removed": false
        },
        {
          "address": "0x18f5e9e1856877c2e6300d2f85085fa4ccace5b5",
          "topics": [
            "0x3f18354abbd5306dd1665c2c90f614a4559e39dd620d04fbe5458e613b6588f3"
          ],
          "data": "0x0000000000000000000000006e57a82c6dea975f306ec19d5d006eec361ed99d000000000000000000000000c897104c266c291ddc7cb30451cf2056a064b1f4550dbfa38a13e38b0ca5e8bc110a52d73baec23f6cb44ce2814866993f23f97a000000000000000000000000e430f44fc6264a8dede961a3917f71d43c1407e6000000000000000000000000000000000000000000000000000000003b9aca00",
          "blockHash": "0x5afb39c6a4b04b5267a87556a625da47d61af68c7275187f03b2c75a9e79fa1c",
          "blockNumber": "0x20764c7",
          "blockTimestamp": "0x6922286e",
          "transactionHash": "0xeaa5e8621f1fd4108c0e1215aa2a79d9de2033a13b304c8ba3d0e5dec7a15e7e",
          "transactionIndex": "0xe",
          "logIndex": "0x2e",
          "removed": false
        }
      ],
      "logsBloom": "0x00000000000400000840000000001000000000000000000000100000000400000000400000000000020020000000000000000000000800000000000000600000000100000000800000000208000000000040000000000000000000000000000000200008000000000000000000000000000000000000000000000010000000000000000000000000000000000000000000000000000000400000000000000000020040000000000000000000000200000000000000000000000000000000000000000002000000000000000000000000000000000000000000000000040100000010000000000000000001000000008000000000000000000000000000000000",
      "type": "0x0",
      "transactionHash": "0xeaa5e8621f1fd4108c0e1215aa2a79d9de2033a13b304c8ba3d0e5dec7a15e7e",
      "transactionIndex": "0xe",
      "blockHash": "0x5afb39c6a4b04b5267a87556a625da47d61af68c7275187f03b2c75a9e79fa1c",
      "blockNumber": "0x20764c7",
      "gasUsed": "0x1cd3b",
      "effectiveGasPrice": "0x12611f",
      "blobGasUsed": "0xcf30",
      "from": "0x6e57a82c6dea975f306ec19d5d006eec361ed99d",
      "to": "0xbb0fdff214e71ae02e317371666e436b74ed60d1",
      "contractAddress": null,
      "daFootprintGasScalar": "0x138",
      "l1BaseFeeScalar": "0x44d",
      "l1BlobBaseFee": "0x1",
      "l1BlobBaseFeeScalar": "0xa118b",
      "l1Fee": "0x51",
      "l1GasPrice": "0x9",
      "l1GasUsed": "0xaab"
    },
    {
      "status": "0x1",
      "cumulativeGasUsed": "0xc5b093",
      "logs": [
        {
          "address": "0xe66b7480568493f48829ae1700218de48aba815e",
          "topics": [
            "0x8c5be1e5ebec7d5bd14f71427d1e84f3dd0314c0f7b2291e5b200ac8c7c3b925",
            "0x0000000000000000000000006e57a82c6dea975f306ec19d5d006eec361ed99d",
            "0x000000000000000000000000bb0fdff214e71ae02e317371666e436b74ed60d1"
          ],
          "data": "0x000000000000000000000000000000000000000000000000000000001dcd6500",
          "blockHash": "0x5afb39c6a4b04b5267a87556a625da47d61af68c7275187f03b2c75a9e79fa1c",
          "blockNumber": "0x20764c7",
          "blockTimestamp": "0x6922286e",
          "transactionHash": "0x9ef90264fa172b66fba730923aea39e31d6f9dc240fc0d48e0e4408b32d89267",
          "transactionIndex": "0xf",
          "logIndex": "0x2f",
          "removed": false
        }
      ],
      "logsBloom": "0x00000000000000000040000000000000000000000000000000000000000400000000400000000000020000000000000000000000000000000000000000600000000100000000000000000200000000000000000000000000000000000000000000000008000000000000000000000000000000000000000000000000000000000000000000000000000000000000000000000000000000000000000000000000020000000000000000000000000000000000000000000000000000000000000000000000000000000000000000000000000000000000000000000000000100000010000000000000000000000000000000000000000000000000000000000000",
      "type": "0x0",
      "transactionHash": "0x9ef90264fa172b66fba730923aea39e31d6f9dc240fc0d48e0e4408b32d89267",
      "transactionIndex": "0xf",
      "blockHash": "0x5afb39c6a4b04b5267a87556a625da47d61af68c7275187f03b2c75a9e79fa1c",
      "blockNumber": "0x20764c7",
      "gasUsed": "0xb361",
      "effectiveGasPrice": "0x12611f",
      "blobGasUsed": "0x79e0",
      "from": "0x6e57a82c6dea975f306ec19d5d006eec361ed99d",
      "to": "0xe66b7480568493f48829ae1700218de48aba815e",
      "contractAddress": null,
      "daFootprintGasScalar": "0x138",
      "l1BaseFeeScalar": "0x44d",
      "l1BlobBaseFee": "0x1",
      "l1BlobBaseFeeScalar": "0xa118b",
      "l1Fee": "0x51",
      "l1GasPrice": "0x9",
      "l1GasUsed": "0x640"
    },
    {
      "status": "0x1",
      "cumulativeGasUsed": "0xc77de4",
      "logs": [
        {
          "address": "0xe66b7480568493f48829ae1700218de48aba815e",
          "topics": [
            "0xddf252ad1be2c89b69c2b068fc378daa952ba7f163c4a11628f55a4df523b3ef",
            "0x0000000000000000000000006e57a82c6dea975f306ec19d5d006eec361ed99d",
            "0x000000000000000000000000bb0fdff214e71ae02e317371666e436b74ed60d1"
          ],
          "data": "0x000000000000000000000000000000000000000000000000000000001dcd6500",
          "blockHash": "0x5afb39c6a4b04b5267a87556a625da47d61af68c7275187f03b2c75a9e79fa1c",
          "blockNumber": "0x20764c7",
          "blockTimestamp": "0x6922286e",
          "transactionHash": "0x840b7f08d8941c67fb6b15b292f88c9293960dd4fa80d1fd85858f677a833445",
          "transactionIndex": "0x10",
          "logIndex": "0x30",
          "removed": false
        },
        {
          "address": "0xe430f44fc6264a8dede961a3917f71d43c1407e6",
          "topics": [
            "0xddf252ad1be2c89b69c2b068fc378daa952ba7f163c4a11628f55a4df523b3ef",
            "0x0000000000000000000000006e57a82c6dea975f306ec19d5d006eec361ed99d",
            "0x0000000000000000000000006e57a82c6dea975f306ec19d5d006eec361ed99d"
          ],
          "data": "0x000000000000000000000000000000000000000000000000000000001dcb7b19",
          "blockHash": "0x5afb39c6a4b04b5267a87556a625da47d61af68c7275187f03b2c75a9e79fa1c",
          "blockNumber": "0x20764c7",
          "blockTimestamp": "0x6922286e",
          "transactionHash": "0x840b7f08d8941c67fb6b15b292f88c9293960dd4fa80d1fd85858f677a833445",
          "transactionIndex": "0x10",
          "logIndex": "0x31",
          "removed": false
        },
        {
          "address": "0x18f5e9e1856877c2e6300d2f85085fa4ccace5b5",
          "topics": [
            "0x3ad61047071575417c75e3311e5d46ff042e292b5dd8769ff18b4b254098ca7a"
          ],
          "data": "0x0000000000000000000000006e57a82c6dea975f306ec19d5d006eec361ed99d000000000000000000000000c897104c266c291ddc7cb30451cf2056a064b1f4550dbfa38a13e38b0ca5e8bc110a52d73baec23f6cb44ce2814866993f23f97a000000000000000000000000e430f44fc6264a8dede961a3917f71d43c1407e6000000000000000000000000000000000000000000000000000000001dcb7b19",
          "blockHash": "0x5afb39c6a4b04b5267a87556a625da47d61af68c7275187f03b2c75a9e79fa1c",
          "blockNumber": "0x20764c7",
          "blockTimestamp": "0x6922286e",
          "transactionHash": "0x840b7f08d8941c67fb6b15b292f88c9293960dd4fa80d1fd85858f677a833445",
          "transactionIndex": "0x10",
          "logIndex": "0x32",
          "removed": false
        },
        {
          "address": "0xe66b7480568493f48829ae1700218de48aba815e",
          "topics": [
            "0x8c5be1e5ebec7d5bd14f71427d1e84f3dd0314c0f7b2291e5b200ac8c7c3b925",
            "0x000000000000000000000000bb0fdff214e71ae02e317371666e436b74ed60d1",
            "0x00000000000000000000000018f5e9e1856877c2e6300d2f85085fa4ccace5b5"
          ],
          "data": "0x000000000000000000000000000000000000000000000000000000001dcd6500",
          "blockHash": "0x5afb39c6a4b04b5267a87556a625da47d61af68c7275187f03b2c75a9e79fa1c",
          "blockNumber": "0x20764c7",
          "blockTimestamp": "0x6922286e",
          "transactionHash": "0x840b7f08d8941c67fb6b15b292f88c9293960dd4fa80d1fd85858f677a833445",
          "transactionIndex": "0x10",
          "logIndex": "0x33",
          "removed": false
        },
        {
          "address": "0xe66b7480568493f48829ae1700218de48aba815e",
          "topics": [
            "0xddf252ad1be2c89b69c2b068fc378daa952ba7f163c4a11628f55a4df523b3ef",
            "0x000000000000000000000000bb0fdff214e71ae02e317371666e436b74ed60d1",
            "0x0000000000000000000000006e57a82c6dea975f306ec19d5d006eec361ed99d"
          ],
          "data": "0x000000000000000000000000000000000000000000000000000000001dcd6500",
          "blockHash": "0x5afb39c6a4b04b5267a87556a625da47d61af68c7275187f03b2c75a9e79fa1c",
          "blockNumber": "0x20764c7",
          "blockTimestamp": "0x6922286e",
          "transactionHash": "0x840b7f08d8941c67fb6b15b292f88c9293960dd4fa80d1fd85858f677a833445",
          "transactionIndex": "0x10",
          "logIndex": "0x34",
          "removed": false
        },
        {
          "address": "0x18f5e9e1856877c2e6300d2f85085fa4ccace5b5",
          "topics": [
            "0x3f18354abbd5306dd1665c2c90f614a4559e39dd620d04fbe5458e613b6588f3"
          ],
          "data": "0x0000000000000000000000006e57a82c6dea975f306ec19d5d006eec361ed99d000000000000000000000000c897104c266c291ddc7cb30451cf2056a064b1f4550dbfa38a13e38b0ca5e8bc110a52d73baec23f6cb44ce2814866993f23f97a000000000000000000000000e66b7480568493f48829ae1700218de48aba815e000000000000000000000000000000000000000000000000000000001dcd6500",
          "blockHash": "0x5afb39c6a4b04b5267a87556a625da47d61af68c7275187f03b2c75a9e79fa1c",
          "blockNumber": "0x20764c7",
          "blockTimestamp": "0x6922286e",
          "transactionHash": "0x840b7f08d8941c67fb6b15b292f88c9293960dd4fa80d1fd85858f677a833445",
          "transactionIndex": "0x10",
          "logIndex": "0x35",
          "removed": false
        }
      ],
      "logsBloom": "0x00000000000400000840000000001000000000000000000000100000000400000000400000000000020020000000000000000000000800000000000000600000000100000000800000000208000000000040000000000000000000000000000000200008000000000000000000000000000000000000000000000010000000000000000000000000000000000000000000000000000000400000000000000000020040000000000000000000000200000000000000000000000000000000000000000002000000000000000000000000000000000000000000000000040100000010000000000000000001000000008000000000000000000000000000000000",
      "type": "0x0",
      "transactionHash": "0x840b7f08d8941c67fb6b15b292f88c9293960dd4fa80d1fd85858f677a833445",
      "transactionIndex": "0x10",
      "blockHash": "0x5afb39c6a4b04b5267a87556a625da47d61af68c7275187f03b2c75a9e79fa1c",
      "blockNumber": "0x20764c7",
      "gasUsed": "0x1cd51",
      "effectiveGasPrice": "0x12611f",
      "blobGasUsed": "0xc918",
      "from": "0x6e57a82c6dea975f306ec19d5d006eec361ed99d",
      "to": "0xbb0fdff214e71ae02e317371666e436b74ed60d1",
      "contractAddress": null,
      "daFootprintGasScalar": "0x138",
      "l1BaseFeeScalar": "0x44d",
      "l1BlobBaseFee": "0x1",
      "l1BlobBaseFeeScalar": "0xa118b",
      "l1Fee": "0x51",
      "l1GasPrice": "0x9",
      "l1GasUsed": "0xa5b"
    },
    {
      "status": "0x1",
      "cumulativeGasUsed": "0xc83151",
      "logs": [
        {
          "address": "0xe430f44fc6264a8dede961a3917f71d43c1407e6",
          "topics": [
            "0x8c5be1e5ebec7d5bd14f71427d1e84f3dd0314c0f7b2291e5b200ac8c7c3b925",
            "0x0000000000000000000000006e57a82c6dea975f306ec19d5d006eec361ed99d",
            "0x000000000000000000000000bb0fdff214e71ae02e317371666e436b74ed60d1"
          ],
          "data": "0x00000000000000000000000000000000000000000000000000000002540be400",
          "blockHash": "0x5afb39c6a4b04b5267a87556a625da47d61af68c7275187f03b2c75a9e79fa1c",
          "blockNumber": "0x20764c7",
          "blockTimestamp": "0x6922286e",
          "transactionHash": "0x22fb1af855196fd3d362f1cb44c6a41bc87dc69a3b1869edf1d67c49a40c2632",
          "transactionIndex": "0x11",
          "logIndex": "0x36",
          "removed": false
        }
      ],
      "logsBloom": "0x00000000000000000840000000000000000000000000000000000000000400000000400000000000020000000000000000000000000800000000000000200000000000000000000000000200000000000000000000000000000000000000000000000000000000000000000000000000000000000000000000000000000000000000000000000000000000000000000000000000000000000000000000000000020000000000000000000000000000000000000000000000000000000000000000000000000000000000000000000000000000000000000000000000040100000010000000000000000000000000000000000000000000000000000000000000",
      "type": "0x0",
      "transactionHash": "0x22fb1af855196fd3d362f1cb44c6a41bc87dc69a3b1869edf1d67c49a40c2632",
      "transactionIndex": "0x11",
      "blockHash": "0x5afb39c6a4b04b5267a87556a625da47d61af68c7275187f03b2c75a9e79fa1c",
      "blockNumber": "0x20764c7",
      "gasUsed": "0xb36d",
      "effectiveGasPrice": "0x12611f",
      "blobGasUsed": "0x79e0",
      "from": "0x6e57a82c6dea975f306ec19d5d006eec361ed99d",
      "to": "0xe430f44fc6264a8dede961a3917f71d43c1407e6",
      "contractAddress": null,
      "daFootprintGasScalar": "0x138",
      "l1BaseFeeScalar": "0x44d",
      "l1BlobBaseFee": "0x1",
      "l1BlobBaseFeeScalar": "0xa118b",
      "l1Fee": "0x51",
      "l1GasPrice": "0x9",
      "l1GasUsed": "0x640"
    },
    {
      "status": "0x1",
      "cumulativeGasUsed": "0xc9fe9f",
      "logs": [
        {
          "address": "0xe430f44fc6264a8dede961a3917f71d43c1407e6",
          "topics": [
            "0xddf252ad1be2c89b69c2b068fc378daa952ba7f163c4a11628f55a4df523b3ef",
            "0x0000000000000000000000006e57a82c6dea975f306ec19d5d006eec361ed99d",
            "0x000000000000000000000000bb0fdff214e71ae02e317371666e436b74ed60d1"
          ],
          "data": "0x00000000000000000000000000000000000000000000000000000002540be400",
          "blockHash": "0x5afb39c6a4b04b5267a87556a625da47d61af68c7275187f03b2c75a9e79fa1c",
          "blockNumber": "0x20764c7",
          "blockTimestamp": "0x6922286e",
          "transactionHash": "0xe9fe1a95b0317a64cf5c4eb8c0f602b719faffa66cb77f839b35b9052fbec5b8",
          "transactionIndex": "0x12",
          "logIndex": "0x37",
          "removed": false
        },
        {
          "address": "0xe66b7480568493f48829ae1700218de48aba815e",
          "topics": [
            "0xddf252ad1be2c89b69c2b068fc378daa952ba7f163c4a11628f55a4df523b3ef",
            "0x0000000000000000000000006e57a82c6dea975f306ec19d5d006eec361ed99d",
            "0x0000000000000000000000006e57a82c6dea975f306ec19d5d006eec361ed99d"
          ],
          "data": "0x000000000000000000000000000000000000000000000000000000025338939c",
          "blockHash": "0x5afb39c6a4b04b5267a87556a625da47d61af68c7275187f03b2c75a9e79fa1c",
          "blockNumber": "0x20764c7",
          "blockTimestamp": "0x6922286e",
          "transactionHash": "0xe9fe1a95b0317a64cf5c4eb8c0f602b719faffa66cb77f839b35b9052fbec5b8",
          "transactionIndex": "0x12",
          "logIndex": "0x38",
          "removed": false
        },
        {
          "address": "0x18f5e9e1856877c2e6300d2f85085fa4ccace5b5",
          "topics": [
            "0x3ad61047071575417c75e3311e5d46ff042e292b5dd8769ff18b4b254098ca7a"
          ],
          "data": "0x0000000000000000000000006e57a82c6dea975f306ec19d5d006eec361ed99d000000000000000000000000c897104c266c291ddc7cb30451cf2056a064b1f4550dbfa38a13e38b0ca5e8bc110a52d73baec23f6cb44ce2814866993f23f97a000000000000000000000000e66b7480568493f48829ae1700218de48aba815e000000000000000000000000000000000000000000000000000000025338939c",
          "blockHash": "0x5afb39c6a4b04b5267a87556a625da47d61af68c7275187f03b2c75a9e79fa1c",
          "blockNumber": "0x20764c7",
          "blockTimestamp": "0x6922286e",
          "transactionHash": "0xe9fe1a95b0317a64cf5c4eb8c0f602b719faffa66cb77f839b35b9052fbec5b8",
          "transactionIndex": "0x12",
          "logIndex": "0x39",
          "removed": false
        },
        {
          "address": "0xe430f44fc6264a8dede961a3917f71d43c1407e6",
          "topics": [
            "0x8c5be1e5ebec7d5bd14f71427d1e84f3dd0314c0f7b2291e5b200ac8c7c3b925",
            "0x000000000000000000000000bb0fdff214e71ae02e317371666e436b74ed60d1",
            "0x00000000000000000000000018f5e9e1856877c2e6300d2f85085fa4ccace5b5"
          ],
          "data": "0x00000000000000000000000000000000000000000000000000000002540be400",
          "blockHash": "0x5afb39c6a4b04b5267a87556a625da47d61af68c7275187f03b2c75a9e79fa1c",
          "blockNumber": "0x20764c7",
          "blockTimestamp": "0x6922286e",
          "transactionHash": "0xe9fe1a95b0317a64cf5c4eb8c0f602b719faffa66cb77f839b35b9052fbec5b8",
          "transactionIndex": "0x12",
          "logIndex": "0x3a",
          "removed": false
        },
        {
          "address": "0xe430f44fc6264a8dede961a3917f71d43c1407e6",
          "topics": [
            "0xddf252ad1be2c89b69c2b068fc378daa952ba7f163c4a11628f55a4df523b3ef",
            "0x000000000000000000000000bb0fdff214e71ae02e317371666e436b74ed60d1",
            "0x0000000000000000000000006e57a82c6dea975f306ec19d5d006eec361ed99d"
          ],
          "data": "0x00000000000000000000000000000000000000000000000000000002540be400",
          "blockHash": "0x5afb39c6a4b04b5267a87556a625da47d61af68c7275187f03b2c75a9e79fa1c",
          "blockNumber": "0x20764c7",
          "blockTimestamp": "0x6922286e",
          "transactionHash": "0xe9fe1a95b0317a64cf5c4eb8c0f602b719faffa66cb77f839b35b9052fbec5b8",
          "transactionIndex": "0x12",
          "logIndex": "0x3b",
          "removed": false
        },
        {
          "address": "0x18f5e9e1856877c2e6300d2f85085fa4ccace5b5",
          "topics": [
            "0x3f18354abbd5306dd1665c2c90f614a4559e39dd620d04fbe5458e613b6588f3"
          ],
          "data": "0x0000000000000000000000006e57a82c6dea975f306ec19d5d006eec361ed99d000000000000000000000000c897104c266c291ddc7cb30451cf2056a064b1f4550dbfa38a13e38b0ca5e8bc110a52d73baec23f6cb44ce2814866993f23f97a000000000000000000000000e430f44fc6264a8dede961a3917f71d43c1407e600000000000000000000000000000000000000000000000000000002540be400",
          "blockHash": "0x5afb39c6a4b04b5267a87556a625da47d61af68c7275187f03b2c75a9e79fa1c",
          "blockNumber": "0x20764c7",
          "blockTimestamp": "0x6922286e",
          "transactionHash": "0xe9fe1a95b0317a64cf5c4eb8c0f602b719faffa66cb77f839b35b9052fbec5b8",
          "transactionIndex": "0x12",
          "logIndex": "0x3c",
          "removed": false
        }
      ],
      "logsBloom": "0x00000000000400000840000000001000000000000000000000100000000400000000400000000000020020000000000000000000000800000000000000600000000100000000800000000208000000000040000000000000000000000000000000200008000000000000000000000000000000000000000000000010000000000000000000000000000000000000000000000000000000400000000000000000020040000000000000000000000200000000000000000000000000000000000000000002000000000000000000000000000000000000000000000000040100000010000000000000000001000000008000000000000000000000000000000000",
      "type": "0x0",
      "transactionHash": "0xe9fe1a95b0317a64cf5c4eb8c0f602b719faffa66cb77f839b35b9052fbec5b8",
      "transactionIndex": "0x12",
      "blockHash": "0x5afb39c6a4b04b5267a87556a625da47d61af68c7275187f03b2c75a9e79fa1c",
      "blockNumber": "0x20764c7",
      "gasUsed": "0x1cd4e",
      "effectiveGasPrice": "0x12611f",
      "blobGasUsed": "0xd1a0",
      "from": "0x6e57a82c6dea975f306ec19d5d006eec361ed99d",
      "to": "0xbb0fdff214e71ae02e317371666e436b74ed60d1",
      "contractAddress": null,
      "daFootprintGasScalar": "0x138",
      "l1BaseFeeScalar": "0x44d",
      "l1BlobBaseFee": "0x1",
      "l1BlobBaseFeeScalar": "0xa118b",
      "l1Fee": "0x51",
      "l1GasPrice": "0x9",
      "l1GasUsed": "0xac6"
    }
  ],
  "libraries": [],
  "pending": [],
  "returns": {},
  "timestamp": 1763846253544,
  "chain": 84532,
  "commit": "74910e9"
}