{
  "transactions": [
    {
      "hash": "0xa1ab4aad35fb0e297764ed440c8de261bb76b83519c31d8b660562e515d273c8",
      "transactionType": "CREATE",
      "contractName": "SimpleSwapper",
      "contractAddress": "0x67edcfaac1ef1e5f2935c1838314e6cf8698f034",
      "function": null,
      "arguments": [
        "0x18F5E9e1856877c2e6300D2f85085fA4cCAcE5b5"
      ],
      "transaction": {
        "from": "0x6e57a82c6dea975f306ec19d5d006eec361ed99d",
        "gas": "0x69bfe",
        "value": "0x0",
        "input": "0x60a034606c57601f61058c38819003918201601f19168301916001600160401b03831184841017607057808492602094604052833981010312606c57516001600160a01b0381168103606c57608052604051610507908161008582396080518181816054015261039b0152f35b5f80fd5b634e487b7160e01b5f52604160045260245ffdfe6080806040526004361015610012575f80fd5b5f905f3560e01c908163d1d33b2d146102f057508063eb6bef6d146100865763fe6a87051461003f575f80fd5b346100835780600319360112610083576040517f00000000000000000000000000000000000000000000000000000000000000006001600160a01b03168152602090f35b80fd5b503461008357610160366003190112610083576004356001600160a01b0381169081900361027c5760e036602319011261027c576040519060e0820182811067ffffffffffffffff8211176102dc5760405282906100e261046d565b83526044356001600160a01b038116939091908483036102d85760208101928352606435946001600160a01b038616928387036102d4576040830196875260608301936084358552608084019060a435825260a0850160c435815260c086019060e43582526101043593841515938486036102d0578b9760209161012435975f146102c957505b6040516323b872dd60e01b8152336004820152306024820152604481018890529c8d9160649183916001600160a01b03165af19889156102be5760209b6101a49a610293575b506040519c8d9b8c9a636454106360e11b8c5260018060a01b0390511660048c015260018060a01b0390511660248b015260018060a01b0390511660448a01525160648901525160848801525160a48701525160c486015260e48501526101048401526101443561012484015233610144840152610180610164840152816101848401525af190811561028857829161024e575b602082604051908152f35b90506020813d602011610280575b8161026960209383610483565b8101031261027c5760209150515f610243565b5080fd5b3d915061025c565b6040513d84823e3d90fd5b6102b2908d3d8f116102b7575b6102aa8183610483565b8101906104b9565b6101af565b503d6102a0565b6040513d89823e3d90fd5b9050610169565b8b80fd5b8580fd5b8380fd5b634e487b7160e01b84526041600452602484fd5b90503461044c5761010036600319011261044c576004356001600160a01b038116919082900361044c5761032261046d565b50604435906084356001600160a01b038116919082900361044c5760a4356001600160a01b038116929083900361044c5760e43567ffffffffffffffff811161044c573660238201121561044c57806004013567ffffffffffffffff811161044c573691016024011161044c5763095ea7b360e01b82527f00000000000000000000000000000000000000000000000000000000000000006001600160a01b03166004830181905260248301859052916020816044815f8a5af1801561044157610450575b50813b1561044c575f60a492819560405197889687956308fae4ed60e31b87526004870152602486015260c4356044860152606485015260848401525af1801561044157610433575080f35b61043f91505f90610483565b005b6040513d5f823e3d90fd5b5f80fd5b6104689060203d6020116102b7576102aa8183610483565b6103e7565b602435906001600160a01b038216820361044c57565b90601f8019910116810190811067ffffffffffffffff8211176104a557604052565b634e487b7160e01b5f52604160045260245ffd5b9081602091031261044c5751801515810361044c579056fea26469706673582212205b913ec05d92486199435de150300737754397d98f98b00e8110132da798149964736f6c634300081e003300000000000000000000000018f5e9e1856877c2e6300d2f85085fa4ccace5b5",
        "nonce": "0x94",
        "chainId": "0x14a34"
      },
      "additionalContracts": [],
      "isFixedGasLimit": false
    },
    {
      "hash": "0x547e8753bc13c505c7990d4070412fc1213d51a5fb61b407be8a9aa692429b4c",
      "transactionType": "CALL",
      "contractName": null,
      "contractAddress": "0xe430f44fc6264a8dede961a3917f71d43c1407e6",
      "function": "approve(address,uint256)",
      "arguments": [
        "0x67edCFAAC1eF1E5F2935C1838314e6cF8698f034",
        "1000000000"
      ],
      "transaction": {
        "from": "0x6e57a82c6dea975f306ec19d5d006eec361ed99d",
        "to": "0xe430f44fc6264a8dede961a3917f71d43c1407e6",
        "gas": "0x10657",
        "value": "0x0",
        "input": "0x095ea7b300000000000000000000000067edcfaac1ef1e5f2935c1838314e6cf8698f034000000000000000000000000000000000000000000000000000000003b9aca00",
        "nonce": "0x95",
        "chainId": "0x14a34"
      },
      "additionalContracts": [],
      "isFixedGasLimit": false
    },
    {
      "hash": "0x97a1c59cee3e71ab55fedf61272d62db547e367d7b82a0c1be2cf32332c9ea63",
      "transactionType": "CALL",
      "contractName": "SimpleSwapper",
      "contractAddress": "0x67edcfaac1ef1e5f2935c1838314e6cf8698f034",
      "function": "executeSwap(address,(address,address,address,uint256,uint256,uint256,bytes32),bool,uint256,uint256)",
      "arguments": [
        "0x031155a7b128183C0439B6F5DfdC90d8143429CF",
        "(0x6E57A82c6dea975f306EC19d5D006Eec361eD99D, 0xE430F44Fc6264A8dEdE961A3917f71d43C1407e6, 0x4514F2a19724652D839b2d3FcFbAd720734976c8, 30, 1000000000, 10000000000000000000000000000, 0x0000000000000000000000000000000000000000000000000000000000000000)",
        "true",
        "1000000000",
        "488643227026545342"
      ],
      "transaction": {
        "from": "0x6e57a82c6dea975f306ec19d5d006eec361ed99d",
        "to": "0x67edcfaac1ef1e5f2935c1838314e6cf8698f034",
        "gas": "0x2a77a",
        "value": "0x0",
        "input": "0xeb6bef6d000000000000000000000000031155a7b128183c0439b6f5dfdc90d8143429cf0000000000000000000000006e57a82c6dea975f306ec19d5d006eec361ed99d000000000000000000000000e430f44fc6264a8dede961a3917f71d43c1407e60000000000000000000000004514f2a19724652d839b2d3fcfbad720734976c8000000000000000000000000000000000000000000000000000000000000001e000000000000000000000000000000000000000000000000000000003b9aca000000000000000000000000000000000000000000204fce5e3e2502611000000000000000000000000000000000000000000000000000000000000000000000000000000000000000000000000000000000000000000000000000000000000001000000000000000000000000000000000000000000000000000000003b9aca0000000000000000000000000000000000000000000000000006c8026d10d15abe",
        "nonce": "0x96",
        "chainId": "0x14a34"
      },
      "additionalContracts": [],
      "isFixedGasLimit": false
    },
    {
      "hash": "0xd0375a4f0f18f572324b3cb359b5b30c446b5fa9d679d538215eb70bd10c0ee9",
      "transactionType": "CALL",
      "contractName": null,
      "contractAddress": "0x4514f2a19724652d839b2d3fcfbad720734976c8",
      "function": "approve(address,uint256)",
      "arguments": [
        "0x67edCFAAC1eF1E5F2935C1838314e6cF8698f034",
        "500000000000000000"
      ],
      "transaction": {
        "from": "0x6e57a82c6dea975f306ec19d5d006eec361ed99d",
        "to": "0x4514f2a19724652d839b2d3fcfbad720734976c8",
        "gas": "0xf7f5",
        "value": "0x0",
        "input": "0x095ea7b300000000000000000000000067edcfaac1ef1e5f2935c1838314e6cf8698f03400000000000000000000000000000000000000000000000006f05b59d3b20000",
        "nonce": "0x97",
        "chainId": "0x14a34"
      },
      "additionalContracts": [],
      "isFixedGasLimit": false
    },
    {
      "hash": "0x9f484d84c5ba0f96e6ae89946a5a885dfaae7b3c17495085549f1549ae34da4f",
      "transactionType": "CALL",
      "contractName": "SimpleSwapper",
      "contractAddress": "0x67edcfaac1ef1e5f2935c1838314e6cf8698f034",
      "function": "executeSwap(address,(address,address,address,uint256,uint256,uint256,bytes32),bool,uint256,uint256)",
      "arguments": [
        "0x031155a7b128183C0439B6F5DfdC90d8143429CF",
        "(0x6E57A82c6dea975f306EC19d5D006Eec361eD99D, 0xE430F44Fc6264A8dEdE961A3917f71d43C1407e6, 0x4514F2a19724652D839b2d3FcFbAd720734976c8, 30, 1000000000, 10000000000000000000000000000, 0x0000000000000000000000000000000000000000000000000000000000000000)",
        "false",
        "500000000000000000",
        "996802194"
      ],
      "transaction": {
        "from": "0x6e57a82c6dea975f306ec19d5d006eec361ed99d",
        "to": "0x67edcfaac1ef1e5f2935c1838314e6cf8698f034",
        "gas": "0x281cc",
        "value": "0x0",
        "input": "0xeb6bef6d000000000000000000000000031155a7b128183c0439b6f5dfdc90d8143429cf0000000000000000000000006e57a82c6dea975f306ec19d5d006eec361ed99d000000000000000000000000e430f44fc6264a8dede961a3917f71d43c1407e60000000000000000000000004514f2a19724652d839b2d3fcfbad720734976c8000000000000000000000000000000000000000000000000000000000000001e000000000000000000000000000000000000000000000000000000003b9aca000000000000000000000000000000000000000000204fce5e3e250261100000000000000000000000000000000000000000000000000000000000000000000000000000000000000000000000000000000000000000000000000000000000000000000000000000000000000000000000000000000000000006f05b59d3b20000000000000000000000000000000000000000000000000000000000003b69fe92",
        "nonce": "0x98",
        "chainId": "0x14a34"
      },
      "additionalContracts": [],
      "isFixedGasLimit": false
    }
  ],
  "receipts": [
    {
      "status": "0x1",
      "cumulativeGasUsed": "0x283b20",
      "logs": [],
      "logsBloom": "0x00000000000000000000000000000000000000000000000000000000000000000000000000000000000000000000000000000000000000000000000000000000000000000000000000000000000000000000000000000000000000000000000000000000000000000000000000000000000000000000000000000000000000000000000000000000000000000000000000000000000000000000000000000000000000000000000000000000000000000000000000000000000000000000000000000000000000000000000000000000000000000000000000000000000000000000000000000000000000000000000000000000000000000000000000000000",
      "type": "0x0",
      "transactionHash": "0xa1ab4aad35fb0e297764ed440c8de261bb76b83519c31d8b660562e515d273c8",
      "transactionIndex": "0x8",
      "blockHash": "0x07535ad794f4ef6e78c10d4886d007b9c81a969bd9ad86c59e89a20c1357d497",
      "blockNumber": "0x20764bf",
      "gasUsed": "0x51589",
      "effectiveGasPrice": "0x126efd",
      "blobGasUsed": "0x4d160",
      "from": "0x6e57a82c6dea975f306ec19d5d006eec361ed99d",
      "to": null,
      "contractAddress": "0x67edcfaac1ef1e5f2935c1838314e6cf8698f034",
      "daFootprintGasScalar": "0x138",
      "l1BaseFeeScalar": "0x44d",
      "l1BlobBaseFee": "0x1",
      "l1BlobBaseFeeScalar": "0xa118b",
      "l1Fee": "0x33c",
      "l1GasPrice": "0x9",
      "l1GasUsed": "0x3f43"
    },
    {
      "status": "0x1",
      "cumulativeGasUsed": "0x28ee81",
      "logs": [
        {
          "address": "0xe430f44fc6264a8dede961a3917f71d43c1407e6",
          "topics": [
            "0x8c5be1e5ebec7d5bd14f71427d1e84f3dd0314c0f7b2291e5b200ac8c7c3b925",
            "0x0000000000000000000000006e57a82c6dea975f306ec19d5d006eec361ed99d",
            "0x00000000000000000000000067edcfaac1ef1e5f2935c1838314e6cf8698f034"
          ],
          "data": "0x000000000000000000000000000000000000000000000000000000003b9aca00",
          "blockHash": "0x07535ad794f4ef6e78c10d4886d007b9c81a969bd9ad86c59e89a20c1357d497",
          "blockNumber": "0x20764bf",
          "blockTimestamp": "0x6922285e",
          "transactionHash": "0x547e8753bc13c505c7990d4070412fc1213d51a5fb61b407be8a9aa692429b4c",
          "transactionIndex": "0x9",
          "logIndex": "0x10",
          "removed": false
        }
      ],
      "logsBloom": "0x00000000000000000800000000000000000000000000000000000000000400000000000000000000020000000000000000000000000800000000000000200000000000000000000000000200000000000000000000000000000000000000000000000000000000000000000000000000000000000000010000000000000000000000000000000000000000000000000000000000000000000000000000000000020000000000000000000020000000000000000000000000000000000000000000000000000000000000000000000000000000000000000000000000040000000010100000000000000000000000000000000000000000000000000000000000",
      "type": "0x0",
      "transactionHash": "0x547e8753bc13c505c7990d4070412fc1213d51a5fb61b407be8a9aa692429b4c",
      "transactionIndex": "0x9",
      "blockHash": "0x07535ad794f4ef6e78c10d4886d007b9c81a969bd9ad86c59e89a20c1357d497",
      "blockNumber": "0x20764bf",
      "gasUsed": "0xb361",
      "effectiveGasPrice": "0x126efd",
      "blobGasUsed": "0x79e0",
      "from": "0x6e57a82c6dea975f306ec19d5d006eec361ed99d",
      "to": "0xe430f44fc6264a8dede961a3917f71d43c1407e6",
      "contractAddress": null,
      "daFootprintGasScalar": "0x138",
      "l1BaseFeeScalar": "0x44d",
      "l1BlobBaseFee": "0x1",
      "l1BlobBaseFeeScalar": "0xa118b",
      "l1Fee": "0x33c",
      "l1GasPrice": "0x9",
      "l1GasUsed": "0x640"
    },
    {
      "status": "0x1",
      "cumulativeGasUsed": "0x2abf1b",
      "logs": [
        {
          "address": "0xe430f44fc6264a8dede961a3917f71d43c1407e6",
          "topics": [
            "0xddf252ad1be2c89b69c2b068fc378daa952ba7f163c4a11628f55a4df523b3ef",
            "0x0000000000000000000000006e57a82c6dea975f306ec19d5d006eec361ed99d",
            "0x00000000000000000000000067edcfaac1ef1e5f2935c1838314e6cf8698f034"
          ],
          "data": "0x000000000000000000000000000000000000000000000000000000003b9aca00",
          "blockHash": "0x07535ad794f4ef6e78c10d4886d007b9c81a969bd9ad86c59e89a20c1357d497",
          "blockNumber": "0x20764bf",
          "blockTimestamp": "0x6922285e",
          "transactionHash": "0x97a1c59cee3e71ab55fedf61272d62db547e367d7b82a0c1be2cf32332c9ea63",
          "transactionIndex": "0xa",
          "logIndex": "0x11",
          "removed": false
        },
        {
          "address": "0x4514f2a19724652d839b2d3fcfbad720734976c8",
          "topics": [
            "0xddf252ad1be2c89b69c2b068fc378daa952ba7f163c4a11628f55a4df523b3ef",
            "0x0000000000000000000000006e57a82c6dea975f306ec19d5d006eec361ed99d",
            "0x0000000000000000000000006e57a82c6dea975f306ec19d5d006eec361ed99d"
          ],
          "data": "0x00000000000000000000000000000000000000000000000006d98b8044b47059",
          "blockHash": "0x07535ad794f4ef6e78c10d4886d007b9c81a969bd9ad86c59e89a20c1357d497",
          "blockNumber": "0x20764bf",
          "blockTimestamp": "0x6922285e",
          "transactionHash": "0x97a1c59cee3e71ab55fedf61272d62db547e367d7b82a0c1be2cf32332c9ea63",
          "transactionIndex": "0xa",
          "logIndex": "0x12",
          "removed": false
        },
        {
          "address": "0x18f5e9e1856877c2e6300d2f85085fa4ccace5b5",
          "topics": [
            "0x3ad61047071575417c75e3311e5d46ff042e292b5dd8769ff18b4b254098ca7a"
          ],
          "data": "0x0000000000000000000000006e57a82c6dea975f306ec19d5d006eec361ed99d000000000000000000000000031155a7b128183c0439b6f5dfdc90d8143429cf4c34b5c4be077793bf3e122c16efbb64dcd79e9b499c38733df7cf66aafff76a0000000000000000000000004514f2a19724652d839b2d3fcfbad720734976c800000000000000000000000000000000000000000000000006d98b8044b47059",
          "blockHash": "0x07535ad794f4ef6e78c10d4886d007b9c81a969bd9ad86c59e89a20c1357d497",
          "blockNumber": "0x20764bf",
          "blockTimestamp": "0x6922285e",
          "transactionHash": "0x97a1c59cee3e71ab55fedf61272d62db547e367d7b82a0c1be2cf32332c9ea63",
          "transactionIndex": "0xa",
          "logIndex": "0x13",
          "removed": false
        },
        {
          "address": "0xe430f44fc6264a8dede961a3917f71d43c1407e6",
          "topics": [
            "0x8c5be1e5ebec7d5bd14f71427d1e84f3dd0314c0f7b2291e5b200ac8c7c3b925",
            "0x00000000000000000000000067edcfaac1ef1e5f2935c1838314e6cf8698f034",
            "0x00000000000000000000000018f5e9e1856877c2e6300d2f85085fa4ccace5b5"
          ],
          "data": "0x000000000000000000000000000000000000000000000000000000003b9aca00",
          "blockHash": "0x07535ad794f4ef6e78c10d4886d007b9c81a969bd9ad86c59e89a20c1357d497",
          "blockNumber": "0x20764bf",
          "blockTimestamp": "0x6922285e",
          "transactionHash": "0x97a1c59cee3e71ab55fedf61272d62db547e367d7b82a0c1be2cf32332c9ea63",
          "transactionIndex": "0xa",
          "logIndex": "0x14",
          "removed": false
        },
        {
          "address": "0xe430f44fc6264a8dede961a3917f71d43c1407e6",
          "topics": [
            "0xddf252ad1be2c89b69c2b068fc378daa952ba7f163c4a11628f55a4df523b3ef",
            "0x00000000000000000000000067edcfaac1ef1e5f2935c1838314e6cf8698f034",
            "0x0000000000000000000000006e57a82c6dea975f306ec19d5d006eec361ed99d"
          ],
          "data": "0x000000000000000000000000000000000000000000000000000000003b9aca00",
          "blockHash": "0x07535ad794f4ef6e78c10d4886d007b9c81a969bd9ad86c59e89a20c1357d497",
          "blockNumber": "0x20764bf",
          "blockTimestamp": "0x6922285e",
          "transactionHash": "0x97a1c59cee3e71ab55fedf61272d62db547e367d7b82a0c1be2cf32332c9ea63",
          "transactionIndex": "0xa",
          "logIndex": "0x15",
          "removed": false
        },
        {
          "address": "0x18f5e9e1856877c2e6300d2f85085fa4ccace5b5",
          "topics": [
            "0x3f18354abbd5306dd1665c2c90f614a4559e39dd620d04fbe5458e613b6588f3"
          ],
          "data": "0x0000000000000000000000006e57a82c6dea975f306ec19d5d006eec361ed99d000000000000000000000000031155a7b128183c0439b6f5dfdc90d8143429cf4c34b5c4be077793bf3e122c16efbb64dcd79e9b499c38733df7cf66aafff76a000000000000000000000000e430f44fc6264a8dede961a3917f71d43c1407e6000000000000000000000000000000000000000000000000000000003b9aca00",
          "blockHash": "0x07535ad794f4ef6e78c10d4886d007b9c81a969bd9ad86c59e89a20c1357d497",
          "blockNumber": "0x20764bf",
          "blockTimestamp": "0x6922285e",
          "transactionHash": "0x97a1c59cee3e71ab55fedf61272d62db547e367d7b82a0c1be2cf32332c9ea63",
          "transactionIndex": "0xa",
          "logIndex": "0x16",
          "removed": false
        }
      ],
      "logsBloom": "0x00000000000400000800000000001000000000000000000000100000000400000000000000000000020020000000000000000000000800000000000000200000000000000000800000000208100000000040000000000000000000000000000000200000000000000000000000000000000000000000010000000010100000000000000000000000000000000000000000000000000000400000000000000000020040000000000000000020000200000000000000000000200000000000000000000002000000000000000000000000000000000000000000000000040000000010100000000000000001000000008000000000000000000000000000000000",
      "type": "0x0",
      "transactionHash": "0x97a1c59cee3e71ab55fedf61272d62db547e367d7b82a0c1be2cf32332c9ea63",
      "transactionIndex": "0xa",
      "blockHash": "0x07535ad794f4ef6e78c10d4886d007b9c81a969bd9ad86c59e89a20c1357d497",
      "blockNumber": "0x20764bf",
      "gasUsed": "0x1d09a",
      "effectiveGasPrice": "0x126efd",
      "blobGasUsed": "0xdf08",
      "from": "0x6e57a82c6dea975f306ec19d5d006eec361ed99d",
      "to": "0x67edcfaac1ef1e5f2935c1838314e6cf8698f034",
      "contractAddress": null,
      "daFootprintGasScalar": "0x138",
      "l1BaseFeeScalar": "0x44d",
      "l1BlobBaseFee": "0x1",
      "l1BlobBaseFeeScalar": "0xa118b",
      "l1Fee": "0x33c",
      "l1GasPrice": "0x9",
      "l1GasUsed": "0xb74"
    },
    {
      "status": "0x1",
      "cumulativeGasUsed": "0x2b72a0",
      "logs": [
        {
          "address": "0x4514f2a19724652d839b2d3fcfbad720734976c8",
          "topics": [
            "0x8c5be1e5ebec7d5bd14f71427d1e84f3dd0314c0f7b2291e5b200ac8c7c3b925",
            "0x0000000000000000000000006e57a82c6dea975f306ec19d5d006eec361ed99d",
            "0x00000000000000000000000067edcfaac1ef1e5f2935c1838314e6cf8698f034"
          ],
          "data": "0x00000000000000000000000000000000000000000000000006f05b59d3b20000",
          "blockHash": "0x07535ad794f4ef6e78c10d4886d007b9c81a969bd9ad86c59e89a20c1357d497",
          "blockNumber": "0x20764bf",
          "blockTimestamp": "0x6922285e",
          "transactionHash": "0xd0375a4f0f18f572324b3cb359b5b30c446b5fa9d679d538215eb70bd10c0ee9",
          "transactionIndex": "0xb",
          "logIndex": "0x17",
          "removed": false
        }
      ],
      "logsBloom": "0x00000000000000000000000000000000000000000000000000000000000400000000000000000000020000000000000000000000000000000000000000200000000000000000000000000200100000000000000000000000000000000000000000000000000000000000000000000000000000000000010000000000100000000000000000000000000000000000000000000000000000000000000000000000020000000000000000000020000000000000000000000000200000000000000000000000000000000000000000000000000000000000000000000000000000000010100000000000000000000000000000000000000000000000000000000000",
      "type": "0x0",
      "transactionHash": "0xd0375a4f0f18f572324b3cb359b5b30c446b5fa9d679d538215eb70bd10c0ee9",
      "transactionIndex": "0xb",
      "blockHash": "0x07535ad794f4ef6e78c10d4886d007b9c81a969bd9ad86c59e89a20c1357d497",
      "blockNumber": "0x20764bf",
      "gasUsed": "0xb385",
      "effectiveGasPrice": "0x126efd",
      "blobGasUsed": "0x79e0",
      "from": "0x6e57a82c6dea975f306ec19d5d006eec361ed99d",
      "to": "0x4514f2a19724652d839b2d3fcfbad720734976c8",
      "contractAddress": null,
      "daFootprintGasScalar": "0x138",
      "l1BaseFeeScalar": "0x44d",
      "l1BlobBaseFee": "0x1",
      "l1BlobBaseFeeScalar": "0xa118b",
      "l1Fee": "0x33c",
      "l1GasPrice": "0x9",
      "l1GasUsed": "0x640"
    },
    {
      "status": "0x1",
      "cumulativeGasUsed": "0x2d4347",
      "logs": [
        {
          "address": "0x4514f2a19724652d839b2d3fcfbad720734976c8",
          "topics": [
            "0xddf252ad1be2c89b69c2b068fc378daa952ba7f163c4a11628f55a4df523b3ef",
            "0x0000000000000000000000006e57a82c6dea975f306ec19d5d006eec361ed99d",
            "0x00000000000000000000000067edcfaac1ef1e5f2935c1838314e6cf8698f034"
          ],
          "data": "0x00000000000000000000000000000000000000000000000006f05b59d3b20000",
          "blockHash": "0x07535ad794f4ef6e78c10d4886d007b9c81a969bd9ad86c59e89a20c1357d497",
          "blockNumber": "0x20764bf",
          "blockTimestamp": "0x6922285e",
          "transactionHash": "0x9f484d84c5ba0f96e6ae89946a5a885dfaae7b3c17495085549f1549ae34da4f",
          "transactionIndex": "0xc",
          "logIndex": "0x18",
          "removed": false
        },
        {
          "address": "0xe430f44fc6264a8dede961a3917f71d43c1407e6",
          "topics": [
            "0xddf252ad1be2c89b69c2b068fc378daa952ba7f163c4a11628f55a4df523b3ef",
            "0x0000000000000000000000006e57a82c6dea975f306ec19d5d006eec361ed99d",
            "0x0000000000000000000000006e57a82c6dea975f306ec19d5d006eec361ed99d"
          ],
          "data": "0x000000000000000000000000000000000000000000000000000000003c03a178",
          "blockHash": "0x07535ad794f4ef6e78c10d4886d007b9c81a969bd9ad86c59e89a20c1357d497",
          "blockNumber": "0x20764bf",
          "blockTimestamp": "0x6922285e",
          "transactionHash": "0x9f484d84c5ba0f96e6ae89946a5a885dfaae7b3c17495085549f1549ae34da4f",
          "transactionIndex": "0xc",
          "logIndex": "0x19",
          "removed": false
        },
        {
          "address": "0x18f5e9e1856877c2e6300d2f85085fa4ccace5b5",
          "topics": [
            "0x3ad61047071575417c75e3311e5d46ff042e292b5dd8769ff18b4b254098ca7a"
          ],
          "data": "0x0000000000000000000000006e57a82c6dea975f306ec19d5d006eec361ed99d000000000000000000000000031155a7b128183c0439b6f5dfdc90d8143429cf4c34b5c4be077793bf3e122c16efbb64dcd79e9b499c38733df7cf66aafff76a000000000000000000000000e430f44fc6264a8dede961a3917f71d43c1407e6000000000000000000000000000000000000000000000000000000003c03a178",
          "blockHash": "0x07535ad794f4ef6e78c10d4886d007b9c81a969bd9ad86c59e89a20c1357d497",
          "blockNumber": "0x20764bf",
          "blockTimestamp": "0x6922285e",
          "transactionHash": "0x9f484d84c5ba0f96e6ae89946a5a885dfaae7b3c17495085549f1549ae34da4f",
          "transactionIndex": "0xc",
          "logIndex": "0x1a",
          "removed": false
        },
        {
          "address": "0x4514f2a19724652d839b2d3fcfbad720734976c8",
          "topics": [
            "0x8c5be1e5ebec7d5bd14f71427d1e84f3dd0314c0f7b2291e5b200ac8c7c3b925",
            "0x00000000000000000000000067edcfaac1ef1e5f2935c1838314e6cf8698f034",
            "0x00000000000000000000000018f5e9e1856877c2e6300d2f85085fa4ccace5b5"
          ],
          "data": "0x00000000000000000000000000000000000000000000000006f05b59d3b20000",
          "blockHash": "0x07535ad794f4ef6e78c10d4886d007b9c81a969bd9ad86c59e89a20c1357d497",
          "blockNumber": "0x20764bf",
          "blockTimestamp": "0x6922285e",
          "transactionHash": "0x9f484d84c5ba0f96e6ae89946a5a885dfaae7b3c17495085549f1549ae34da4f",
          "transactionIndex": "0xc",
          "logIndex": "0x1b",
          "removed": false
        },
        {
          "address": "0x4514f2a19724652d839b2d3fcfbad720734976c8",
          "topics": [
            "0xddf252ad1be2c89b69c2b068fc378daa952ba7f163c4a11628f55a4df523b3ef",
            "0x00000000000000000000000067edcfaac1ef1e5f2935c1838314e6cf8698f034",
            "0x0000000000000000000000006e57a82c6dea975f306ec19d5d006eec361ed99d"
          ],
          "data": "0x00000000000000000000000000000000000000000000000006f05b59d3b20000",
          "blockHash": "0x07535ad794f4ef6e78c10d4886d007b9c81a969bd9ad86c59e89a20c1357d497",
          "blockNumber": "0x20764bf",
          "blockTimestamp": "0x6922285e",
          "transactionHash": "0x9f484d84c5ba0f96e6ae89946a5a885dfaae7b3c17495085549f1549ae34da4f",
          "transactionIndex": "0xc",
          "logIndex": "0x1c",
          "removed": false
        },
        {
          "address": "0x18f5e9e1856877c2e6300d2f85085fa4ccace5b5",
          "topics": [
            "0x3f18354abbd5306dd1665c2c90f614a4559e39dd620d04fbe5458e613b6588f3"
          ],
          "data": "0x0000000000000000000000006e57a82c6dea975f306ec19d5d006eec361ed99d000000000000000000000000031155a7b128183c0439b6f5dfdc90d8143429cf4c34b5c4be077793bf3e122c16efbb64dcd79e9b499c38733df7cf66aafff76a0000000000000000000000004514f2a19724652d839b2d3fcfbad720734976c800000000000000000000000000000000000000000000000006f05b59d3b20000",
          "blockHash": "0x07535ad794f4ef6e78c10d4886d007b9c81a969bd9ad86c59e89a20c1357d497",
          "blockNumber": "0x20764bf",
          "blockTimestamp": "0x6922285e",
          "transactionHash": "0x9f484d84c5ba0f96e6ae89946a5a885dfaae7b3c17495085549f1549ae34da4f",
          "transactionIndex": "0xc",
          "logIndex": "0x1d",
          "removed": false
        }
      ],
      "logsBloom": "0x00000000000400000800000000001000000000000000000000100000000400000000000000000000020020000000000000000000000800000000000000200000000000000000800000000208100000000040000000000000000000000000000000200000000000000000000000000000000000000000010000000010100000000000000000000000000000000000000000000000000000400000000000000000020040000000000000000020000200000000000000000000200000000000000000000002000000000000000000000000000000000000000000000000040000000010100000000000000001000000008000000000000000000000000000000000",
      "type": "0x0",
      "transactionHash": "0x9f484d84c5ba0f96e6ae89946a5a885dfaae7b3c17495085549f1549ae34da4f",
      "transactionIndex": "0xc",
      "blockHash": "0x07535ad794f4ef6e78c10d4886d007b9c81a969bd9ad86c59e89a20c1357d497",
      "blockNumber": "0x20764bf",
      "gasUsed": "0x1d0a7",
      "effectiveGasPrice": "0x126efd",
      "blobGasUsed": "0xda28",
      "from": "0x6e57a82c6dea975f306ec19d5d006eec361ed99d",
      "to": "0x67edcfaac1ef1e5f2935c1838314e6cf8698f034",
      "contractAddress": null,
      "daFootprintGasScalar": "0x138",
      "l1BaseFeeScalar": "0x44d",
      "l1BlobBaseFee": "0x1",
      "l1BlobBaseFeeScalar": "0xa118b",
      "l1Fee": "0x33c",
      "l1GasPrice": "0x9",
      "l1GasUsed": "0xb3e"
    }
  ],
  "libraries": [],
  "pending": [],
  "returns": {},
  "timestamp": 1763846237406,
  "chain": 84532,
  "commit": "74910e9"
}