{
  "transactions": [
    {
      "hash": "0x01dca24c009a24687ec4df72a57c96482802b146a1a93d0f2026b3e2088fa8c6",
      "transactionType": "CALL",
      "contractName": null,
      "contractAddress": "0x833589fcd6edb6e08f4c7c32d4f71b54bda02913",
      "function": "approve(address,uint256)",
      "arguments": [
        "0x36d500a364A3A82140420d1BCb5F8A90c8e352eF",
        "115792089237316195423570985008687907853269984665640564039457584007913129639935"
      ],
      "transaction": {
        "from": "0x17c224a941de97c8e765e7f2415d7d18d4486d1a",
        "to": "0x833589fcd6edb6e08f4c7c32d4f71b54bda02913",
        "gas": "0xccf0",
        "value": "0x0",
        "input": "0x095ea7b300000000000000000000000036d500a364a3a82140420d1bcb5f8a90c8e352efffffffffffffffffffffffffffffffffffffffffffffffffffffffffffffffff",
        "nonce": "0x13",
        "chainId": "0x2105"
      },
      "additionalContracts": [],
      "isFixedGasLimit": false
    },
    {
      "hash": "0x299127d4e9eaa2e7dbb355b2c6c9cc38602be58e6d9ebcb60f33283106980052",
      "transactionType": "CALL",
      "contractName": null,
      "contractAddress": "0x102d758f688a4c1c5a80b116bd945d4455460282",
      "function": "approve(address,uint256)",
      "arguments": [
        "0x36d500a364A3A82140420d1BCb5F8A90c8e352eF",
        "115792089237316195423570985008687907853269984665640564039457584007913129639935"
      ],
      "transaction": {
        "from": "0x17c224a941de97c8e765e7f2415d7d18d4486d1a",
        "to": "0x102d758f688a4c1c5a80b116bd945d4455460282",
        "gas": "0xc119",
        "value": "0x0",
        "input": "0x095ea7b300000000000000000000000036d500a364a3a82140420d1bcb5f8a90c8e352efffffffffffffffffffffffffffffffffffffffffffffffffffffffffffffffff",
        "nonce": "0x14",
        "chainId": "0x2105"
      },
      "additionalContracts": [],
      "isFixedGasLimit": false
    },
    {
      "hash": "0xc6ba7e7b8389c78c10bb7883aa8fe37e5935c1f7931fa9c34fd2513529388b5d",
      "transactionType": "CALL",
      "contractName": null,
      "contractAddress": "0x36d500a364a3a82140420d1bcb5f8a90c8e352ef",
      "function": "ship(address,bytes,address[],uint256[])",
      "arguments": [
        "0xDf12aaAdBaEc2C9cf9E56Bd4B807008530269839",
        "0x00000000000000000000000017c224a941de97c8e765e7f2415d7d18d4486d1a000000000000000000000000833589fcd6edb6e08f4c7c32d4f71b54bda02913000000000000000000000000102d758f688a4c1c5a80b116bd945d445546028200000000000000000000000000000000000000000000000000000000000000050000000000000000000000000000000000000000000000000dbd2fc137a300000000000000000000000000000000000000000000000000000e043da6172500000000000000000000000000000000000000000000000000000000000000000000",
        "[0x833589fCD6eDb6E08f4c7C32D4f71b54bdA02913, 0x102d758f688a4C1C5a80b116bD945d4455460282]",
        "[2000000, 2000000]"
      ],
      "transaction": {
        "from": "0x17c224a941de97c8e765e7f2415d7d18d4486d1a",
        "to": "0x36d500a364a3a82140420d1bcb5f8a90c8e352ef",
        "gas": "0x1dcb9",
        "value": "0x0",
        "input": "0xf50b870f000000000000000000000000df12aaadbaec2c9cf9e56bd4b8070085302698390000000000000000000000000000000000000000000000000000000000000080000000000000000000000000000000000000000000000000000000000000018000000000000000000000000000000000000000000000000000000000000001e000000000000000000000000000000000000000000000000000000000000000e000000000000000000000000017c224a941de97c8e765e7f2415d7d18d4486d1a000000000000000000000000833589fcd6edb6e08f4c7c32d4f71b54bda02913000000000000000000000000102d758f688a4c1c5a80b116bd945d445546028200000000000000000000000000000000000000000000000000000000000000050000000000000000000000000000000000000000000000000dbd2fc137a300000000000000000000000000000000000000000000000000000e043da61725000000000000000000000000000000000000000000000000000000000000000000000000000000000000000000000000000000000000000000000000000000000002000000000000000000000000833589fcd6edb6e08f4c7c32d4f71b54bda02913000000000000000000000000102d758f688a4c1c5a80b116bd945d4455460282000000000000000000000000000000000000000000000000000000000000000200000000000000000000000000000000000000000000000000000000001e848000000000000000000000000000000000000000000000000000000000001e8480",
        "nonce": "0x15",
        "chainId": "0x2105"
      },
      "additionalContracts": [],
      "isFixedGasLimit": false
    }
  ],
  "receipts": [
    {
      "status": "0x1",
      "cumulativeGasUsed": "0xaa91ac",
      "logs": [
        {
          "address": "0x833589fcd6edb6e08f4c7c32d4f71b54bda02913",
          "topics": [
            "0x8c5be1e5ebec7d5bd14f71427d1e84f3dd0314c0f7b2291e5b200ac8c7c3b925",
            "0x00000000000000000000000017c224a941de97c8e765e7f2415d7d18d4486d1a",
            "0x00000000000000000000000036d500a364a3a82140420d1bcb5f8a90c8e352ef"
          ],
          "data": "0xffffffffffffffffffffffffffffffffffffffffffffffffffffffffffffffff",
          "blockHash": "0x82eea0883b88f7e6999fbb41d45de10dbbdbec4c757f38e4e1ea3f6411ef2977",
          "blockNumber": "0x24c09f3",
          "blockTimestamp": "0x692270c9",
          "transactionHash": "0x01dca24c009a24687ec4df72a57c96482802b146a1a93d0f2026b3e2088fa8c6",
          "transactionIndex": "0x56",
          "logIndex": "0x9c",
          "removed": false
        }
      ],
      "logsBloom": "0x00000000000000000000000000000000000000000000000000000000000000000000000000000000000000000000100008000000000000000000000000200000000000000000000000000000000000000000000000081000000008000000000000800000000000000000000000000000000040010000000000000000000000000000000000000000000000000000000000000000000000000000000000000000020000000000000000000000000000000000000000000000000000000000000000000000000000000000000000000000000000000000000000000000000000000010000000000000000000000000000000000000000000000000000000000001",
      "type": "0x0",
      "transactionHash": "0x01dca24c009a24687ec4df72a57c96482802b146a1a93d0f2026b3e2088fa8c6",
      "transactionIndex": "0x56",
      "blockHash": "0x82eea0883b88f7e6999fbb41d45de10dbbdbec4c757f38e4e1ea3f6411ef2977",
      "blockNumber": "0x24c09f3",
      "gasUsed": "0x8c21",
      "effectiveGasPrice": "0x240f69",
      "from": "0x17c224a941de97c8e765e7f2415d7d18d4486d1a",
      "to": "0x833589fcd6edb6e08f4c7c32d4f71b54bda02913",
      "contractAddress": null,
      "l1BaseFeeScalar": "0x8dd",
      "l1BlobBaseFee": "0x1",
      "l1BlobBaseFeeScalar": "0x101c12",
      "l1Fee": "0xdf83825",
      "l1GasPrice": "0x3d9134d",
      "l1GasUsed": "0x640"
    },
    {
      "status": "0x1",
      "cumulativeGasUsed": "0xab15b5",
      "logs": [
        {
          "address": "0x102d758f688a4c1c5a80b116bd945d4455460282",
          "topics": [
            "0x8c5be1e5ebec7d5bd14f71427d1e84f3dd0314c0f7b2291e5b200ac8c7c3b925",
            "0x00000000000000000000000017c224a941de97c8e765e7f2415d7d18d4486d1a",
            "0x00000000000000000000000036d500a364a3a82140420d1bcb5f8a90c8e352ef"
          ],
          "data": "0xffffffffffffffffffffffffffffffffffffffffffffffffffffffffffffffff",
          "blockHash": "0x82eea0883b88f7e6999fbb41d45de10dbbdbec4c757f38e4e1ea3f6411ef2977",
          "blockNumber": "0x24c09f3",
          "blockTimestamp": "0x692270c9",
          "transactionHash": "0x299127d4e9eaa2e7dbb355b2c6c9cc38602be58e6d9ebcb60f33283106980052",
          "transactionIndex": "0x57",
          "logIndex": "0x9d",
          "removed": false
        }
      ],
      "logsBloom": "0x00000000000000000000000000000000000000000000000000000000000000000000000000000000000000000000000008000000000000000000000000200000000000000000000000000000000000000000000080001000000008000000000000000000001000000000000000000000000040010000000000000000000000000000000000000000000000000000000000000000000000000000000000000000020000000000000000000000000000000000000000000000000000000000000000000000000000000000000000000000000000000000000000000000000000000010000000000000000000000000000000000000000001000000000000000001",
      "type": "0x0",
      "transactionHash": "0x299127d4e9eaa2e7dbb355b2c6c9cc38602be58e6d9ebcb60f33283106980052",
      "transactionIndex": "0x57",
      "blockHash": "0x82eea0883b88f7e6999fbb41d45de10dbbdbec4c757f38e4e1ea3f6411ef2977",
      "blockNumber": "0x24c09f3",
      "gasUsed": "0x8409",
      "effectiveGasPrice": "0x240f69",
      "from": "0x17c224a941de97c8e765e7f2415d7d18d4486d1a",
      "to": "0x102d758f688a4c1c5a80b116bd945d4455460282",
      "contractAddress": null,
      "l1BaseFeeScalar": "0x8dd",
      "l1BlobBaseFee": "0x1",
      "l1BlobBaseFeeScalar": "0x101c12",
      "l1Fee": "0xdf83825",
      "l1GasPrice": "0x3d9134d",
      "l1GasUsed": "0x640"
    },
    {
      "status": "0x1",
      "cumulativeGasUsed": "0xac6ed9",
      "logs": [
        {
          "address": "0x36d500a364a3a82140420d1bcb5f8a90c8e352ef",
          "topics": [
            "0xdc3622e06fb145651f567d421c9ef261d71d43e3778b761907bc0d70d42e52b0"
          ],
          "data": "0x00000000000000000000000017c224a941de97c8e765e7f2415d7d18d4486d1a000000000000000000000000df12aaadbaec2c9cf9e56bd4b807008530269839c99e3ac9bc196b3a1f9c3200c3284f0234c9e64654581f5fc88f1657577b00fc000000000000000000000000000000000000000000000000000000000000008000000000000000000000000000000000000000000000000000000000000000e000000000000000000000000017c224a941de97c8e765e7f2415d7d18d4486d1a000000000000000000000000833589fcd6edb6e08f4c7c32d4f71b54bda02913000000000000000000000000102d758f688a4c1c5a80b116bd945d445546028200000000000000000000000000000000000000000000000000000000000000050000000000000000000000000000000000000000000000000dbd2fc137a300000000000000000000000000000000000000000000000000000e043da6172500000000000000000000000000000000000000000000000000000000000000000000",
          "blockHash": "0x82eea0883b88f7e6999fbb41d45de10dbbdbec4c757f38e4e1ea3f6411ef2977",
          "blockNumber": "0x24c09f3",
          "blockTimestamp": "0x692270c9",
          "transactionHash": "0xc6ba7e7b8389c78c10bb7883aa8fe37e5935c1f7931fa9c34fd2513529388b5d",
          "transactionIndex": "0x58",
          "logIndex": "0x9e",
          "removed": false
        },
        {
          "address": "0x36d500a364a3a82140420d1bcb5f8a90c8e352ef",
          "topics": [
            "0x3f18354abbd5306dd1665c2c90f614a4559e39dd620d04fbe5458e613b6588f3"
          ],
          "data": "0x00000000000000000000000017c224a941de97c8e765e7f2415d7d18d4486d1a000000000000000000000000df12aaadbaec2c9cf9e56bd4b807008530269839c99e3ac9bc196b3a1f9c3200c3284f0234c9e64654581f5fc88f1657577b00fc000000000000000000000000833589fcd6edb6e08f4c7c32d4f71b54bda0291300000000000000000000000000000000000000000000000000000000001e8480",
          "blockHash": "0x82eea0883b88f7e6999fbb41d45de10dbbdbec4c757f38e4e1ea3f6411ef2977",
          "blockNumber": "0x24c09f3",
          "blockTimestamp": "0x692270c9",
          "transactionHash": "0xc6ba7e7b8389c78c10bb7883aa8fe37e5935c1f7931fa9c34fd2513529388b5d",
          "transactionIndex": "0x58",
          "logIndex": "0x9f",
          "removed": false
        },
        {
          "address": "0x36d500a364a3a82140420d1bcb5f8a90c8e352ef",
          "topics": [
            "0x3f18354abbd5306dd1665c2c90f614a4559e39dd620d04fbe5458e613b6588f3"
          ],
          "data": "0x00000000000000000000000017c224a941de97c8e765e7f2415d7d18d4486d1a000000000000000000000000df12aaadbaec2c9cf9e56bd4b807008530269839c99e3ac9bc196b3a1f9c3200c3284f0234c9e64654581f5fc88f1657577b00fc000000000000000000000000102d758f688a4c1c5a80b116bd945d445546028200000000000000000000000000000000000000000000000000000000001e8480",
          "blockHash": "0x82eea0883b88f7e6999fbb41d45de10dbbdbec4c757f38e4e1ea3f6411ef2977",
          "blockNumber": "0x24c09f3",
          "blockTimestamp": "0x692270c9",
          "transactionHash": "0xc6ba7e7b8389c78c10bb7883aa8fe37e5935c1f7931fa9c34fd2513529388b5d",
          "transactionIndex": "0x58",
          "logIndex": "0xa0",
          "removed": false
        }
      ],
      "logsBloom": "0x00000000000000000000000000000000000000000000000000100000000000000000000000000000080000000000000000000000000000000000000000000000000000000000000000000000000000000040000000000000000000000000000000200000000020000000000000000000000000000000000000000000000000000000000000000000400000000000000000000000000000000000000000004000000000000000000000000000020000000000000000000000000000000000000000000000000000000000000000000000000000000000000000000000000000000000000000000000800000000000000000000000000000000000000000000000",
      "type": "0x0",
      "transactionHash": "0xc6ba7e7b8389c78c10bb7883aa8fe37e5935c1f7931fa9c34fd2513529388b5d",
      "transactionIndex": "0x58",
      "blockHash": "0x82eea0883b88f7e6999fbb41d45de10dbbdbec4c757f38e4e1ea3f6411ef2977",
      "blockNumber": "0x24c09f3",
      "gasUsed": "0x15924",
      "effectiveGasPrice": "0x240f69",
      "from": "0x17c224a941de97c8e765e7f2415d7d18d4486d1a",
      "to": "0x36d500a364a3a82140420d1bcb5f8a90c8e352ef",
      "contractAddress": null,
      "l1BaseFeeScalar": "0x8dd",
      "l1BlobBaseFee": "0x1",
      "l1BlobBaseFeeScalar": "0x101c12",
      "l1Fee": "0x1d397ba6",
      "l1GasPrice": "0x3d9134d",
      "l1GasUsed": "0xd13"
    }
  ],
  "libraries": [],
  "pending": [],
  "returns": {},
  "timestamp": 1763864778804,
  "chain": 8453,
  "commit": "b95645e"
}