{
  "transactions": [
    {
      "hash": "0x51d642a82bfcd39dce254ef11edaf5cc110d16b820f0e5d48935a402adddcc95",
      "transactionType": "CALL",
      "contractName": null,
      "contractAddress": "0xe430f44fc6264a8dede961a3917f71d43c1407e6",
      "function": "approve(address,uint256)",
      "arguments": [
        "0x18F5E9e1856877c2e6300D2f85085fA4cCAcE5b5",
        "115792089237316195423570985008687907853269984665640564039457584007913129639935"
      ],
      "transaction": {
        "from": "0x6e57a82c6dea975f306ec19d5d006eec361ed99d",
        "to": "0xe430f44fc6264a8dede961a3917f71d43c1407e6",
        "gas": "0xf9a4",
        "value": "0x0",
        "input": "0x095ea7b300000000000000000000000018f5e9e1856877c2e6300d2f85085fa4ccace5b5ffffffffffffffffffffffffffffffffffffffffffffffffffffffffffffffff",
        "nonce": "0x8e",
        "chainId": "0x14a34"
      },
      "additionalContracts": [],
      "isFixedGasLimit": false
    },
    {
      "hash": "0xbdb489a8317b1c727c560b9adc829e32df8dd067f617a149977f3dd25c601e6c",
      "transactionType": "CALL",
      "contractName": null,
      "contractAddress": "0x4514f2a19724652d839b2d3fcfbad720734976c8",
      "function": "approve(address,uint256)",
      "arguments": [
        "0x18F5E9e1856877c2e6300D2f85085fA4cCAcE5b5",
        "115792089237316195423570985008687907853269984665640564039457584007913129639935"
      ],
      "transaction": {
        "from": "0x6e57a82c6dea975f306ec19d5d006eec361ed99d",
        "to": "0x4514f2a19724652d839b2d3fcfbad720734976c8",
        "gas": "0xf9a4",
        "value": "0x0",
        "input": "0x095ea7b300000000000000000000000018f5e9e1856877c2e6300d2f85085fa4ccace5b5ffffffffffffffffffffffffffffffffffffffffffffffffffffffffffffffff",
        "nonce": "0x8f",
        "chainId": "0x14a34"
      },
      "additionalContracts": [],
      "isFixedGasLimit": false
    },
    {
      "hash": "0x9d3970a9965cc97a5e5fa308764f1199b71e4d4cb163d2e60856a701a1bb13ee",
      "transactionType": "CALL",
      "contractName": null,
      "contractAddress": "0x18f5e9e1856877c2e6300d2f85085fa4ccace5b5",
      "function": "ship(address,bytes,address[],uint256[])",
      "arguments": [
        "0x031155a7b128183C0439B6F5DfdC90d8143429CF",
        "0x0000000000000000000000006e57a82c6dea975f306ec19d5d006eec361ed99d000000000000000000000000e430f44fc6264a8dede961a3917f71d43c1407e60000000000000000000000004514f2a19724652d839b2d3fcfbad720734976c8000000000000000000000000000000000000000000000000000000000000001e000000000000000000000000000000000000000000000000000000003b9aca000000000000000000000000000000000000000000204fce5e3e250261100000000000000000000000000000000000000000000000000000000000000000000000",
        "[0xE430F44Fc6264A8dEdE961A3917f71d43C1407e6, 0x4514F2a19724652D839b2d3FcFbAd720734976c8]",
        "[100000000000, 50000000000000000000]"
      ],
      "transaction": {
        "from": "0x6e57a82c6dea975f306ec19d5d006eec361ed99d",
        "to": "0x18f5e9e1856877c2e6300d2f85085fa4ccace5b5",
        "gas": "0x1f76e",
        "value": "0x0",
        "input": "0xf50b870f000000000000000000000000031155a7b128183c0439b6f5dfdc90d8143429cf0000000000000000000000000000000000000000000000000000000000000080000000000000000000000000000000000000000000000000000000000000018000000000000000000000000000000000000000000000000000000000000001e000000000000000000000000000000000000000000000000000000000000000e00000000000000000000000006e57a82c6dea975f306ec19d5d006eec361ed99d000000000000000000000000e430f44fc6264a8dede961a3917f71d43c1407e60000000000000000000000004514f2a19724652d839b2d3fcfbad720734976c8000000000000000000000000000000000000000000000000000000000000001e000000000000000000000000000000000000000000000000000000003b9aca000000000000000000000000000000000000000000204fce5e3e2502611000000000000000000000000000000000000000000000000000000000000000000000000000000000000000000000000000000000000000000000000000000000000002000000000000000000000000e430f44fc6264a8dede961a3917f71d43c1407e60000000000000000000000004514f2a19724652d839b2d3fcfbad720734976c80000000000000000000000000000000000000000000000000000000000000002000000000000000000000000000000000000000000000000000000174876e800000000000000000000000000000000000000000000000002b5e3af16b1880000",
        "nonce": "0x90",
        "chainId": "0x14a34"
      },
      "additionalContracts": [],
      "isFixedGasLimit": false
    }
  ],
  "receipts": [
    {
      "status": "0x1",
      "cumulativeGasUsed": "0xa2c882",
      "logs": [
        {
          "address": "0xe430f44fc6264a8dede961a3917f71d43c1407e6",
          "topics": [
            "0x8c5be1e5ebec7d5bd14f71427d1e84f3dd0314c0f7b2291e5b200ac8c7c3b925",
            "0x0000000000000000000000006e57a82c6dea975f306ec19d5d006eec361ed99d",
            "0x00000000000000000000000018f5e9e1856877c2e6300d2f85085fa4ccace5b5"
          ],
          "data": "0xffffffffffffffffffffffffffffffffffffffffffffffffffffffffffffffff",
          "blockHash": "0x381046741bbade37025fc1b4ca40d61f5773a5e3ff32ffe5bcb183bd8dad24bf",
          "blockNumber": "0x20764b2",
          "blockTimestamp": "0x69222844",
          "transactionHash": "0x51d642a82bfcd39dce254ef11edaf5cc110d16b820f0e5d48935a402adddcc95",
          "transactionIndex": "0x2f",
          "logIndex": "0xac",
          "removed": false
        }
      ],
      "logsBloom": "0x00000000000400000800000000000000000000000000000000000000000400000000000000000000020000000000000000000000000800000000000000200000000000000000000000000200000000000000000000000000000000000000000000000000000000000000000000000000000000000000000000000000000000000000000000000000000000000000000000000000000000000000000000000000020040000000000000000000000000000000000000000000000000000000000000000000000000000000000000000000000000000000000000000000040000000010000000000000000000000000008000000000000000000000000000000000",
      "type": "0x0",
      "transactionHash": "0x51d642a82bfcd39dce254ef11edaf5cc110d16b820f0e5d48935a402adddcc95",
      "transactionIndex": "0x2f",
      "blockHash": "0x381046741bbade37025fc1b4ca40d61f5773a5e3ff32ffe5bcb183bd8dad24bf",
      "blockNumber": "0x20764b2",
      "gasUsed": "0xb4bd",
      "effectiveGasPrice": "0x1273ba",
      "blobGasUsed": "0x79e0",
      "from": "0x6e57a82c6dea975f306ec19d5d006eec361ed99d",
      "to": "0xe430f44fc6264a8dede961a3917f71d43c1407e6",
      "contractAddress": null,
      "daFootprintGasScalar": "0x138",
      "l1BaseFeeScalar": "0x44d",
      "l1BlobBaseFee": "0x1",
      "l1BlobBaseFeeScalar": "0xa118b",
      "l1Fee": "0x52",
      "l1GasPrice": "0x9",
      "l1GasUsed": "0x640"
    },
    {
      "status": "0x1",
      "cumulativeGasUsed": "0xa37d3f",
      "logs": [
        {
          "address": "0x4514f2a19724652d839b2d3fcfbad720734976c8",
          "topics": [
            "0x8c5be1e5ebec7d5bd14f71427d1e84f3dd0314c0f7b2291e5b200ac8c7c3b925",
            "0x0000000000000000000000006e57a82c6dea975f306ec19d5d006eec361ed99d",
            "0x00000000000000000000000018f5e9e1856877c2e6300d2f85085fa4ccace5b5"
          ],
          "data": "0xffffffffffffffffffffffffffffffffffffffffffffffffffffffffffffffff",
          "blockHash": "0x381046741bbade37025fc1b4ca40d61f5773a5e3ff32ffe5bcb183bd8dad24bf",
          "blockNumber": "0x20764b2",
          "blockTimestamp": "0x69222844",
          "transactionHash": "0xbdb489a8317b1c727c560b9adc829e32df8dd067f617a149977f3dd25c601e6c",
          "transactionIndex": "0x30",
          "logIndex": "0xad",
          "removed": false
        }
      ],
      "logsBloom": "0x00000000000400000000000000000000000000000000000000000000000400000000000000000000020000000000000000000000000000000000000000200000000000000000000000000200100000000000000000000000000000000000000000000000000000000000000000000000000000000000000000000000100000000000000000000000000000000000000000000000000000000000000000000000020040000000000000000000000000000000000000000000200000000000000000000000000000000000000000000000000000000000000000000000000000000010000000000000000000000000008000000000000000000000000000000000",
      "type": "0x0",
      "transactionHash": "0xbdb489a8317b1c727c560b9adc829e32df8dd067f617a149977f3dd25c601e6c",
      "transactionIndex": "0x30",
      "blockHash": "0x381046741bbade37025fc1b4ca40d61f5773a5e3ff32ffe5bcb183bd8dad24bf",
      "blockNumber": "0x20764b2",
      "gasUsed": "0xb4bd",
      "effectiveGasPrice": "0x1273ba",
      "blobGasUsed": "0x79e0",
      "from": "0x6e57a82c6dea975f306ec19d5d006eec361ed99d",
      "to": "0x4514f2a19724652d839b2d3fcfbad720734976c8",
      "contractAddress": null,
      "daFootprintGasScalar": "0x138",
      "l1BaseFeeScalar": "0x44d",
      "l1BlobBaseFee": "0x1",
      "l1BlobBaseFeeScalar": "0xa118b",
      "l1Fee": "0x52",
      "l1GasPrice": "0x9",
      "l1GasUsed": "0x640"
    },
    {
      "status": "0x1",
      "cumulativeGasUsed": "0xa4d579",
      "logs": [
        {
          "address": "0x18f5e9e1856877c2e6300d2f85085fa4ccace5b5",
          "topics": [
            "0xdc3622e06fb145651f567d421c9ef261d71d43e3778b761907bc0d70d42e52b0"
          ],
          "data": "0x0000000000000000000000006e57a82c6dea975f306ec19d5d006eec361ed99d000000000000000000000000031155a7b128183c0439b6f5dfdc90d8143429cf4c34b5c4be077793bf3e122c16efbb64dcd79e9b499c38733df7cf66aafff76a000000000000000000000000000000000000000000000000000000000000008000000000000000000000000000000000000000000000000000000000000000e00000000000000000000000006e57a82c6dea975f306ec19d5d006eec361ed99d000000000000000000000000e430f44fc6264a8dede961a3917f71d43c1407e60000000000000000000000004514f2a19724652d839b2d3fcfbad720734976c8000000000000000000000000000000000000000000000000000000000000001e000000000000000000000000000000000000000000000000000000003b9aca000000000000000000000000000000000000000000204fce5e3e250261100000000000000000000000000000000000000000000000000000000000000000000000",
          "blockHash": "0x381046741bbade37025fc1b4ca40d61f5773a5e3ff32ffe5bcb183bd8dad24bf",
          "blockNumber": "0x20764b2",
          "blockTimestamp": "0x69222844",
          "transactionHash": "0x9d3970a9965cc97a5e5fa308764f1199b71e4d4cb163d2e60856a701a1bb13ee",
          "transactionIndex": "0x31",
          "logIndex": "0xae",
          "removed": false
        },
        {
          "address": "0x18f5e9e1856877c2e6300d2f85085fa4ccace5b5",
          "topics": [
            "0x3f18354abbd5306dd1665c2c90f614a4559e39dd620d04fbe5458e613b6588f3"
          ],
          "data": "0x0000000000000000000000006e57a82c6dea975f306ec19d5d006eec361ed99d000000000000000000000000031155a7b128183c0439b6f5dfdc90d8143429cf4c34b5c4be077793bf3e122c16efbb64dcd79e9b499c38733df7cf66aafff76a000000000000000000000000e430f44fc6264a8dede961a3917f71d43c1407e6000000000000000000000000000000000000000000000000000000174876e800",
          "blockHash": "0x381046741bbade37025fc1b4ca40d61f5773a5e3ff32ffe5bcb183bd8dad24bf",
          "blockNumber": "0x20764b2",
          "blockTimestamp": "0x69222844",
          "transactionHash": "0x9d3970a9965cc97a5e5fa308764f1199b71e4d4cb163d2e60856a701a1bb13ee",
          "transactionIndex": "0x31",
          "logIndex": "0xaf",
          "removed": false
        },
        {
          "address": "0x18f5e9e1856877c2e6300d2f85085fa4ccace5b5",
          "topics": [
            "0x3f18354abbd5306dd1665c2c90f614a4559e39dd620d04fbe5458e613b6588f3"
          ],
          "data": "0x0000000000000000000000006e57a82c6dea975f306ec19d5d006eec361ed99d000000000000000000000000031155a7b128183c0439b6f5dfdc90d8143429cf4c34b5c4be077793bf3e122c16efbb64dcd79e9b499c38733df7cf66aafff76a0000000000000000000000004514f2a19724652d839b2d3fcfbad720734976c8000000000000000000000000000000000000000000000002b5e3af16b1880000",
          "blockHash": "0x381046741bbade37025fc1b4ca40d61f5773a5e3ff32ffe5bcb183bd8dad24bf",
          "blockNumber": "0x20764b2",
          "blockTimestamp": "0x69222844",
          "transactionHash": "0x9d3970a9965cc97a5e5fa308764f1199b71e4d4cb163d2e60856a701a1bb13ee",
          "transactionIndex": "0x31",
          "logIndex": "0xb0",
          "removed": false
        }
      ],
      "logsBloom": "0x00000000000000000000000000001000000000000000000000100000000000000000000000000000080000000000000000000000000000000000000000000000000000000000800000000000000000000040000000000000000000000000000000200000000020000000000000000000000000000000000000000000000000000000000000000000000000000000000000000000000000400000000000000000000000000000000000000000020000000000000000000000000000000000000000000000000000000000000000000000000000000000000000000000000000000000000000000000000000000000000000000000000000000000000000000000",
      "type": "0x0",
      "transactionHash": "0x9d3970a9965cc97a5e5fa308764f1199b71e4d4cb163d2e60856a701a1bb13ee",
      "transactionIndex": "0x31",
      "blockHash": "0x381046741bbade37025fc1b4ca40d61f5773a5e3ff32ffe5bcb183bd8dad24bf",
      "blockNumber": "0x20764b2",
      "gasUsed": "0x1583a",
      "effectiveGasPrice": "0x1273ba",
      "blobGasUsed": "0x10c20",
      "from": "0x6e57a82c6dea975f306ec19d5d006eec361ed99d",
      "to": "0x18f5e9e1856877c2e6300d2f85085fa4ccace5b5",
      "contractAddress": null,
      "daFootprintGasScalar": "0x138",
      "l1BaseFeeScalar": "0x44d",
      "l1BlobBaseFee": "0x1",
      "l1BlobBaseFeeScalar": "0xa118b",
      "l1Fee": "0x52",
      "l1GasPrice": "0x9",
      "l1GasUsed": "0xdce"
    }
  ],
  "libraries": [],
  "pending": [],
  "returns": {},
  "timestamp": 1763846211755,
  "chain": 84532,
  "commit": "74910e9"
}