{
  "transactions": [
    {
      "hash": "0xc5d6059611cc74364c9f4c58a3c433baf93628ac2b9bb88216cba2f636e199e1",
      "transactionType": "CALL",
      "contractName": null,
      "contractAddress": "0x833589fcd6edb6e08f4c7c32d4f71b54bda02913",
      "function": "approve(address,uint256)",
      "arguments": [
        "0x36d500a364A3A82140420d1BCb5F8A90c8e352eF",
        "115792089237316195423570985008687907853269984665640564039457584007913129639935"
      ],
      "transaction": {
        "from": "0x17c224a941de97c8e765e7f2415d7d18d4486d1a",
        "to": "0x833589fcd6edb6e08f4c7c32d4f71b54bda02913",
        "gas": "0xccf0",
        "value": "0x0",
        "input": "0x095ea7b300000000000000000000000036d500a364a3a82140420d1bcb5f8a90c8e352efffffffffffffffffffffffffffffffffffffffffffffffffffffffffffffffff",
        "nonce": "0xd",
        "chainId": "0x2105"
      },
      "additionalContracts": [],
      "isFixedGasLimit": false
    },
    {
      "hash": "0x49e3d53f7c9b4bf7aa6ac874a061bb6421505a7c8eb5c063e12c1d0fdb8bca0f",
      "transactionType": "CALL",
      "contractName": null,
      "contractAddress": "0x102d758f688a4c1c5a80b116bd945d4455460282",
      "function": "approve(address,uint256)",
      "arguments": [
        "0x36d500a364A3A82140420d1BCb5F8A90c8e352eF",
        "115792089237316195423570985008687907853269984665640564039457584007913129639935"
      ],
      "transaction": {
        "from": "0x17c224a941de97c8e765e7f2415d7d18d4486d1a",
        "to": "0x102d758f688a4c1c5a80b116bd945d4455460282",
        "gas": "0xc119",
        "value": "0x0",
        "input": "0x095ea7b300000000000000000000000036d500a364a3a82140420d1bcb5f8a90c8e352efffffffffffffffffffffffffffffffffffffffffffffffffffffffffffffffff",
        "nonce": "0xe",
        "chainId": "0x2105"
      },
      "additionalContracts": [],
      "isFixedGasLimit": false
    },
    {
      "hash": "0xccd56fffd9a2f90010e75cd483f088d6083f7c08e4994c015e4087491396e18b",
      "transactionType": "CALL",
      "contractName": null,
      "contractAddress": "0x36d500a364a3a82140420d1bcb5f8a90c8e352ef",
      "function": "ship(address,bytes,address[],uint256[])",
      "arguments": [
        "0xDf12aaAdBaEc2C9cf9E56Bd4B807008530269839",
        "0x00000000000000000000000017c224a941de97c8e765e7f2415d7d18d4486d1a000000000000000000000000833589fcd6edb6e08f4c7c32d4f71b54bda02913000000000000000000000000102d758f688a4c1c5a80b116bd945d445546028200000000000000000000000000000000000000000000000000000000000000050000000000000000000000000000000000000000000000000dbd2fc137a300000000000000000000000000000000000000000000000000000e043da6172500000000000000000000000000000000000000000000000000000000000069226dcb",
        "[0x833589fCD6eDb6E08f4c7C32D4f71b54bdA02913, 0x102d758f688a4C1C5a80b116bD945d4455460282]",
        "[2000000, 2000000]"
      ],
      "transaction": {
        "from": "0x17c224a941de97c8e765e7f2415d7d18d4486d1a",
        "to": "0x36d500a364a3a82140420d1bcb5f8a90c8e352ef",
        "gas": "0x1dcfb",
        "value": "0x0",
        "input": "0xf50b870f000000000000000000000000df12aaadbaec2c9cf9e56bd4b8070085302698390000000000000000000000000000000000000000000000000000000000000080000000000000000000000000000000000000000000000000000000000000018000000000000000000000000000000000000000000000000000000000000001e000000000000000000000000000000000000000000000000000000000000000e000000000000000000000000017c224a941de97c8e765e7f2415d7d18d4486d1a000000000000000000000000833589fcd6edb6e08f4c7c32d4f71b54bda02913000000000000000000000000102d758f688a4c1c5a80b116bd945d445546028200000000000000000000000000000000000000000000000000000000000000050000000000000000000000000000000000000000000000000dbd2fc137a300000000000000000000000000000000000000000000000000000e043da6172500000000000000000000000000000000000000000000000000000000000069226dcb0000000000000000000000000000000000000000000000000000000000000002000000000000000000000000833589fcd6edb6e08f4c7c32d4f71b54bda02913000000000000000000000000102d758f688a4c1c5a80b116bd945d4455460282000000000000000000000000000000000000000000000000000000000000000200000000000000000000000000000000000000000000000000000000001e848000000000000000000000000000000000000000000000000000000000001e8480",
        "nonce": "0xf",
        "chainId": "0x2105"
      },
      "additionalContracts": [],
      "isFixedGasLimit": false
    }
  ],
  "receipts": [
    {
      "status": "0x1",
      "cumulativeGasUsed": "0x44e974",
      "logs": [
        {
          "address": "0x833589fcd6edb6e08f4c7c32d4f71b54bda02913",
          "topics": [
            "0x8c5be1e5ebec7d5bd14f71427d1e84f3dd0314c0f7b2291e5b200ac8c7c3b925",
            "0x00000000000000000000000017c224a941de97c8e765e7f2415d7d18d4486d1a",
            "0x00000000000000000000000036d500a364a3a82140420d1bcb5f8a90c8e352ef"
          ],
          "data": "0xffffffffffffffffffffffffffffffffffffffffffffffffffffffffffffffff",
          "blockHash": "0x3d626de32574743d7c09a1ef56c3a0e5b128dbfe637a2b7823051e6c2ee4dee8",
          "blockNumber": "0x24c087d",
          "blockTimestamp": "0x69226ddd",
          "transactionHash": "0xc5d6059611cc74364c9f4c58a3c433baf93628ac2b9bb88216cba2f636e199e1",
          "transactionIndex": "0x2a",
          "logIndex": "0x2f",
          "removed": false
        }
      ],
      "logsBloom": "0x00000000000000000000000000000000000000000000000000000000000000000000000000000000000000000000100008000000000000000000000000200000000000000000000000000000000000000000000000081000000008000000000000800000000000000000000000000000000040010000000000000000000000000000000000000000000000000000000000000000000000000000000000000000020000000000000000000000000000000000000000000000000000000000000000000000000000000000000000000000000000000000000000000000000000000010000000000000000000000000000000000000000000000000000000000001",
      "type": "0x0",
      "transactionHash": "0xc5d6059611cc74364c9f4c58a3c433baf93628ac2b9bb88216cba2f636e199e1",
      "transactionIndex": "0x2a",
      "blockHash": "0x3d626de32574743d7c09a1ef56c3a0e5b128dbfe637a2b7823051e6c2ee4dee8",
      "blockNumber": "0x24c087d",
      "gasUsed": "0x8c21",
      "effectiveGasPrice": "0x2a4bbc",
      "from": "0x17c224a941de97c8e765e7f2415d7d18d4486d1a",
      "to": "0x833589fcd6edb6e08f4c7c32d4f71b54bda02913",
      "contractAddress": null,
      "l1BaseFeeScalar": "0x8dd",
      "l1BlobBaseFee": "0x1",
      "l1BlobBaseFeeScalar": "0x101c12",
      "l1Fee": "0xe68c141",
      "l1GasPrice": "0x3f812d2",
      "l1GasUsed": "0x640"
    },
    {
      "status": "0x1",
      "cumulativeGasUsed": "0x456d7d",
      "logs": [
        {
          "address": "0x102d758f688a4c1c5a80b116bd945d4455460282",
          "topics": [
            "0x8c5be1e5ebec7d5bd14f71427d1e84f3dd0314c0f7b2291e5b200ac8c7c3b925",
            "0x00000000000000000000000017c224a941de97c8e765e7f2415d7d18d4486d1a",
            "0x00000000000000000000000036d500a364a3a82140420d1bcb5f8a90c8e352ef"
          ],
          "data": "0xffffffffffffffffffffffffffffffffffffffffffffffffffffffffffffffff",
          "blockHash": "0x3d626de32574743d7c09a1ef56c3a0e5b128dbfe637a2b7823051e6c2ee4dee8",
          "blockNumber": "0x24c087d",
          "blockTimestamp": "0x69226ddd",
          "transactionHash": "0x49e3d53f7c9b4bf7aa6ac874a061bb6421505a7c8eb5c063e12c1d0fdb8bca0f",
          "transactionIndex": "0x2b",
          "logIndex": "0x30",
          "removed": false
        }
      ],
      "logsBloom": "0x00000000000000000000000000000000000000000000000000000000000000000000000000000000000000000000000008000000000000000000000000200000000000000000000000000000000000000000000080001000000008000000000000000000001000000000000000000000000040010000000000000000000000000000000000000000000000000000000000000000000000000000000000000000020000000000000000000000000000000000000000000000000000000000000000000000000000000000000000000000000000000000000000000000000000000010000000000000000000000000000000000000000001000000000000000001",
      "type": "0x0",
      "transactionHash": "0x49e3d53f7c9b4bf7aa6ac874a061bb6421505a7c8eb5c063e12c1d0fdb8bca0f",
      "transactionIndex": "0x2b",
      "blockHash": "0x3d626de32574743d7c09a1ef56c3a0e5b128dbfe637a2b7823051e6c2ee4dee8",
      "blockNumber": "0x24c087d",
      "gasUsed": "0x8409",
      "effectiveGasPrice": "0x2a4bbc",
      "from": "0x17c224a941de97c8e765e7f2415d7d18d4486d1a",
      "to": "0x102d758f688a4c1c5a80b116bd945d4455460282",
      "contractAddress": null,
      "l1BaseFeeScalar": "0x8dd",
      "l1BlobBaseFee": "0x1",
      "l1BlobBaseFeeScalar": "0x101c12",
      "l1Fee": "0xe68c141",
      "l1GasPrice": "0x3f812d2",
      "l1GasUsed": "0x640"
    },
    {
      "status": "0x1",
      "cumulativeGasUsed": "0x46c6d1",
      "logs": [
        {
          "address": "0x36d500a364a3a82140420d1bcb5f8a90c8e352ef",
          "topics": [
            "0xdc3622e06fb145651f567d421c9ef261d71d43e3778b761907bc0d70d42e52b0"
          ],
          "data": "0x00000000000000000000000017c224a941de97c8e765e7f2415d7d18d4486d1a000000000000000000000000df12aaadbaec2c9cf9e56bd4b80700853026983999d80684cb2cfdc93047cd5d534f3cfb23d8cb637979442196a367e38fda0643000000000000000000000000000000000000000000000000000000000000008000000000000000000000000000000000000000000000000000000000000000e000000000000000000000000017c224a941de97c8e765e7f2415d7d18d4486d1a000000000000000000000000833589fcd6edb6e08f4c7c32d4f71b54bda02913000000000000000000000000102d758f688a4c1c5a80b116bd945d445546028200000000000000000000000000000000000000000000000000000000000000050000000000000000000000000000000000000000000000000dbd2fc137a300000000000000000000000000000000000000000000000000000e043da6172500000000000000000000000000000000000000000000000000000000000069226dcb",
          "blockHash": "0x3d626de32574743d7c09a1ef56c3a0e5b128dbfe637a2b7823051e6c2ee4dee8",
          "blockNumber": "0x24c087d",
          "blockTimestamp": "0x69226ddd",
          "transactionHash": "0xccd56fffd9a2f90010e75cd483f088d6083f7c08e4994c015e4087491396e18b",
          "transactionIndex": "0x2c",
          "logIndex": "0x31",
          "removed": false
        },
        {
          "address": "0x36d500a364a3a82140420d1bcb5f8a90c8e352ef",
          "topics": [
            "0x3f18354abbd5306dd1665c2c90f614a4559e39dd620d04fbe5458e613b6588f3"
          ],
          "data": "0x00000000000000000000000017c224a941de97c8e765e7f2415d7d18d4486d1a000000000000000000000000df12aaadbaec2c9cf9e56bd4b80700853026983999d80684cb2cfdc93047cd5d534f3cfb23d8cb637979442196a367e38fda0643000000000000000000000000833589fcd6edb6e08f4c7c32d4f71b54bda0291300000000000000000000000000000000000000000000000000000000001e8480",
          "blockHash": "0x3d626de32574743d7c09a1ef56c3a0e5b128dbfe637a2b7823051e6c2ee4dee8",
          "blockNumber": "0x24c087d",
          "blockTimestamp": "0x69226ddd",
          "transactionHash": "0xccd56fffd9a2f90010e75cd483f088d6083f7c08e4994c015e4087491396e18b",
          "transactionIndex": "0x2c",
          "logIndex": "0x32",
          "removed": false
        },
        {
          "address": "0x36d500a364a3a82140420d1bcb5f8a90c8e352ef",
          "topics": [
            "0x3f18354abbd5306dd1665c2c90f614a4559e39dd620d04fbe5458e613b6588f3"
          ],
          "data": "0x00000000000000000000000017c224a941de97c8e765e7f2415d7d18d4486d1a000000000000000000000000df12aaadbaec2c9cf9e56bd4b80700853026983999d80684cb2cfdc93047cd5d534f3cfb23d8cb637979442196a367e38fda0643000000000000000000000000102d758f688a4c1c5a80b116bd945d445546028200000000000000000000000000000000000000000000000000000000001e8480",
          "blockHash": "0x3d626de32574743d7c09a1ef56c3a0e5b128dbfe637a2b7823051e6c2ee4dee8",
          "blockNumber": "0x24c087d",
          "blockTimestamp": "0x69226ddd",
          "transactionHash": "0xccd56fffd9a2f90010e75cd483f088d6083f7c08e4994c015e4087491396e18b",
          "transactionIndex": "0x2c",
          "logIndex": "0x33",
          "removed": false
        }
      ],
      "logsBloom": "0x00000000000000000000000000000000000000000000000000100000000000000000000000000000080000000000000000000000000000000000000000000000000000000000000000000000000000000040000000000000000000000000000000200000000020000000000000000000000000000000000000000000000000000000000000000000400000000000000000000000000000000000000000004000000000000000000000000000020000000000000000000000000000000000000000000000000000000000000000000000000000000000000000000000000000000000000000000000800000000000000000000000000000000000000000000000",
      "type": "0x0",
      "transactionHash": "0xccd56fffd9a2f90010e75cd483f088d6083f7c08e4994c015e4087491396e18b",
      "transactionIndex": "0x2c",
      "blockHash": "0x3d626de32574743d7c09a1ef56c3a0e5b128dbfe637a2b7823051e6c2ee4dee8",
      "blockNumber": "0x24c087d",
      "gasUsed": "0x15954",
      "effectiveGasPrice": "0x2a4bbc",
      "from": "0x17c224a941de97c8e765e7f2415d7d18d4486d1a",
      "to": "0x36d500a364a3a82140420d1bcb5f8a90c8e352ef",
      "contractAddress": null,
      "l1BaseFeeScalar": "0x8dd",
      "l1BlobBaseFee": "0x1",
      "l1BlobBaseFeeScalar": "0x101c12",
      "l1Fee": "0x1f59790a",
      "l1GasPrice": "0x3f812d2",
      "l1GasUsed": "0xd99"
    }
  ],
  "libraries": [],
  "pending": [],
  "returns": {},
  "timestamp": 1763864029458,
  "chain": 8453,
  "commit": "8a19602"
}