{
  "transactions": [
    {
      "hash": "0xd24121bc85aebe15007f1699c87bd25ebd444e8003031896396975a14285b967",
      "transactionType": "CREATE",
      "contractName": "SimpleSwapper",
      "contractAddress": "0x4b5816a281d9e5ba524d02ef1fece487013e5b22",
      "function": null,
      "arguments": [
        "0xe8A0876cF6c9aa254445526702978B21Db36df94"
      ],
      "transaction": {
        "from": "0x6e57a82c6dea975f306ec19d5d006eec361ed99d",
        "gas": "0x6af5a",
        "value": "0x0",
        "input": "0x60a034606c57601f61058c38819003918201601f19168301916001600160401b03831184841017607057808492602094604052833981010312606c57516001600160a01b0381168103606c57608052604051610507908161008582396080518181816054015261039b0152f35b5f80fd5b634e487b7160e01b5f52604160045260245ffdfe6080806040526004361015610012575f80fd5b5f905f3560e01c908163d1d33b2d146102f057508063eb6bef6d146100865763fe6a87051461003f575f80fd5b346100835780600319360112610083576040517f00000000000000000000000000000000000000000000000000000000000000006001600160a01b03168152602090f35b80fd5b503461008357610160366003190112610083576004356001600160a01b0381169081900361027c5760e036602319011261027c576040519060e0820182811067ffffffffffffffff8211176102dc5760405282906100e261046d565b83526044356001600160a01b038116939091908483036102d85760208101928352606435946001600160a01b038616928387036102d4576040830196875260608301936084358552608084019060a435825260a0850160c435815260c086019060e43582526101043593841515938486036102d0578b9760209161012435975f146102c957505b6040516323b872dd60e01b8152336004820152306024820152604481018890529c8d9160649183916001600160a01b03165af19889156102be5760209b6101a49a610293575b506040519c8d9b8c9a636454106360e11b8c5260018060a01b0390511660048c015260018060a01b0390511660248b015260018060a01b0390511660448a01525160648901525160848801525160a48701525160c486015260e48501526101048401526101443561012484015233610144840152610180610164840152816101848401525af190811561028857829161024e575b602082604051908152f35b90506020813d602011610280575b8161026960209383610483565b8101031261027c5760209150515f610243565b5080fd5b3d915061025c565b6040513d84823e3d90fd5b6102b2908d3d8f116102b7575b6102aa8183610483565b8101906104b9565b6101af565b503d6102a0565b6040513d89823e3d90fd5b9050610169565b8b80fd5b8580fd5b8380fd5b634e487b7160e01b84526041600452602484fd5b90503461044c5761010036600319011261044c576004356001600160a01b038116919082900361044c5761032261046d565b50604435906084356001600160a01b038116919082900361044c5760a4356001600160a01b038116929083900361044c5760e43567ffffffffffffffff811161044c573660238201121561044c57806004013567ffffffffffffffff811161044c573691016024011161044c5763095ea7b360e01b82527f00000000000000000000000000000000000000000000000000000000000000006001600160a01b03166004830181905260248301859052916020816044815f8a5af1801561044157610450575b50813b1561044c575f60a492819560405197889687956308fae4ed60e31b87526004870152602486015260c4356044860152606485015260848401525af1801561044157610433575080f35b61043f91505f90610483565b005b6040513d5f823e3d90fd5b5f80fd5b6104689060203d6020116102b7576102aa8183610483565b6103e7565b602435906001600160a01b038216820361044c57565b90601f8019910116810190811067ffffffffffffffff8211176104a557604052565b634e487b7160e01b5f52604160045260245ffd5b9081602091031261044c5751801515810361044c579056fea26469706673582212205b913ec05d92486199435de150300737754397d98f98b00e8110132da798149964736f6c634300081e0033000000000000000000000000e8a0876cf6c9aa254445526702978b21db36df94",
        "nonce": "0x18",
        "chainId": "0x66eee"
      },
      "additionalContracts": [],
      "isFixedGasLimit": false
    },
    {
      "hash": "0x2a6dcbe5ffc87d143ffc7e2838af1a7717d81300e01a26b9de7e9ff5b444aee9",
      "transactionType": "CALL",
      "contractName": null,
      "contractAddress": "0xf488cae67bddaceb40ebcf389ad805dbd2d3c078",
      "function": "approve(address,uint256)",
      "arguments": [
        "0x4b5816a281D9e5ba524D02ef1fEcE487013e5b22",
        "1000000000"
      ],
      "transaction": {
        "from": "0x6e57a82c6dea975f306ec19d5d006eec361ed99d",
        "to": "0xf488cae67bddaceb40ebcf389ad805dbd2d3c078",
        "gas": "0xeb21",
        "value": "0x0",
        "input": "0x095ea7b30000000000000000000000004b5816a281d9e5ba524d02ef1fece487013e5b22000000000000000000000000000000000000000000000000000000003b9aca00",
        "nonce": "0x19",
        "chainId": "0x66eee"
      },
      "additionalContracts": [],
      "isFixedGasLimit": false
    },
    {
      "hash": "0x2cf9a5768a1177fbd877f9c78b018c95cbbaf7bc83f1b7526c9ebb425f3d3d5c",
      "transactionType": "CALL",
      "contractName": "SimpleSwapper",
      "contractAddress": "0x4b5816a281d9e5ba524d02ef1fece487013e5b22",
      "function": "executeSwap(address,(address,address,address,uint256,uint256,uint256,bytes32),bool,uint256,uint256)",
      "arguments": [
        "0x78517E3b30451c4436e8Aa1AaAd375C1692c15a1",
        "(0x6E57A82c6dea975f306EC19d5D006Eec361eD99D, 0xF488CAE67bddacEB40EbCF389Ad805DbD2D3c078, 0xD0159c517A24236AB2EBA2aFeCa275B24B5bE222, 30, 1000000000, 10000000000000000000000000000, 0x0000000000000000000000000000000000000000000000000000000000000000)",
        "true",
        "1000000000",
        "488643227026545342"
      ],
      "transaction": {
        "from": "0x6e57a82c6dea975f306ec19d5d006eec361ed99d",
        "to": "0x4b5816a281d9e5ba524d02ef1fece487013e5b22",
        "gas": "0x7a2b",
        "value": "0x0",
        "input": "0xeb6bef6d00000000000000000000000078517e3b30451c4436e8aa1aaad375c1692c15a10000000000000000000000006e57a82c6dea975f306ec19d5d006eec361ed99d000000000000000000000000f488cae67bddaceb40ebcf389ad805dbd2d3c078000000000000000000000000d0159c517a24236ab2eba2afeca275b24b5be222000000000000000000000000000000000000000000000000000000000000001e000000000000000000000000000000000000000000000000000000003b9aca000000000000000000000000000000000000000000204fce5e3e2502611000000000000000000000000000000000000000000000000000000000000000000000000000000000000000000000000000000000000000000000000000000000000001000000000000000000000000000000000000000000000000000000003b9aca0000000000000000000000000000000000000000000000000006c8026d10d15abe",
        "nonce": "0x1a",
        "chainId": "0x66eee"
      },
      "additionalContracts": [],
      "isFixedGasLimit": false
    },
    {
      "hash": "0x20ba44874195dae4e191edc5848763665605ac37e6981d5071982f2eee8e049e",
      "transactionType": "CALL",
      "contractName": null,
      "contractAddress": "0xd0159c517a24236ab2eba2afeca275b24b5be222",
      "function": "approve(address,uint256)",
      "arguments": [
        "0x4b5816a281D9e5ba524D02ef1fEcE487013e5b22",
        "500000000000000000"
      ],
      "transaction": {
        "from": "0x6e57a82c6dea975f306ec19d5d006eec361ed99d",
        "to": "0xd0159c517a24236ab2eba2afeca275b24b5be222",
        "gas": "0xeb50",
        "value": "0x0",
        "input": "0x095ea7b30000000000000000000000004b5816a281d9e5ba524d02ef1fece487013e5b2200000000000000000000000000000000000000000000000006f05b59d3b20000",
        "nonce": "0x1b",
        "chainId": "0x66eee"
      },
      "additionalContracts": [],
      "isFixedGasLimit": false
    },
    {
      "hash": "0x2c18ede345350ce1195e767d083d7cde3c7bf57a750bb0969aba30c4d9854b73",
      "transactionType": "CALL",
      "contractName": "SimpleSwapper",
      "contractAddress": "0x4b5816a281d9e5ba524d02ef1fece487013e5b22",
      "function": "executeSwap(address,(address,address,address,uint256,uint256,uint256,bytes32),bool,uint256,uint256)",
      "arguments": [
        "0x78517E3b30451c4436e8Aa1AaAd375C1692c15a1",
        "(0x6E57A82c6dea975f306EC19d5D006Eec361eD99D, 0xF488CAE67bddacEB40EbCF389Ad805DbD2D3c078, 0xD0159c517A24236AB2EBA2aFeCa275B24B5bE222, 30, 1000000000, 10000000000000000000000000000, 0x0000000000000000000000000000000000000000000000000000000000000000)",
        "false",
        "500000000000000000",
        "996802194"
      ],
      "transaction": {
        "from": "0x6e57a82c6dea975f306ec19d5d006eec361ed99d",
        "to": "0x4b5816a281d9e5ba524d02ef1fece487013e5b22",
        "gas": "0x7a0c",
        "value": "0x0",
        "input": "0xeb6bef6d00000000000000000000000078517e3b30451c4436e8aa1aaad375c1692c15a10000000000000000000000006e57a82c6dea975f306ec19d5d006eec361ed99d000000000000000000000000f488cae67bddaceb40ebcf389ad805dbd2d3c078000000000000000000000000d0159c517a24236ab2eba2afeca275b24b5be222000000000000000000000000000000000000000000000000000000000000001e000000000000000000000000000000000000000000000000000000003b9aca000000000000000000000000000000000000000000204fce5e3e250261100000000000000000000000000000000000000000000000000000000000000000000000000000000000000000000000000000000000000000000000000000000000000000000000000000000000000000000000000000000000000006f05b59d3b20000000000000000000000000000000000000000000000000000000000003b69fe92",
        "nonce": "0x1c",
        "chainId": "0x66eee"
      },
      "additionalContracts": [],
      "isFixedGasLimit": false
    }
  ],
  "receipts": [
    {
      "status": "0x1",
      "cumulativeGasUsed": "0x51589",
      "logs": [],
      "logsBloom": "0x00000000000000000000000000000000000000000000000000000000000000000000000000000000000000000000000000000000000000000000000000000000000000000000000000000000000000000000000000000000000000000000000000000000000000000000000000000000000000000000000000000000000000000000000000000000000000000000000000000000000000000000000000000000000000000000000000000000000000000000000000000000000000000000000000000000000000000000000000000000000000000000000000000000000000000000000000000000000000000000000000000000000000000000000000000000",
      "type": "0x0",
      "transactionHash": "0xd24121bc85aebe15007f1699c87bd25ebd444e8003031896396975a14285b967",
      "transactionIndex": "0x1",
      "blockHash": "0xccc931182defa8bec487c8b01fe7be2e20ae7bf442b14abbc151e648222fbfe6",
      "blockNumber": "0xcfd8557",
      "gasUsed": "0x51589",
      "effectiveGasPrice": "0x1312d00",
      "from": "0x6e57a82c6dea975f306ec19d5d006eec361ed99d",
      "to": null,
      "contractAddress": "0x4b5816a281d9e5ba524d02ef1fece487013e5b22",
      "gasUsedForL1": "0x0",
      "l1BlockNumber": "0x93ca22",
      "timeboosted": false
    },
    {
      "status": "0x1",
      "cumulativeGasUsed": "0xb361",
      "logs": [
        {
          "address": "0xf488cae67bddaceb40ebcf389ad805dbd2d3c078",
          "topics": [
            "0x8c5be1e5ebec7d5bd14f71427d1e84f3dd0314c0f7b2291e5b200ac8c7c3b925",
            "0x0000000000000000000000006e57a82c6dea975f306ec19d5d006eec361ed99d",
            "0x0000000000000000000000004b5816a281d9e5ba524d02ef1fece487013e5b22"
          ],
          "data": "0x000000000000000000000000000000000000000000000000000000003b9aca00",
          "blockHash": "0xa146cbff0e0210e157104413a2338707f249c1472b8433ac90b6efee22f65d1e",
          "blockNumber": "0xcfd856c",
          "blockTimestamp": "0x692231f9",
          "transactionHash": "0x2a6dcbe5ffc87d143ffc7e2838af1a7717d81300e01a26b9de7e9ff5b444aee9",
          "transactionIndex": "0x1",
          "logIndex": "0x0",
          "removed": false
        }
      ],
      "logsBloom": "0x00000000000000000000000000000000200000000000000008000000000400000000000000000000020000000000000000000000000080000000000000200000000000000000000000000200000000000000000000000000000000000000000000000000080000000000000000000000000000000000000000000000000000000000000000000000000000000000000000000000000000001000000000000000020000000000000000000000000000000000000000000000000000000000000000000000000000000000400000000000000000000000000000000000000000000010000000000000000000000000000000000000000000000000000000000000",
      "type": "0x0",
      "transactionHash": "0x2a6dcbe5ffc87d143ffc7e2838af1a7717d81300e01a26b9de7e9ff5b444aee9",
      "transactionIndex": "0x1",
      "blockHash": "0xa146cbff0e0210e157104413a2338707f249c1472b8433ac90b6efee22f65d1e",
      "blockNumber": "0xcfd856c",
      "gasUsed": "0xb361",
      "effectiveGasPrice": "0x1312d00",
      "from": "0x6e57a82c6dea975f306ec19d5d006eec361ed99d",
      "to": "0xf488cae67bddaceb40ebcf389ad805dbd2d3c078",
      "contractAddress": null,
      "gasUsedForL1": "0x0",
      "l1BlockNumber": "0x93ca23",
      "timeboosted": false
    },
    {
      "status": "0x1",
      "cumulativeGasUsed": "0x2fe7e",
      "logs": [
        {
          "address": "0xf488cae67bddaceb40ebcf389ad805dbd2d3c078",
          "topics": [
            "0xddf252ad1be2c89b69c2b068fc378daa952ba7f163c4a11628f55a4df523b3ef",
            "0x0000000000000000000000006e57a82c6dea975f306ec19d5d006eec361ed99d",
            "0x0000000000000000000000004b5816a281d9e5ba524d02ef1fece487013e5b22"
          ],
          "data": "0x000000000000000000000000000000000000000000000000000000003b9aca00",
          "blockHash": "0x6747a081995f8578a20b6c375fd35eef94201bb0f8db27c9a7ab7aaa8c537e3c",
          "blockNumber": "0xcfd8580",
          "blockTimestamp": "0x692231fe",
          "transactionHash": "0x2cf9a5768a1177fbd877f9c78b018c95cbbaf7bc83f1b7526c9ebb425f3d3d5c",
          "transactionIndex": "0x2",
          "logIndex": "0x1",
          "removed": false
        },
        {
          "address": "0xd0159c517a24236ab2eba2afeca275b24b5be222",
          "topics": [
            "0xddf252ad1be2c89b69c2b068fc378daa952ba7f163c4a11628f55a4df523b3ef",
            "0x0000000000000000000000006e57a82c6dea975f306ec19d5d006eec361ed99d",
            "0x0000000000000000000000006e57a82c6dea975f306ec19d5d006eec361ed99d"
          ],
          "data": "0x00000000000000000000000000000000000000000000000006d98b8044b47059",
          "blockHash": "0x6747a081995f8578a20b6c375fd35eef94201bb0f8db27c9a7ab7aaa8c537e3c",
          "blockNumber": "0xcfd8580",
          "blockTimestamp": "0x692231fe",
          "transactionHash": "0x2cf9a5768a1177fbd877f9c78b018c95cbbaf7bc83f1b7526c9ebb425f3d3d5c",
          "transactionIndex": "0x2",
          "logIndex": "0x2",
          "removed": false
        },
        {
          "address": "0xe8a0876cf6c9aa254445526702978b21db36df94",
          "topics": [
            "0x3ad61047071575417c75e3311e5d46ff042e292b5dd8769ff18b4b254098ca7a"
          ],
          "data": "0x0000000000000000000000006e57a82c6dea975f306ec19d5d006eec361ed99d00000000000000000000000078517e3b30451c4436e8aa1aaad375c1692c15a19d3a68aea32bc4515b4d825d39a0d749540fc66577e0dac703b13ef348047265000000000000000000000000d0159c517a24236ab2eba2afeca275b24b5be22200000000000000000000000000000000000000000000000006d98b8044b47059",
          "blockHash": "0x6747a081995f8578a20b6c375fd35eef94201bb0f8db27c9a7ab7aaa8c537e3c",
          "blockNumber": "0xcfd8580",
          "blockTimestamp": "0x692231fe",
          "transactionHash": "0x2cf9a5768a1177fbd877f9c78b018c95cbbaf7bc83f1b7526c9ebb425f3d3d5c",
          "transactionIndex": "0x2",
          "logIndex": "0x3",
          "removed": false
        },
        {
          "address": "0xf488cae67bddaceb40ebcf389ad805dbd2d3c078",
          "topics": [
            "0x8c5be1e5ebec7d5bd14f71427d1e84f3dd0314c0f7b2291e5b200ac8c7c3b925",
            "0x0000000000000000000000004b5816a281d9e5ba524d02ef1fece487013e5b22",
            "0x000000000000000000000000e8a0876cf6c9aa254445526702978b21db36df94"
          ],
          "data": "0x000000000000000000000000000000000000000000000000000000003b9aca00",
          "blockHash": "0x6747a081995f8578a20b6c375fd35eef94201bb0f8db27c9a7ab7aaa8c537e3c",
          "blockNumber": "0xcfd8580",
          "blockTimestamp": "0x692231fe",
          "transactionHash": "0x2cf9a5768a1177fbd877f9c78b018c95cbbaf7bc83f1b7526c9ebb425f3d3d5c",
          "transactionIndex": "0x2",
          "logIndex": "0x4",
          "removed": false
        },
        {
          "address": "0xf488cae67bddaceb40ebcf389ad805dbd2d3c078",
          "topics": [
            "0xddf252ad1be2c89b69c2b068fc378daa952ba7f163c4a11628f55a4df523b3ef",
            "0x0000000000000000000000004b5816a281d9e5ba524d02ef1fece487013e5b22",
            "0x0000000000000000000000006e57a82c6dea975f306ec19d5d006eec361ed99d"
          ],
          "data": "0x000000000000000000000000000000000000000000000000000000003b9aca00",
          "blockHash": "0x6747a081995f8578a20b6c375fd35eef94201bb0f8db27c9a7ab7aaa8c537e3c",
          "blockNumber": "0xcfd8580",
          "blockTimestamp": "0x692231fe",
          "transactionHash": "0x2cf9a5768a1177fbd877f9c78b018c95cbbaf7bc83f1b7526c9ebb425f3d3d5c",
          "transactionIndex": "0x2",
          "logIndex": "0x5",
          "removed": false
        },
        {
          "address": "0xe8a0876cf6c9aa254445526702978b21db36df94",
          "topics": [
            "0x3f18354abbd5306dd1665c2c90f614a4559e39dd620d04fbe5458e613b6588f3"
          ],
          "data": "0x0000000000000000000000006e57a82c6dea975f306ec19d5d006eec361ed99d00000000000000000000000078517e3b30451c4436e8aa1aaad375c1692c15a19d3a68aea32bc4515b4d825d39a0d749540fc66577e0dac703b13ef348047265000000000000000000000000f488cae67bddaceb40ebcf389ad805dbd2d3c078000000000000000000000000000000000000000000000000000000003b9aca00",
          "blockHash": "0x6747a081995f8578a20b6c375fd35eef94201bb0f8db27c9a7ab7aaa8c537e3c",
          "blockNumber": "0xcfd8580",
          "blockTimestamp": "0x692231fe",
          "transactionHash": "0x2cf9a5768a1177fbd877f9c78b018c95cbbaf7bc83f1b7526c9ebb425f3d3d5c",
          "transactionIndex": "0x2",
          "logIndex": "0x6",
          "removed": false
        }
      ],
      "logsBloom": "0x00000000000000000000000000400000200000000000000008100000000400100000000000000000020020000000000100000000200080000000000000200000000000000000000000000208001000000040004000000000000000000020000000200000080000000000000000000000000000000000000000000010000080000000000000000000000000000000000000000000000000001000000000000000020000000000000000000000800200000000000000000000000000000000000000000002000000000000400000000000000000000000000000000000000000000010000000000000000001000000000000000000000000000000000000000000",
      "type": "0x0",
      "transactionHash": "0x2cf9a5768a1177fbd877f9c78b018c95cbbaf7bc83f1b7526c9ebb425f3d3d5c",
      "transactionIndex": "0x2",
      "blockHash": "0x6747a081995f8578a20b6c375fd35eef94201bb0f8db27c9a7ab7aaa8c537e3c",
      "blockNumber": "0xcfd8580",
      "gasUsed": "0x1d09a",
      "effectiveGasPrice": "0x1312d00",
      "from": "0x6e57a82c6dea975f306ec19d5d006eec361ed99d",
      "to": "0x4b5816a281d9e5ba524d02ef1fece487013e5b22",
      "contractAddress": null,
      "gasUsedForL1": "0x0",
      "l1BlockNumber": "0x93ca23",
      "timeboosted": false
    },
    {
      "status": "0x1",
      "cumulativeGasUsed": "0x3d352",
      "logs": [
        {
          "address": "0xd0159c517a24236ab2eba2afeca275b24b5be222",
          "topics": [
            "0x8c5be1e5ebec7d5bd14f71427d1e84f3dd0314c0f7b2291e5b200ac8c7c3b925",
            "0x0000000000000000000000006e57a82c6dea975f306ec19d5d006eec361ed99d",
            "0x0000000000000000000000004b5816a281d9e5ba524d02ef1fece487013e5b22"
          ],
          "data": "0x00000000000000000000000000000000000000000000000006f05b59d3b20000",
          "blockHash": "0x9b3f5dec1b8266934d31e75d7bef514873d3034d9da57c952338cfda9010192a",
          "blockNumber": "0xcfd8593",
          "blockTimestamp": "0x69223203",
          "transactionHash": "0x20ba44874195dae4e191edc5848763665605ac37e6981d5071982f2eee8e049e",
          "transactionIndex": "0x3",
          "logIndex": "0x2",
          "removed": false
        }
      ],
      "logsBloom": "0x00000000000000000000000000000000000000000000000000000000000400000000000000000000020000000000000100000000000080000000000000200000000000000000000000000200000000000000004000000000000000000000000000000000080000000000000000000000000000000000000000000000000000000000000000000000000000000000000000000000000000000000000000000000020000000000000000000000800000000000000000000000000000000000000000000000000000000000400000000000000000000000000000000000000000000010000000000000000000000000000000000000000000000000000000000000",
      "type": "0x0",
      "transactionHash": "0x20ba44874195dae4e191edc5848763665605ac37e6981d5071982f2eee8e049e",
      "transactionIndex": "0x3",
      "blockHash": "0x9b3f5dec1b8266934d31e75d7bef514873d3034d9da57c952338cfda9010192a",
      "blockNumber": "0xcfd8593",
      "gasUsed": "0xb385",
      "effectiveGasPrice": "0x1312d00",
      "from": "0x6e57a82c6dea975f306ec19d5d006eec361ed99d",
      "to": "0xd0159c517a24236ab2eba2afeca275b24b5be222",
      "contractAddress": null,
      "gasUsedForL1": "0x0",
      "l1BlockNumber": "0x93ca23",
      "timeboosted": false
    },
    {
      "status": "0x1",
      "cumulativeGasUsed": "0x3da22",
      "logs": [
        {
          "address": "0xd0159c517a24236ab2eba2afeca275b24b5be222",
          "topics": [
            "0xddf252ad1be2c89b69c2b068fc378daa952ba7f163c4a11628f55a4df523b3ef",
            "0x0000000000000000000000006e57a82c6dea975f306ec19d5d006eec361ed99d",
            "0x0000000000000000000000004b5816a281d9e5ba524d02ef1fece487013e5b22"
          ],
          "data": "0x00000000000000000000000000000000000000000000000006f05b59d3b20000",
          "blockHash": "0x24a0ceadcab385166abfff38d3c5a594d3b22f4706e1d7f48770916ea037a768",
          "blockNumber": "0xcfd8597",
          "blockTimestamp": "0x69223204",
          "transactionHash": "0x2c18ede345350ce1195e767d083d7cde3c7bf57a750bb0969aba30c4d9854b73",
          "transactionIndex": "0x3",
          "logIndex": "0x3",
          "removed": false
        },
        {
          "address": "0xf488cae67bddaceb40ebcf389ad805dbd2d3c078",
          "topics": [
            "0xddf252ad1be2c89b69c2b068fc378daa952ba7f163c4a11628f55a4df523b3ef",
            "0x0000000000000000000000006e57a82c6dea975f306ec19d5d006eec361ed99d",
            "0x0000000000000000000000006e57a82c6dea975f306ec19d5d006eec361ed99d"
          ],
          "data": "0x000000000000000000000000000000000000000000000000000000003c03a178",
          "blockHash": "0x24a0ceadcab385166abfff38d3c5a594d3b22f4706e1d7f48770916ea037a768",
          "blockNumber": "0xcfd8597",
          "blockTimestamp": "0x69223204",
          "transactionHash": "0x2c18ede345350ce1195e767d083d7cde3c7bf57a750bb0969aba30c4d9854b73",
          "transactionIndex": "0x3",
          "logIndex": "0x4",
          "removed": false
        },
        {
          "address": "0xe8a0876cf6c9aa254445526702978b21db36df94",
          "topics": [
            "0x3ad61047071575417c75e3311e5d46ff042e292b5dd8769ff18b4b254098ca7a"
          ],
          "data": "0x0000000000000000000000006e57a82c6dea975f306ec19d5d006eec361ed99d00000000000000000000000078517e3b30451c4436e8aa1aaad375c1692c15a19d3a68aea32bc4515b4d825d39a0d749540fc66577e0dac703b13ef348047265000000000000000000000000f488cae67bddaceb40ebcf389ad805dbd2d3c078000000000000000000000000000000000000000000000000000000003c03a178",
          "blockHash": "0x24a0ceadcab385166abfff38d3c5a594d3b22f4706e1d7f48770916ea037a768",
          "blockNumber": "0xcfd8597",
          "blockTimestamp": "0x69223204",
          "transactionHash": "0x2c18ede345350ce1195e767d083d7cde3c7bf57a750bb0969aba30c4d9854b73",
          "transactionIndex": "0x3",
          "logIndex": "0x5",
          "removed": false
        },
        {
          "address": "0xd0159c517a24236ab2eba2afeca275b24b5be222",
          "topics": [
            "0x8c5be1e5ebec7d5bd14f71427d1e84f3dd0314c0f7b2291e5b200ac8c7c3b925",
            "0x0000000000000000000000004b5816a281d9e5ba524d02ef1fece487013e5b22",
            "0x000000000000000000000000e8a0876cf6c9aa254445526702978b21db36df94"
          ],
          "data": "0x00000000000000000000000000000000000000000000000006f05b59d3b20000",
          "blockHash": "0x24a0ceadcab385166abfff38d3c5a594d3b22f4706e1d7f48770916ea037a768",
          "blockNumber": "0xcfd8597",
          "blockTimestamp": "0x69223204",
          "transactionHash": "0x2c18ede345350ce1195e767d083d7cde3c7bf57a750bb0969aba30c4d9854b73",
          "transactionIndex": "0x3",
          "logIndex": "0x6",
          "removed": false
        },
        {
          "address": "0xd0159c517a24236ab2eba2afeca275b24b5be222",
          "topics": [
            "0xddf252ad1be2c89b69c2b068fc378daa952ba7f163c4a11628f55a4df523b3ef",
            "0x0000000000000000000000004b5816a281d9e5ba524d02ef1fece487013e5b22",
            "0x0000000000000000000000006e57a82c6dea975f306ec19d5d006eec361ed99d"
          ],
          "data": "0x00000000000000000000000000000000000000000000000006f05b59d3b20000",
          "blockHash": "0x24a0ceadcab385166abfff38d3c5a594d3b22f4706e1d7f48770916ea037a768",
          "blockNumber": "0xcfd8597",
          "blockTimestamp": "0x69223204",
          "transactionHash": "0x2c18ede345350ce1195e767d083d7cde3c7bf57a750bb0969aba30c4d9854b73",
          "transactionIndex": "0x3",
          "logIndex": "0x7",
          "removed": false
        },
        {
          "address": "0xe8a0876cf6c9aa254445526702978b21db36df94",
          "topics": [
            "0x3f18354abbd5306dd1665c2c90f614a4559e39dd620d04fbe5458e613b6588f3"
          ],
          "data": "0x0000000000000000000000006e57a82c6dea975f306ec19d5d006eec361ed99d00000000000000000000000078517e3b30451c4436e8aa1aaad375c1692c15a19d3a68aea32bc4515b4d825d39a0d749540fc66577e0dac703b13ef348047265000000000000000000000000d0159c517a24236ab2eba2afeca275b24b5be22200000000000000000000000000000000000000000000000006f05b59d3b20000",
          "blockHash": "0x24a0ceadcab385166abfff38d3c5a594d3b22f4706e1d7f48770916ea037a768",
          "blockNumber": "0xcfd8597",
          "blockTimestamp": "0x69223204",
          "transactionHash": "0x2c18ede345350ce1195e767d083d7cde3c7bf57a750bb0969aba30c4d9854b73",
          "transactionIndex": "0x3",
          "logIndex": "0x8",
          "removed": false
        }
      ],
      "logsBloom": "0x00000000000000000000000000400000200000000000000008100000000400100000000000000000020020000000000100000000200080000000000000200000000000000000000000000208001000000040004000000000000000000020000000200000080000000000000000000000000000000000000000000010000080000000000000000000000000000000000000000000000000001000000000000000020000000000000000000000800200000000000000000000000000000000000000000002000000000000400000000000000000000000000000000000000000000010000000000000000001000000000000000000000000000000000000000000",
      "type": "0x0",
      "transactionHash": "0x2c18ede345350ce1195e767d083d7cde3c7bf57a750bb0969aba30c4d9854b73",
      "transactionIndex": "0x3",
      "blockHash": "0x24a0ceadcab385166abfff38d3c5a594d3b22f4706e1d7f48770916ea037a768",
      "blockNumber": "0xcfd8597",
      "gasUsed": "0x1d0a7",
      "effectiveGasPrice": "0x1312d00",
      "from": "0x6e57a82c6dea975f306ec19d5d006eec361ed99d",
      "to": "0x4b5816a281d9e5ba524d02ef1fece487013e5b22",
      "contractAddress": null,
      "gasUsedForL1": "0x0",
      "l1BlockNumber": "0x93ca23",
      "timeboosted": false
    }
  ],
  "libraries": [],
  "pending": [],
  "returns": {},
  "timestamp": 1763848708415,
  "chain": 421614,
  "commit": "b6cd9f4"
}