{
  "transactions": [
    {
      "hash": "0xfd8dc15f6822a14925db0fa2b56f266e0a18d2dcfe9032cb3f52dd42d799196e",
      "transactionType": "CALL",
      "contractName": null,
      "contractAddress": "0xf488cae67bddaceb40ebcf389ad805dbd2d3c078",
      "function": "approve(address,uint256)",
      "arguments": [
        "0xe8A0876cF6c9aa254445526702978B21Db36df94",
        "115792089237316195423570985008687907853269984665640564039457584007913129639935"
      ],
      "transaction": {
        "from": "0x6e57a82c6dea975f306ec19d5d006eec361ed99d",
        "to": "0xf488cae67bddaceb40ebcf389ad805dbd2d3c078",
        "gas": "0xece6",
        "value": "0x0",
        "input": "0x095ea7b3000000000000000000000000e8a0876cf6c9aa254445526702978b21db36df94ffffffffffffffffffffffffffffffffffffffffffffffffffffffffffffffff",
        "nonce": "0x12",
        "chainId": "0x66eee"
      },
      "additionalContracts": [],
      "isFixedGasLimit": false
    },
    {
      "hash": "0xe1eb4f06962a1d20bdf435c198ccdaed4df263cb8fae383b36175ae7fa9bc10d",
      "transactionType": "CALL",
      "contractName": null,
      "contractAddress": "0xd0159c517a24236ab2eba2afeca275b24b5be222",
      "function": "approve(address,uint256)",
      "arguments": [
        "0xe8A0876cF6c9aa254445526702978B21Db36df94",
        "115792089237316195423570985008687907853269984665640564039457584007913129639935"
      ],
      "transaction": {
        "from": "0x6e57a82c6dea975f306ec19d5d006eec361ed99d",
        "to": "0xd0159c517a24236ab2eba2afeca275b24b5be222",
        "gas": "0xece6",
        "value": "0x0",
        "input": "0x095ea7b3000000000000000000000000e8a0876cf6c9aa254445526702978b21db36df94ffffffffffffffffffffffffffffffffffffffffffffffffffffffffffffffff",
        "nonce": "0x13",
        "chainId": "0x66eee"
      },
      "additionalContracts": [],
      "isFixedGasLimit": false
    },
    {
      "hash": "0xcf0121a5a8f195f5c535c1011b9b7b018b6708c21ca691d64686b6074a7ab71d",
      "transactionType": "CALL",
      "contractName": null,
      "contractAddress": "0xe8a0876cf6c9aa254445526702978b21db36df94",
      "function": "ship(address,bytes,address[],uint256[])",
      "arguments": [
        "0x78517E3b30451c4436e8Aa1AaAd375C1692c15a1",
        "0x0000000000000000000000006e57a82c6dea975f306ec19d5d006eec361ed99d000000000000000000000000f488cae67bddaceb40ebcf389ad805dbd2d3c078000000000000000000000000d0159c517a24236ab2eba2afeca275b24b5be222000000000000000000000000000000000000000000000000000000000000001e000000000000000000000000000000000000000000000000000000003b9aca000000000000000000000000000000000000000000204fce5e3e250261100000000000000000000000000000000000000000000000000000000000000000000000",
        "[0xF488CAE67bddacEB40EbCF389Ad805DbD2D3c078, 0xD0159c517A24236AB2EBA2aFeCa275B24B5bE222]",
        "[100000000000, 50000000000000000000]"
      ],
      "transaction": {
        "from": "0x6e57a82c6dea975f306ec19d5d006eec361ed99d",
        "to": "0xe8a0876cf6c9aa254445526702978b21db36df94",
        "gas": "0x1c43b",
        "value": "0x0",
        "input": "0xf50b870f00000000000000000000000078517e3b30451c4436e8aa1aaad375c1692c15a10000000000000000000000000000000000000000000000000000000000000080000000000000000000000000000000000000000000000000000000000000018000000000000000000000000000000000000000000000000000000000000001e000000000000000000000000000000000000000000000000000000000000000e00000000000000000000000006e57a82c6dea975f306ec19d5d006eec361ed99d000000000000000000000000f488cae67bddaceb40ebcf389ad805dbd2d3c078000000000000000000000000d0159c517a24236ab2eba2afeca275b24b5be222000000000000000000000000000000000000000000000000000000000000001e000000000000000000000000000000000000000000000000000000003b9aca000000000000000000000000000000000000000000204fce5e3e2502611000000000000000000000000000000000000000000000000000000000000000000000000000000000000000000000000000000000000000000000000000000000000002000000000000000000000000f488cae67bddaceb40ebcf389ad805dbd2d3c078000000000000000000000000d0159c517a24236ab2eba2afeca275b24b5be2220000000000000000000000000000000000000000000000000000000000000002000000000000000000000000000000000000000000000000000000174876e800000000000000000000000000000000000000000000000002b5e3af16b1880000",
        "nonce": "0x14",
        "chainId": "0x66eee"
      },
      "additionalContracts": [],
      "isFixedGasLimit": false
    }
  ],
  "receipts": [
    {
      "status": "0x1",
      "cumulativeGasUsed": "0xb4bd",
      "logs": [
        {
          "address": "0xf488cae67bddaceb40ebcf389ad805dbd2d3c078",
          "topics": [
            "0x8c5be1e5ebec7d5bd14f71427d1e84f3dd0314c0f7b2291e5b200ac8c7c3b925",
            "0x0000000000000000000000006e57a82c6dea975f306ec19d5d006eec361ed99d",
            "0x000000000000000000000000e8a0876cf6c9aa254445526702978b21db36df94"
          ],
          "data": "0xffffffffffffffffffffffffffffffffffffffffffffffffffffffffffffffff",
          "blockHash": "0x588ffe8b13ebe1cf0cbb92bcda3d8428ccbbd2a194a0b31eb830439278c500f5",
          "blockNumber": "0xcfd8422",
          "blockTimestamp": "0x692231a2",
          "transactionHash": "0xfd8dc15f6822a14925db0fa2b56f266e0a18d2dcfe9032cb3f52dd42d799196e",
          "transactionIndex": "0x1",
          "logIndex": "0x0",
          "removed": false
        }
      ],
      "logsBloom": "0x00000000000000000000000000400000200000000000000008000000000400100000000000000000020000000000000000000000000000000000000000200000000000000000000000000200000000000000000000000000000000000000000000000000000000000000000000000000000000000000000000000000000080000000000000000000000000000000000000000000000000001000000000000000020000000000000000000000000000000000000000000000000000000000000000000000000000000000000000000000000000000000000000000000000000000010000000000000000000000000000000000000000000000000000000000000",
      "type": "0x0",
      "transactionHash": "0xfd8dc15f6822a14925db0fa2b56f266e0a18d2dcfe9032cb3f52dd42d799196e",
      "transactionIndex": "0x1",
      "blockHash": "0x588ffe8b13ebe1cf0cbb92bcda3d8428ccbbd2a194a0b31eb830439278c500f5",
      "blockNumber": "0xcfd8422",
      "gasUsed": "0xb4bd",
      "effectiveGasPrice": "0x1312d00",
      "from": "0x6e57a82c6dea975f306ec19d5d006eec361ed99d",
      "to": "0xf488cae67bddaceb40ebcf389ad805dbd2d3c078",
      "contractAddress": null,
      "gasUsedForL1": "0x0",
      "l1BlockNumber": "0x93ca1c",
      "timeboosted": false
    },
    {
      "status": "0x1",
      "cumulativeGasUsed": "0x76cb5",
      "logs": [
        {
          "address": "0xd0159c517a24236ab2eba2afeca275b24b5be222",
          "topics": [
            "0x8c5be1e5ebec7d5bd14f71427d1e84f3dd0314c0f7b2291e5b200ac8c7c3b925",
            "0x0000000000000000000000006e57a82c6dea975f306ec19d5d006eec361ed99d",
            "0x000000000000000000000000e8a0876cf6c9aa254445526702978b21db36df94"
          ],
          "data": "0xffffffffffffffffffffffffffffffffffffffffffffffffffffffffffffffff",
          "blockHash": "0x7e10dd2654e86905259b4fdd558dc7d9c4d4eb90091f231b678367b0dde199c9",
          "blockNumber": "0xcfd842e",
          "blockTimestamp": "0x692231a5",
          "transactionHash": "0xe1eb4f06962a1d20bdf435c198ccdaed4df263cb8fae383b36175ae7fa9bc10d",
          "transactionIndex": "0x2",
          "logIndex": "0x1",
          "removed": false
        }
      ],
      "logsBloom": "0x00000000000000000000000000400000000000000000000000000000000400100000000000000000020000000000000100000000000000000000000000200000000000000000000000000200000000000000004000000000000000000000000000000000000000000000000000000000000000000000000000000000000080000000000000000000000000000000000000000000000000000000000000000000020000000000000000000000800000000000000000000000000000000000000000000000000000000000000000000000000000000000000000000000000000000010000000000000000000000000000000000000000000000000000000000000",
      "type": "0x0",
      "transactionHash": "0xe1eb4f06962a1d20bdf435c198ccdaed4df263cb8fae383b36175ae7fa9bc10d",
      "transactionIndex": "0x2",
      "blockHash": "0x7e10dd2654e86905259b4fdd558dc7d9c4d4eb90091f231b678367b0dde199c9",
      "blockNumber": "0xcfd842e",
      "gasUsed": "0xb4bd",
      "effectiveGasPrice": "0x1312d00",
      "from": "0x6e57a82c6dea975f306ec19d5d006eec361ed99d",
      "to": "0xd0159c517a24236ab2eba2afeca275b24b5be222",
      "contractAddress": null,
      "gasUsedForL1": "0x0",
      "l1BlockNumber": "0x93ca1c",
      "timeboosted": false
    },
    {
      "status": "0x1",
      "cumulativeGasUsed": "0x1583a",
      "logs": [
        {
          "address": "0xe8a0876cf6c9aa254445526702978b21db36df94",
          "topics": [
            "0xdc3622e06fb145651f567d421c9ef261d71d43e3778b761907bc0d70d42e52b0"
          ],
          "data": "0x0000000000000000000000006e57a82c6dea975f306ec19d5d006eec361ed99d00000000000000000000000078517e3b30451c4436e8aa1aaad375c1692c15a19d3a68aea32bc4515b4d825d39a0d749540fc66577e0dac703b13ef348047265000000000000000000000000000000000000000000000000000000000000008000000000000000000000000000000000000000000000000000000000000000e00000000000000000000000006e57a82c6dea975f306ec19d5d006eec361ed99d000000000000000000000000f488cae67bddaceb40ebcf389ad805dbd2d3c078000000000000000000000000d0159c517a24236ab2eba2afeca275b24b5be222000000000000000000000000000000000000000000000000000000000000001e000000000000000000000000000000000000000000000000000000003b9aca000000000000000000000000000000000000000000204fce5e3e250261100000000000000000000000000000000000000000000000000000000000000000000000",
          "blockHash": "0xfe8864b8ac4b8edb0b12547c75c0873bfa8024c7ec7abb906575931ed57d2168",
          "blockNumber": "0xcfd8436",
          "blockTimestamp": "0x692231a7",
          "transactionHash": "0xcf0121a5a8f195f5c535c1011b9b7b018b6708c21ca691d64686b6074a7ab71d",
          "transactionIndex": "0x1",
          "logIndex": "0x0",
          "removed": false
        },
        {
          "address": "0xe8a0876cf6c9aa254445526702978b21db36df94",
          "topics": [
            "0x3f18354abbd5306dd1665c2c90f614a4559e39dd620d04fbe5458e613b6588f3"
          ],
          "data": "0x0000000000000000000000006e57a82c6dea975f306ec19d5d006eec361ed99d00000000000000000000000078517e3b30451c4436e8aa1aaad375c1692c15a19d3a68aea32bc4515b4d825d39a0d749540fc66577e0dac703b13ef348047265000000000000000000000000f488cae67bddaceb40ebcf389ad805dbd2d3c078000000000000000000000000000000000000000000000000000000174876e800",
          "blockHash": "0xfe8864b8ac4b8edb0b12547c75c0873bfa8024c7ec7abb906575931ed57d2168",
          "blockNumber": "0xcfd8436",
          "blockTimestamp": "0x692231a7",
          "transactionHash": "0xcf0121a5a8f195f5c535c1011b9b7b018b6708c21ca691d64686b6074a7ab71d",
          "transactionIndex": "0x1",
          "logIndex": "0x1",
          "removed": false
        },
        {
          "address": "0xe8a0876cf6c9aa254445526702978b21db36df94",
          "topics": [
            "0x3f18354abbd5306dd1665c2c90f614a4559e39dd620d04fbe5458e613b6588f3"
          ],
          "data": "0x0000000000000000000000006e57a82c6dea975f306ec19d5d006eec361ed99d00000000000000000000000078517e3b30451c4436e8aa1aaad375c1692c15a19d3a68aea32bc4515b4d825d39a0d749540fc66577e0dac703b13ef348047265000000000000000000000000d0159c517a24236ab2eba2afeca275b24b5be222000000000000000000000000000000000000000000000002b5e3af16b1880000",
          "blockHash": "0xfe8864b8ac4b8edb0b12547c75c0873bfa8024c7ec7abb906575931ed57d2168",
          "blockNumber": "0xcfd8436",
          "blockTimestamp": "0x692231a7",
          "transactionHash": "0xcf0121a5a8f195f5c535c1011b9b7b018b6708c21ca691d64686b6074a7ab71d",
          "transactionIndex": "0x1",
          "logIndex": "0x2",
          "removed": false
        }
      ],
      "logsBloom": "0x00000000000000000000000000000000000000000000000000100000000000000000000000000000080000000000000000000000200000000000000000000000000000000000000000000000001000000040000000000000000000000020000000200000000020000000000000000000000000000000000000000000000000000000000000000000000000000000000000000000000000000000000000000000000000000000000000000000020000000000000000000000000000000000000000000000000000000000000000000000000000000000000000000000000000000000000000000000000000000000000000000000000000000000000000000000",
      "type": "0x0",
      "transactionHash": "0xcf0121a5a8f195f5c535c1011b9b7b018b6708c21ca691d64686b6074a7ab71d",
      "transactionIndex": "0x1",
      "blockHash": "0xfe8864b8ac4b8edb0b12547c75c0873bfa8024c7ec7abb906575931ed57d2168",
      "blockNumber": "0xcfd8436",
      "gasUsed": "0x1583a",
      "effectiveGasPrice": "0x1312d00",
      "from": "0x6e57a82c6dea975f306ec19d5d006eec361ed99d",
      "to": "0xe8a0876cf6c9aa254445526702978b21db36df94",
      "contractAddress": null,
      "gasUsedForL1": "0x0",
      "l1BlockNumber": "0x93ca1c",
      "timeboosted": false
    }
  ],
  "libraries": [],
  "pending": [],
  "returns": {},
  "timestamp": 1763848615707,
  "chain": 421614,
  "commit": "b6cd9f4"
}