{
  "transactions": [
    {
      "hash": "0xd510e2a231f78a8ebad4cc8ee4721bf5254f496e6759069ee3262d447d2f33e1",
      "transactionType": "CALL",
      "contractName": null,
      "contractAddress": "0x833589fcd6edb6e08f4c7c32d4f71b54bda02913",
      "function": "approve(address,uint256)",
      "arguments": [
        "0x36d500a364A3A82140420d1BCb5F8A90c8e352eF",
        "115792089237316195423570985008687907853269984665640564039457584007913129639935"
      ],
      "transaction": {
        "from": "0x17c224a941de97c8e765e7f2415d7d18d4486d1a",
        "to": "0x833589fcd6edb6e08f4c7c32d4f71b54bda02913",
        "gas": "0xccf0",
        "value": "0x0",
        "input": "0x095ea7b300000000000000000000000036d500a364a3a82140420d1bcb5f8a90c8e352efffffffffffffffffffffffffffffffffffffffffffffffffffffffffffffffff",
        "nonce": "0x10",
        "chainId": "0x2105"
      },
      "additionalContracts": [],
      "isFixedGasLimit": false
    },
    {
      "hash": "0x09d13155e2c21e57a6e119a36c9dd3e20e40b852470400196ba3752cbd68b749",
      "transactionType": "CALL",
      "contractName": null,
      "contractAddress": "0x102d758f688a4c1c5a80b116bd945d4455460282",
      "function": "approve(address,uint256)",
      "arguments": [
        "0x36d500a364A3A82140420d1BCb5F8A90c8e352eF",
        "115792089237316195423570985008687907853269984665640564039457584007913129639935"
      ],
      "transaction": {
        "from": "0x17c224a941de97c8e765e7f2415d7d18d4486d1a",
        "to": "0x102d758f688a4c1c5a80b116bd945d4455460282",
        "gas": "0xc119",
        "value": "0x0",
        "input": "0x095ea7b300000000000000000000000036d500a364a3a82140420d1bcb5f8a90c8e352efffffffffffffffffffffffffffffffffffffffffffffffffffffffffffffffff",
        "nonce": "0x11",
        "chainId": "0x2105"
      },
      "additionalContracts": [],
      "isFixedGasLimit": false
    },
    {
      "hash": "0xeb2e36b0708aedf548fbf09d02bcafb5837653a86e60ca419802733c064cbecd",
      "transactionType": "CALL",
      "contractName": null,
      "contractAddress": "0x36d500a364a3a82140420d1bcb5f8a90c8e352ef",
      "function": "ship(address,bytes,address[],uint256[])",
      "arguments": [
        "0xeb99024504f5e73Fc857E4B2a0CF076C7F91fa2E",
        "0x00000000000000000000000017c224a941de97c8e765e7f2415d7d18d4486d1a000000000000000000000000833589fcd6edb6e08f4c7c32d4f71b54bda02913000000000000000000000000102d758f688a4c1c5a80b116bd945d4455460282000000000000000000000000000000000000000000000000000000000000000400000000000000000000000000000000000000000000000000000000000000640000000000000000000000000000000000000000000000000000000000000000",
        "[0x833589fCD6eDb6E08f4c7C32D4f71b54bdA02913, 0x102d758f688a4C1C5a80b116bD945d4455460282]",
        "[2000000, 2000000]"
      ],
      "transaction": {
        "from": "0x17c224a941de97c8e765e7f2415d7d18d4486d1a",
        "to": "0x36d500a364a3a82140420d1bcb5f8a90c8e352ef",
        "gas": "0x1f5c8",
        "value": "0x0",
        "input": "0xf50b870f000000000000000000000000eb99024504f5e73fc857e4b2a0cf076c7f91fa2e0000000000000000000000000000000000000000000000000000000000000080000000000000000000000000000000000000000000000000000000000000016000000000000000000000000000000000000000000000000000000000000001c000000000000000000000000000000000000000000000000000000000000000c000000000000000000000000017c224a941de97c8e765e7f2415d7d18d4486d1a000000000000000000000000833589fcd6edb6e08f4c7c32d4f71b54bda02913000000000000000000000000102d758f688a4c1c5a80b116bd945d44554602820000000000000000000000000000000000000000000000000000000000000004000000000000000000000000000000000000000000000000000000000000006400000000000000000000000000000000000000000000000000000000000000000000000000000000000000000000000000000000000000000000000000000002000000000000000000000000833589fcd6edb6e08f4c7c32d4f71b54bda02913000000000000000000000000102d758f688a4c1c5a80b116bd945d4455460282000000000000000000000000000000000000000000000000000000000000000200000000000000000000000000000000000000000000000000000000001e848000000000000000000000000000000000000000000000000000000000001e8480",
        "nonce": "0x12",
        "chainId": "0x2105"
      },
      "additionalContracts": [],
      "isFixedGasLimit": false
    }
  ],
  "receipts": [
    {
      "status": "0x1",
      "cumulativeGasUsed": "0x982d18",
      "logs": [
        {
          "address": "0x833589fcd6edb6e08f4c7c32d4f71b54bda02913",
          "topics": [
            "0x8c5be1e5ebec7d5bd14f71427d1e84f3dd0314c0f7b2291e5b200ac8c7c3b925",
            "0x00000000000000000000000017c224a941de97c8e765e7f2415d7d18d4486d1a",
            "0x00000000000000000000000036d500a364a3a82140420d1bcb5f8a90c8e352ef"
          ],
          "data": "0xffffffffffffffffffffffffffffffffffffffffffffffffffffffffffffffff",
          "blockHash": "0xb3320d878becb632767ac8aa4fe5af8295460361be9e8418aab38e702e11182e",
          "blockNumber": "0x24c09e8",
          "blockTimestamp": "0x692270b3",
          "transactionHash": "0xd510e2a231f78a8ebad4cc8ee4721bf5254f496e6759069ee3262d447d2f33e1",
          "transactionIndex": "0x2e",
          "logIndex": "0xa8",
          "removed": false
        }
      ],
      "logsBloom": "0x00000000000000000000000000000000000000000000000000000000000000000000000000000000000000000000100008000000000000000000000000200000000000000000000000000000000000000000000000081000000008000000000000800000000000000000000000000000000040010000000000000000000000000000000000000000000000000000000000000000000000000000000000000000020000000000000000000000000000000000000000000000000000000000000000000000000000000000000000000000000000000000000000000000000000000010000000000000000000000000000000000000000000000000000000000001",
      "type": "0x0",
      "transactionHash": "0xd510e2a231f78a8ebad4cc8ee4721bf5254f496e6759069ee3262d447d2f33e1",
      "transactionIndex": "0x2e",
      "blockHash": "0xb3320d878becb632767ac8aa4fe5af8295460361be9e8418aab38e702e11182e",
      "blockNumber": "0x24c09e8",
      "gasUsed": "0x8c21",
      "effectiveGasPrice": "0x2366f7",
      "from": "0x17c224a941de97c8e765e7f2415d7d18d4486d1a",
      "to": "0x833589fcd6edb6e08f4c7c32d4f71b54bda02913",
      "contractAddress": null,
      "l1BaseFeeScalar": "0x8dd",
      "l1BlobBaseFee": "0x1",
      "l1BlobBaseFeeScalar": "0x101c12",
      "l1Fee": "0xd150a57",
      "l1GasPrice": "0x39a7fa2",
      "l1GasUsed": "0x640"
    },
    {
      "status": "0x1",
      "cumulativeGasUsed": "0x98b121",
      "logs": [
        {
          "address": "0x102d758f688a4c1c5a80b116bd945d4455460282",
          "topics": [
            "0x8c5be1e5ebec7d5bd14f71427d1e84f3dd0314c0f7b2291e5b200ac8c7c3b925",
            "0x00000000000000000000000017c224a941de97c8e765e7f2415d7d18d4486d1a",
            "0x00000000000000000000000036d500a364a3a82140420d1bcb5f8a90c8e352ef"
          ],
          "data": "0xffffffffffffffffffffffffffffffffffffffffffffffffffffffffffffffff",
          "blockHash": "0xb3320d878becb632767ac8aa4fe5af8295460361be9e8418aab38e702e11182e",
          "blockNumber": "0x24c09e8",
          "blockTimestamp": "0x692270b3",
          "transactionHash": "0x09d13155e2c21e57a6e119a36c9dd3e20e40b852470400196ba3752cbd68b749",
          "transactionIndex": "0x2f",
          "logIndex": "0xa9",
          "removed": false
        }
      ],
      "logsBloom": "0x00000000000000000000000000000000000000000000000000000000000000000000000000000000000000000000000008000000000000000000000000200000000000000000000000000000000000000000000080001000000008000000000000000000001000000000000000000000000040010000000000000000000000000000000000000000000000000000000000000000000000000000000000000000020000000000000000000000000000000000000000000000000000000000000000000000000000000000000000000000000000000000000000000000000000000010000000000000000000000000000000000000000001000000000000000001",
      "type": "0x0",
      "transactionHash": "0x09d13155e2c21e57a6e119a36c9dd3e20e40b852470400196ba3752cbd68b749",
      "transactionIndex": "0x2f",
      "blockHash": "0xb3320d878becb632767ac8aa4fe5af8295460361be9e8418aab38e702e11182e",
      "blockNumber": "0x24c09e8",
      "gasUsed": "0x8409",
      "effectiveGasPrice": "0x2366f7",
      "from": "0x17c224a941de97c8e765e7f2415d7d18d4486d1a",
      "to": "0x102d758f688a4c1c5a80b116bd945d4455460282",
      "contractAddress": null,
      "l1BaseFeeScalar": "0x8dd",
      "l1BlobBaseFee": "0x1",
      "l1BlobBaseFeeScalar": "0x101c12",
      "l1Fee": "0xd150a57",
      "l1GasPrice": "0x39a7fa2",
      "l1GasUsed": "0x640"
    },
    {
      "status": "0x1",
      "cumulativeGasUsed": "0x9a083b",
      "logs": [
        {
          "address": "0x36d500a364a3a82140420d1bcb5f8a90c8e352ef",
          "topics": [
            "0xdc3622e06fb145651f567d421c9ef261d71d43e3778b761907bc0d70d42e52b0"
          ],
          "data": "0x00000000000000000000000017c224a941de97c8e765e7f2415d7d18d4486d1a000000000000000000000000eb99024504f5e73fc857e4b2a0cf076c7f91fa2efdb385a946eb838e261ae369d4a1f384a314c5148dc6a7603aa76bf8bf6ea602000000000000000000000000000000000000000000000000000000000000008000000000000000000000000000000000000000000000000000000000000000c000000000000000000000000017c224a941de97c8e765e7f2415d7d18d4486d1a000000000000000000000000833589fcd6edb6e08f4c7c32d4f71b54bda02913000000000000000000000000102d758f688a4c1c5a80b116bd945d4455460282000000000000000000000000000000000000000000000000000000000000000400000000000000000000000000000000000000000000000000000000000000640000000000000000000000000000000000000000000000000000000000000000",
          "blockHash": "0xb3320d878becb632767ac8aa4fe5af8295460361be9e8418aab38e702e11182e",
          "blockNumber": "0x24c09e8",
          "blockTimestamp": "0x692270b3",
          "transactionHash": "0xeb2e36b0708aedf548fbf09d02bcafb5837653a86e60ca419802733c064cbecd",
          "transactionIndex": "0x30",
          "logIndex": "0xaa",
          "removed": false
        },
        {
          "address": "0x36d500a364a3a82140420d1bcb5f8a90c8e352ef",
          "topics": [
            "0x3f18354abbd5306dd1665c2c90f614a4559e39dd620d04fbe5458e613b6588f3"
          ],
          "data": "0x00000000000000000000000017c224a941de97c8e765e7f2415d7d18d4486d1a000000000000000000000000eb99024504f5e73fc857e4b2a0cf076c7f91fa2efdb385a946eb838e261ae369d4a1f384a314c5148dc6a7603aa76bf8bf6ea602000000000000000000000000833589fcd6edb6e08f4c7c32d4f71b54bda0291300000000000000000000000000000000000000000000000000000000001e8480",
          "blockHash": "0xb3320d878becb632767ac8aa4fe5af8295460361be9e8418aab38e702e11182e",
          "blockNumber": "0x24c09e8",
          "blockTimestamp": "0x692270b3",
          "transactionHash": "0xeb2e36b0708aedf548fbf09d02bcafb5837653a86e60ca419802733c064cbecd",
          "transactionIndex": "0x30",
          "logIndex": "0xab",
          "removed": false
        },
        {
          "address": "0x36d500a364a3a82140420d1bcb5f8a90c8e352ef",
          "topics": [
            "0x3f18354abbd5306dd1665c2c90f614a4559e39dd620d04fbe5458e613b6588f3"
          ],
          "data": "0x00000000000000000000000017c224a941de97c8e765e7f2415d7d18d4486d1a000000000000000000000000eb99024504f5e73fc857e4b2a0cf076c7f91fa2efdb385a946eb838e261ae369d4a1f384a314c5148dc6a7603aa76bf8bf6ea602000000000000000000000000102d758f688a4c1c5a80b116bd945d445546028200000000000000000000000000000000000000000000000000000000001e8480",
          "blockHash": "0xb3320d878becb632767ac8aa4fe5af8295460361be9e8418aab38e702e11182e",
          "blockNumber": "0x24c09e8",
          "blockTimestamp": "0x692270b3",
          "transactionHash": "0xeb2e36b0708aedf548fbf09d02bcafb5837653a86e60ca419802733c064cbecd",
          "transactionIndex": "0x30",
          "logIndex": "0xac",
          "removed": false
        }
      ],
      "logsBloom": "0x00000000000000000000000000000000000000000000000000100000000000000000000000000000080000000000000000000000000000000000000000000000000000000000000000000000000000000040000000000000000000000000000000200000000020000000000000000000000000000000000000000000000000000000000000000000400000000000000000000000000000000000000000004000000000000000000000000000020000000000000000000000000000000000000000000000000000000000000000000000000000000000000000000000000000000000000000000000800000000000000000000000000000000000000000000000",
      "type": "0x0",
      "transactionHash": "0xeb2e36b0708aedf548fbf09d02bcafb5837653a86e60ca419802733c064cbecd",
      "transactionIndex": "0x30",
      "blockHash": "0xb3320d878becb632767ac8aa4fe5af8295460361be9e8418aab38e702e11182e",
      "blockNumber": "0x24c09e8",
      "gasUsed": "0x1571a",
      "effectiveGasPrice": "0x2366f7",
      "from": "0x17c224a941de97c8e765e7f2415d7d18d4486d1a",
      "to": "0x36d500a364a3a82140420d1bcb5f8a90c8e352ef",
      "contractAddress": null,
      "l1BaseFeeScalar": "0x8dd",
      "l1BlobBaseFee": "0x1",
      "l1BlobBaseFeeScalar": "0x101c12",
      "l1Fee": "0x1a7e1ad9",
      "l1GasPrice": "0x39a7fa2",
      "l1GasUsed": "0xca8"
    }
  ],
  "libraries": [],
  "pending": [],
  "returns": {},
  "timestamp": 1763864755851,
  "chain": 8453,
  "commit": "b95645e"
}