{
  "transactions": [
    {
      "hash": "0x7e6c869390ab4e9150de2727551dc0dad8649ff67358aecd7b0f5bdb7aff5476",
      "transactionType": "CALL",
      "contractName": null,
      "contractAddress": "0xe430f44fc6264a8dede961a3917f71d43c1407e6",
      "function": "approve(address,uint256)",
      "arguments": [
        "0x18F5E9e1856877c2e6300D2f85085fA4cCAcE5b5",
        "115792089237316195423570985008687907853269984665640564039457584007913129639935"
      ],
      "transaction": {
        "from": "0x6e57a82c6dea975f306ec19d5d006eec361ed99d",
        "to": "0xe430f44fc6264a8dede961a3917f71d43c1407e6",
        "gas": "0x96a4",
        "value": "0x0",
        "input": "0x095ea7b300000000000000000000000018f5e9e1856877c2e6300d2f85085fa4ccace5b5ffffffffffffffffffffffffffffffffffffffffffffffffffffffffffffffff",
        "nonce": "0x91",
        "chainId": "0x14a34"
      },
      "additionalContracts": [],
      "isFixedGasLimit": false
    },
    {
      "hash": "0x57faacb15663dc1995e97c28c2b5ee57bac88d61f3152ec6b5abf992d5467d55",
      "transactionType": "CALL",
      "contractName": null,
      "contractAddress": "0xe66b7480568493f48829ae1700218de48aba815e",
      "function": "approve(address,uint256)",
      "arguments": [
        "0x18F5E9e1856877c2e6300D2f85085fA4cCAcE5b5",
        "115792089237316195423570985008687907853269984665640564039457584007913129639935"
      ],
      "transaction": {
        "from": "0x6e57a82c6dea975f306ec19d5d006eec361ed99d",
        "to": "0xe66b7480568493f48829ae1700218de48aba815e",
        "gas": "0xf9a4",
        "value": "0x0",
        "input": "0x095ea7b300000000000000000000000018f5e9e1856877c2e6300d2f85085fa4ccace5b5ffffffffffffffffffffffffffffffffffffffffffffffffffffffffffffffff",
        "nonce": "0x92",
        "chainId": "0x14a34"
      },
      "additionalContracts": [],
      "isFixedGasLimit": false
    },
    {
      "hash": "0xf6df49faab555f99fd373f45f947c53e856fd84af22dc11d2b261d47ae8055b1",
      "transactionType": "CALL",
      "contractName": null,
      "contractAddress": "0x18f5e9e1856877c2e6300d2f85085fa4ccace5b5",
      "function": "ship(address,bytes,address[],uint256[])",
      "arguments": [
        "0xC897104C266C291ddC7cB30451CF2056A064b1f4",
        "0x0000000000000000000000006e57a82c6dea975f306ec19d5d006eec361ed99d000000000000000000000000e430f44fc6264a8dede961a3917f71d43c1407e6000000000000000000000000e66b7480568493f48829ae1700218de48aba815e000000000000000000000000000000000000000000000000000000000000000400000000000000000000000000000000000000000000000000000000000000640000000000000000000000000000000000000000000000000000000000000000",
        "[0xE430F44Fc6264A8dEdE961A3917f71d43C1407e6, 0xe66b7480568493f48829aE1700218De48abA815e]",
        "[100000000000, 100000000000]"
      ],
      "transaction": {
        "from": "0x6e57a82c6dea975f306ec19d5d006eec361ed99d",
        "to": "0x18f5e9e1856877c2e6300d2f85085fa4ccace5b5",
        "gas": "0x1d841",
        "value": "0x0",
        "input": "0xf50b870f000000000000000000000000c897104c266c291ddc7cb30451cf2056a064b1f40000000000000000000000000000000000000000000000000000000000000080000000000000000000000000000000000000000000000000000000000000016000000000000000000000000000000000000000000000000000000000000001c000000000000000000000000000000000000000000000000000000000000000c00000000000000000000000006e57a82c6dea975f306ec19d5d006eec361ed99d000000000000000000000000e430f44fc6264a8dede961a3917f71d43c1407e6000000000000000000000000e66b7480568493f48829ae1700218de48aba815e0000000000000000000000000000000000000000000000000000000000000004000000000000000000000000000000000000000000000000000000000000006400000000000000000000000000000000000000000000000000000000000000000000000000000000000000000000000000000000000000000000000000000002000000000000000000000000e430f44fc6264a8dede961a3917f71d43c1407e6000000000000000000000000e66b7480568493f48829ae1700218de48aba815e0000000000000000000000000000000000000000000000000000000000000002000000000000000000000000000000000000000000000000000000174876e800000000000000000000000000000000000000000000000000000000174876e800",
        "nonce": "0x93",
        "chainId": "0x14a34"
      },
      "additionalContracts": [],
      "isFixedGasLimit": false
    }
  ],
  "receipts": [
    {
      "status": "0x1",
      "cumulativeGasUsed": "0xe06343",
      "logs": [
        {
          "address": "0xe430f44fc6264a8dede961a3917f71d43c1407e6",
          "topics": [
            "0x8c5be1e5ebec7d5bd14f71427d1e84f3dd0314c0f7b2291e5b200ac8c7c3b925",
            "0x0000000000000000000000006e57a82c6dea975f306ec19d5d006eec361ed99d",
            "0x00000000000000000000000018f5e9e1856877c2e6300d2f85085fa4ccace5b5"
          ],
          "data": "0xffffffffffffffffffffffffffffffffffffffffffffffffffffffffffffffff",
          "blockHash": "0x41712d9ae07356ae14d38e0aa552d0c0a251e478b0a2e41ee07321aa743144f0",
          "blockNumber": "0x20764b8",
          "blockTimestamp": "0x69222850",
          "transactionHash": "0x7e6c869390ab4e9150de2727551dc0dad8649ff67358aecd7b0f5bdb7aff5476",
          "transactionIndex": "0xe",
          "logIndex": "0x4b",
          "removed": false
        }
      ],
      "logsBloom": "0x00000000000400000800000000000000000000000000000000000000000400000000000000000000020000000000000000000000000800000000000000200000000000000000000000000200000000000000000000000000000000000000000000000000000000000000000000000000000000000000000000000000000000000000000000000000000000000000000000000000000000000000000000000000020040000000000000000000000000000000000000000000000000000000000000000000000000000000000000000000000000000000000000000000040000000010000000000000000000000000008000000000000000000000000000000000",
      "type": "0x0",
      "transactionHash": "0x7e6c869390ab4e9150de2727551dc0dad8649ff67358aecd7b0f5bdb7aff5476",
      "transactionIndex": "0xe",
      "blockHash": "0x41712d9ae07356ae14d38e0aa552d0c0a251e478b0a2e41ee07321aa743144f0",
      "blockNumber": "0x20764b8",
      "gasUsed": "0x6701",
      "effectiveGasPrice": "0x128147",
      "blobGasUsed": "0x79e0",
      "from": "0x6e57a82c6dea975f306ec19d5d006eec361ed99d",
      "to": "0xe430f44fc6264a8dede961a3917f71d43c1407e6",
      "contractAddress": null,
      "daFootprintGasScalar": "0x138",
      "l1BaseFeeScalar": "0x44d",
      "l1BlobBaseFee": "0x1",
      "l1BlobBaseFeeScalar": "0xa118b",
      "l1Fee": "0xaeb",
      "l1GasPrice": "0x9",
      "l1GasUsed": "0x640"
    },
    {
      "status": "0x1",
      "cumulativeGasUsed": "0xe11800",
      "logs": [
        {
          "address": "0xe66b7480568493f48829ae1700218de48aba815e",
          "topics": [
            "0x8c5be1e5ebec7d5bd14f71427d1e84f3dd0314c0f7b2291e5b200ac8c7c3b925",
            "0x0000000000000000000000006e57a82c6dea975f306ec19d5d006eec361ed99d",
            "0x00000000000000000000000018f5e9e1856877c2e6300d2f85085fa4ccace5b5"
          ],
          "data": "0xffffffffffffffffffffffffffffffffffffffffffffffffffffffffffffffff",
          "blockHash": "0x41712d9ae07356ae14d38e0aa552d0c0a251e478b0a2e41ee07321aa743144f0",
          "blockNumber": "0x20764b8",
          "blockTimestamp": "0x69222850",
          "transactionHash": "0x57faacb15663dc1995e97c28c2b5ee57bac88d61f3152ec6b5abf992d5467d55",
          "transactionIndex": "0xf",
          "logIndex": "0x4c",
          "removed": false
        }
      ],
      "logsBloom": "0x00000000000400000000000000000000000000000000000000000000000400000000000000000000020000000000000000000000000000000000000000600000000100000000000000000200000000000000000000000000000000000000000000000008000000000000000000000000000000000000000000000000000000000000000000000000000000000000000000000000000000000000000000000000020040000000000000000000000000000000000000000000000000000000000000000000000000000000000000000000000000000000000000000000000000000010000000000000000000000000008000000000000000000000000000000000",
      "type": "0x0",
      "transactionHash": "0x57faacb15663dc1995e97c28c2b5ee57bac88d61f3152ec6b5abf992d5467d55",
      "transactionIndex": "0xf",
      "blockHash": "0x41712d9ae07356ae14d38e0aa552d0c0a251e478b0a2e41ee07321aa743144f0",
      "blockNumber": "0x20764b8",
      "gasUsed": "0xb4bd",
      "effectiveGasPrice": "0x128147",
      "blobGasUsed": "0x79e0",
      "from": "0x6e57a82c6dea975f306ec19d5d006eec361ed99d",
      "to": "0xe66b7480568493f48829ae1700218de48aba815e",
      "contractAddress": null,
      "daFootprintGasScalar": "0x138",
      "l1BaseFeeScalar": "0x44d",
      "l1BlobBaseFee": "0x1",
      "l1BlobBaseFeeScalar": "0xa118b",
      "l1Fee": "0xaeb",
      "l1GasPrice": "0x9",
      "l1GasUsed": "0x640"
    },
    {
      "status": "0x1",
      "cumulativeGasUsed": "0xe26de8",
      "logs": [
        {
          "address": "0x18f5e9e1856877c2e6300d2f85085fa4ccace5b5",
          "topics": [
            "0xdc3622e06fb145651f567d421c9ef261d71d43e3778b761907bc0d70d42e52b0"
          ],
          "data": "0x0000000000000000000000006e57a82c6dea975f306ec19d5d006eec361ed99d000000000000000000000000c897104c266c291ddc7cb30451cf2056a064b1f4550dbfa38a13e38b0ca5e8bc110a52d73baec23f6cb44ce2814866993f23f97a000000000000000000000000000000000000000000000000000000000000008000000000000000000000000000000000000000000000000000000000000000c00000000000000000000000006e57a82c6dea975f306ec19d5d006eec361ed99d000000000000000000000000e430f44fc6264a8dede961a3917f71d43c1407e6000000000000000000000000e66b7480568493f48829ae1700218de48aba815e000000000000000000000000000000000000000000000000000000000000000400000000000000000000000000000000000000000000000000000000000000640000000000000000000000000000000000000000000000000000000000000000",
          "blockHash": "0x41712d9ae07356ae14d38e0aa552d0c0a251e478b0a2e41ee07321aa743144f0",
          "blockNumber": "0x20764b8",
          "blockTimestamp": "0x69222850",
          "transactionHash": "0xf6df49faab555f99fd373f45f947c53e856fd84af22dc11d2b261d47ae8055b1",
          "transactionIndex": "0x10",
          "logIndex": "0x4d",
          "removed": false
        },
        {
          "address": "0x18f5e9e1856877c2e6300d2f85085fa4ccace5b5",
          "topics": [
            "0x3f18354abbd5306dd1665c2c90f614a4559e39dd620d04fbe5458e613b6588f3"
          ],
          "data": "0x0000000000000000000000006e57a82c6dea975f306ec19d5d006eec361ed99d000000000000000000000000c897104c266c291ddc7cb30451cf2056a064b1f4550dbfa38a13e38b0ca5e8bc110a52d73baec23f6cb44ce2814866993f23f97a000000000000000000000000e430f44fc6264a8dede961a3917f71d43c1407e6000000000000000000000000000000000000000000000000000000174876e800",
          "blockHash": "0x41712d9ae07356ae14d38e0aa552d0c0a251e478b0a2e41ee07321aa743144f0",
          "blockNumber": "0x20764b8",
          "blockTimestamp": "0x69222850",
          "transactionHash": "0xf6df49faab555f99fd373f45f947c53e856fd84af22dc11d2b261d47ae8055b1",
          "transactionIndex": "0x10",
          "logIndex": "0x4e",
          "removed": false
        },
        {
          "address": "0x18f5e9e1856877c2e6300d2f85085fa4ccace5b5",
          "topics": [
            "0x3f18354abbd5306dd1665c2c90f614a4559e39dd620d04fbe5458e613b6588f3"
          ],
          "data": "0x0000000000000000000000006e57a82c6dea975f306ec19d5d006eec361ed99d000000000000000000000000c897104c266c291ddc7cb30451cf2056a064b1f4550dbfa38a13e38b0ca5e8bc110a52d73baec23f6cb44ce2814866993f23f97a000000000000000000000000e66b7480568493f48829ae1700218de48aba815e000000000000000000000000000000000000000000000000000000174876e800",
          "blockHash": "0x41712d9ae07356ae14d38e0aa552d0c0a251e478b0a2e41ee07321aa743144f0",
          "blockNumber": "0x20764b8",
          "blockTimestamp": "0x69222850",
          "transactionHash": "0xf6df49faab555f99fd373f45f947c53e856fd84af22dc11d2b261d47ae8055b1",
          "transactionIndex": "0x10",
          "logIndex": "0x4f",
          "removed": false
        }
      ],
      "logsBloom": "0x00000000000000000000000000001000000000000000000000100000000000000000000000000000080000000000000000000000000000000000000000000000000000000000800000000000000000000040000000000000000000000000000000200000000020000000000000000000000000000000000000000000000000000000000000000000000000000000000000000000000000400000000000000000000000000000000000000000020000000000000000000000000000000000000000000000000000000000000000000000000000000000000000000000000000000000000000000000000000000000000000000000000000000000000000000000",
      "type": "0x0",
      "transactionHash": "0xf6df49faab555f99fd373f45f947c53e856fd84af22dc11d2b261d47ae8055b1",
      "transactionIndex": "0x10",
      "blockHash": "0x41712d9ae07356ae14d38e0aa552d0c0a251e478b0a2e41ee07321aa743144f0",
      "blockNumber": "0x20764b8",
      "gasUsed": "0x155e8",
      "effectiveGasPrice": "0x128147",
      "blobGasUsed": "0xfb10",
      "from": "0x6e57a82c6dea975f306ec19d5d006eec361ed99d",
      "to": "0x18f5e9e1856877c2e6300d2f85085fa4ccace5b5",
      "contractAddress": null,
      "daFootprintGasScalar": "0x138",
      "l1BaseFeeScalar": "0x44d",
      "l1BlobBaseFee": "0x1",
      "l1BlobBaseFeeScalar": "0xa118b",
      "l1Fee": "0xaeb",
      "l1GasPrice": "0x9",
      "l1GasUsed": "0xceb"
    }
  ],
  "libraries": [],
  "pending": [],
  "returns": {},
  "timestamp": 1763846222815,
  "chain": 84532,
  "commit": "74910e9"
}